{
  "address": "0x5063D5183CA088a60460a3ffc61843F47Cea2E56",
  "abi": [
    {
      "inputs": [
        {
          "internalType": "address",
          "name": "_depository",
          "type": "address"
        },
        {
          "internalType": "address",
          "name": "_idoDepository",
          "type": "address"
        },
        {
          "internalType": "address",
          "name": "_staking",
          "type": "address"
        },
        {
          "internalType": "address",
          "name": "_treasury",
          "type": "address"
        },
        {
          "internalType": "address",
          "name": "_quas",
          "type": "address"
        },
        {
          "internalType": "address",
          "name": "_sQUAS",
          "type": "address"
        },
        {
          "internalType": "address",
          "name": "_authority",
          "type": "address"
        }
      ],
      "stateMutability": "nonpayable",
      "type": "constructor"
    },
    {
      "anonymous": false,
      "inputs": [
        {
          "indexed": true,
          "internalType": "contract IQuasarAuthority",
          "name": "authority",
          "type": "address"
        }
      ],
      "name": "AuthorityUpdated",
      "type": "event"
    },
    {
      "anonymous": false,
      "inputs": [
        {
          "indexed": true,
          "internalType": "address",
          "name": "bonder",
          "type": "address"
        },
        {
          "indexed": false,
          "internalType": "uint256",
          "name": "payout",
          "type": "uint256"
        },
        {
          "indexed": false,
          "internalType": "uint256",
          "name": "expires",
          "type": "uint256"
        }
      ],
      "name": "BondCreated",
      "type": "event"
    },
    {
      "anonymous": false,
      "inputs": [
        {
          "indexed": true,
          "internalType": "address",
          "name": "bonder",
          "type": "address"
        },
        {
          "indexed": false,
          "internalType": "uint256",
          "name": "payout",
          "type": "uint256"
        }
      ],
      "name": "Redeemed",
      "type": "event"
    },
    {
      "inputs": [
        {
          "internalType": "address",
          "name": "",
          "type": "address"
        }
      ],
      "name": "FERs",
      "outputs": [
        {
          "internalType": "uint256",
          "name": "",
          "type": "uint256"
        }
      ],
      "stateMutability": "view",
      "type": "function"
    },
    {
      "inputs": [],
      "name": "authority",
      "outputs": [
        {
          "internalType": "contract IQuasarAuthority",
          "name": "",
          "type": "address"
        }
      ],
      "stateMutability": "view",
      "type": "function"
    },
    {
      "inputs": [
        {
          "internalType": "address",
          "name": "",
          "type": "address"
        },
        {
          "internalType": "uint256",
          "name": "",
          "type": "uint256"
        }
      ],
      "name": "bonderInfo",
      "outputs": [
        {
          "internalType": "address",
          "name": "principal",
          "type": "address"
        },
        {
          "internalType": "uint256",
          "name": "principalPaid",
          "type": "uint256"
        },
        {
          "internalType": "uint256",
          "name": "payout",
          "type": "uint256"
        },
        {
          "internalType": "uint256",
          "name": "bonded",
          "type": "uint256"
        },
        {
          "internalType": "uint256",
          "name": "vested",
          "type": "uint256"
        },
        {
          "internalType": "uint256",
          "name": "created",
          "type": "uint256"
        },
        {
          "internalType": "uint256",
          "name": "redeemed",
          "type": "uint256"
        }
      ],
      "stateMutability": "view",
      "type": "function"
    },
    {
      "inputs": [],
      "name": "feReward",
      "outputs": [
        {
          "internalType": "uint256",
          "name": "",
          "type": "uint256"
        }
      ],
      "stateMutability": "view",
      "type": "function"
    },
    {
      "inputs": [],
      "name": "getReward",
      "outputs": [],
      "stateMutability": "nonpayable",
      "type": "function"
    },
    {
      "inputs": [
        {
          "internalType": "uint256",
          "name": "_bid",
          "type": "uint256"
        },
        {
          "internalType": "address",
          "name": "_bonder",
          "type": "address"
        },
        {
          "internalType": "address",
          "name": "_principal",
          "type": "address"
        },
        {
          "internalType": "uint256",
          "name": "_principalPaid",
          "type": "uint256"
        },
        {
          "internalType": "uint256",
          "name": "_payout",
          "type": "uint256"
        },
        {
          "internalType": "uint256",
          "name": "_expires",
          "type": "uint256"
        },
        {
          "internalType": "address",
          "name": "_feo",
          "type": "address"
        }
      ],
      "name": "newBond",
      "outputs": [],
      "stateMutability": "nonpayable",
      "type": "function"
    },
    {
      "inputs": [
        {
          "internalType": "address",
          "name": "_bonder",
          "type": "address"
        },
        {
          "internalType": "uint256",
          "name": "_bid",
          "type": "uint256"
        }
      ],
      "name": "payoutInfo",
      "outputs": [
        {
          "internalType": "uint256",
          "name": "lockedPayout",
          "type": "uint256"
        },
        {
          "internalType": "uint256",
          "name": "lockedStakingRewards",
          "type": "uint256"
        },
        {
          "internalType": "uint256",
          "name": "pendingPayout",
          "type": "uint256"
        },
        {
          "internalType": "uint256",
          "name": "pendingStakingRewards",
          "type": "uint256"
        }
      ],
      "stateMutability": "view",
      "type": "function"
    },
    {
      "inputs": [
        {
          "internalType": "address",
          "name": "_bonder",
          "type": "address"
        },
        {
          "internalType": "uint256",
          "name": "_bid",
          "type": "uint256"
        }
      ],
      "name": "percentVestedFor",
      "outputs": [
        {
          "internalType": "uint256",
          "name": "percentVested_",
          "type": "uint256"
        }
      ],
      "stateMutability": "view",
      "type": "function"
    },
    {
      "inputs": [
        {
          "internalType": "address",
          "name": "_bonder",
          "type": "address"
        },
        {
          "internalType": "uint256",
          "name": "_bid",
          "type": "uint256"
        },
        {
          "internalType": "bool",
          "name": "_unstake",
          "type": "bool"
        }
      ],
      "name": "redeem",
      "outputs": [],
      "stateMutability": "nonpayable",
      "type": "function"
    },
    {
      "inputs": [
        {
          "internalType": "contract IQuasarAuthority",
          "name": "_newAuthority",
          "type": "address"
        }
      ],
      "name": "setAuthority",
      "outputs": [],
      "stateMutability": "nonpayable",
      "type": "function"
    },
    {
      "inputs": [
        {
          "internalType": "uint256",
          "name": "reward",
          "type": "uint256"
        }
      ],
      "name": "setFEReward",
      "outputs": [],
      "stateMutability": "nonpayable",
      "type": "function"
    }
  ],
  "transactionHash": "0xd0bd2a00af645932a2c19e9e1eec15892a35a86059387f18ef04bc56055fc887",
  "args": [
    "0x33cEEfa5547434F35549B31E29b5673BD162E4Ca",
    "0x909717EACA8F2331f259Cb7A2A63281dC3881665",
    "0x7584fD17b9FDC375367853A94D350A8E229c0924",
    "0xb4D2BD97f235Ac8a85C7DB14ae4C48b6fFBA0699",
    "0xBc1E6769446b6d603C626153bFF9b1cE6A307B06",
    "0x4DD12d1DA20F90B95687a12c83A65E68bFFc7d91",
    "0x5e7AB75Db9Ca25deCfB1a1B3CcC3905fEE885F68"
  ],
  "numDeployments": 1,
  "solcInputHash": "738a2335619ff75761cabf0c79c1824c",
  "bytecode": "0x610180604052600c6101408190526b15539055551213d49256915160a21b61016090815262000032916000919062000374565b503480156200004057600080fd5b50604051620018fb380380620018fb833981810160405260e08110156200006657600080fd5b50805160208201516040808401516060850151608086015160a087015160c090970151600180546001600160a01b0319166001600160a01b038316908117909155945196979596939592949193909182917f2f658b440c35314f52658ea8a740e05b284cdc84dc9ae01e891f21b8933e7cad90600090a2506001600160a01b0387166200013a576040805162461bcd60e51b815260206004820152601860248201527f5a65726f20616464726573733a204465706f7369746f72790000000000000000604482015290519081900360640190fd5b6001600160601b0319606088901b166080526001600160a01b038716620001a8576040805162461bcd60e51b815260206004820152601c60248201527f5a65726f20616464726573733a2049444f204465706f7369746f727900000000604482015290519081900360640190fd5b6001600160601b0319606087901b1660a0526001600160a01b03851662000216576040805162461bcd60e51b815260206004820152601560248201527f5a65726f20616464726573733a205374616b696e670000000000000000000000604482015290519081900360640190fd5b6001600160601b0319606086901b1660c0526001600160a01b03841662000284576040805162461bcd60e51b815260206004820152601660248201527f5a65726f20616464726573733a20547265617375727900000000000000000000604482015290519081900360640190fd5b6001600160601b0319606085901b1660e0526001600160a01b038316620002e7576040805162461bcd60e51b81526020600482015260126024820152715a65726f20616464726573733a205155415360701b604482015290519081900360640190fd5b6001600160601b0319606084901b16610100526001600160a01b03821662000356576040805162461bcd60e51b815260206004820152601360248201527f5a65726f20616464726573733a20735155415300000000000000000000000000604482015290519081900360640190fd5b5060601b6001600160601b0319166101205250620004209350505050565b828054600181600116156101000203166002900490600052602060002090601f016020900481019282620003ac5760008555620003f7565b82601f10620003c757805160ff1916838001178555620003f7565b82800160010185558215620003f7579182015b82811115620003f7578251825591602001919060010190620003da565b506200040592915062000409565b5090565b5b808211156200040557600081556001016200040a565b60805160601c60a05160601c60c05160601c60e05160601c6101005160601c6101205160601c611457620004a46000398061033e5280610b44528061100052806111b45250806104af5280610c8d528061117c5250806109cf525080610cbc5280610d8c528061102f52806110f852508061093352508061090152506114576000f3fe608060405234801561001057600080fd5b50600436106100c95760003560e01c80636e979c6a11610081578063b3b554d11161005b578063b3b554d11461029b578063bf7e214f146102c1578063fbd030c0146102e5576100c9565b80636e979c6a146101e95780637a9e5e4b14610227578063a729e9c11461024d576100c9565b80633d18b912116100b25780633d18b9121461018e5780633d7319e2146101985780634458a14c146101b5576100c9565b8063015ee036146100ce5780632c1133d414610120575b600080fd5b6100fa600480360360408110156100e457600080fd5b506001600160a01b0381351690602001356102ed565b604080519485526020850193909352838301919091526060830152519081900360800190f35b61014c6004803603604081101561013657600080fd5b506001600160a01b038135169060200135610445565b604080516001600160a01b0390981688526020880196909652868601949094526060860192909252608085015260a084015260c0830152519081900360e00190f35b610196610494565b005b610196600480360360208110156101ae57600080fd5b50356104e1565b610196600480360360608110156101cb57600080fd5b506001600160a01b038135169060208101359060400135151561060c565b610215600480360360408110156101ff57600080fd5b506001600160a01b0381351690602001356106e5565b60408051918252519081900360200190f35b6101966004803603602081101561023d57600080fd5b50356001600160a01b03166107b3565b610196600480360360e081101561026357600080fd5b508035906001600160a01b036020820135811691604081013582169160608201359160808101359160a08201359160c00135166108f6565b610215600480360360208110156102b157600080fd5b50356001600160a01b0316610e0d565b6102c9610e1f565b604080516001600160a01b039092168252519081900360200190f35b610215610e2e565b6001600160a01b038281166000908152600260208181526040808420868552825280842092830154600390930154815163b8fbd53360e01b81526004810185905291519495869586958695909486937f0000000000000000000000000000000000000000000000000000000000000000169263b8fbd53392602480840193919291829003018186803b15801561038257600080fd5b505afa158015610396573d6000803e3d6000fd5b505050506040513d60208110156103ac57600080fd5b505190506000818310156103c7576103c48284610e34565b90505b6001600160a01b038a1660009081526002602090815260408083208c845290915290206006015415801561042157506001600160a01b038a1660009081526002602090815260408083208c84529091529020600401544210155b1561043157819550809450610438565b8197508096505b5050505092959194509250565b6002602081815260009384526040808520909152918352912080546001820154928201546003830154600484015460058501546006909501546001600160a01b03909416959492939192909187565b3360008181526003602052604081208054919055906104de907f00000000000000000000000000000000000000000000000000000000000000006001600160a01b03169083610e7f565b50565b600160009054906101000a90046001600160a01b03166001600160a01b0316630505c8c96040518163ffffffff1660e01b815260040160206040518083038186803b15801561052f57600080fd5b505afa158015610543573d6000803e3d6000fd5b505050506040513d602081101561055957600080fd5b50516000906001600160a01b031633146106065760405162461bcd60e51b81526020600482019081528254600260001961010060018416150201909116046024830181905290918291604490910190849080156105f75780601f106105cc576101008083540402835291602001916105f7565b820191906000526020600020905b8154815290600101906020018083116105da57829003601f168201915b50509250505060405180910390fd5b50600455565b600061061884846102ed565b5092505050806000146106df576001600160a01b03841660008181526002602081815260408084208885528252808420805473ffffffffffffffffffffffffffffffffffffffff1916815560018101859055928301849055600383018490556004830184905560058301849055600690920192909255805184815290517f4896181ff8f4543cc00db9fe9b6fb7e6f032b7eb772c72ab1ec1b4d2e03b9369929181900390910190a281156106d5576106d08482610ffe565b6106df565b6106df84826111a7565b50505050565b60006106ef6113e3565b506001600160a01b0380841660009081526002602081815260408084208785528252808420815160e0810183528154909616865260018101549286019290925291810154918401919091526003810154606084015260048101546080840152600581015460a0840181905260069091015460c0840152610770904290610e34565b9050600061078f8360a001518460800151610e3490919063ffffffff16565b90506107a9816107a384633b9aca006111db565b90611234565b9695505050505050565b600160009054906101000a90046001600160a01b03166001600160a01b0316630c340a246040518163ffffffff1660e01b815260040160206040518083038186803b15801561080157600080fd5b505afa158015610815573d6000803e3d6000fd5b505050506040513d602081101561082b57600080fd5b50516000906001600160a01b0316331461089e5760405162461bcd60e51b81526020600482019081528254600260001961010060018416150201909116046024830181905290918291604490910190849080156105f75780601f106105cc576101008083540402835291602001916105f7565b506001805473ffffffffffffffffffffffffffffffffffffffff19166001600160a01b0383169081179091556040517f2f658b440c35314f52658ea8a740e05b284cdc84dc9ae01e891f21b8933e7cad90600090a250565b336001600160a01b037f00000000000000000000000000000000000000000000000000000000000000001614806109555750336001600160a01b037f000000000000000000000000000000000000000000000000000000000000000016145b6109a6576040805162461bcd60e51b815260206004820152600f60248201527f4f6e6c79206465706f7369746f72790000000000000000000000000000000000604482015290519081900360640190fd5b60006109c36127106107a3600454876111db90919063ffffffff16565b90506001600160a01b037f0000000000000000000000000000000000000000000000000000000000000000166340c10f19306109ff8785611276565b6040518363ffffffff1660e01b815260040180836001600160a01b0316815260200182815260200192505050600060405180830381600087803b158015610a4557600080fd5b505af1158015610a59573d6000803e3d6000fd5b5050506001600160a01b038316600090815260036020526040902054610a80915082611276565b6001600160a01b038316600090815260036020526040902055610aa16113e3565b506001600160a01b0380881660009081526002602081815260408084208d8552825292839020835160e0808201865282548716825260018301548285019081529483015482870152600383015460608301526004808401546080840152600584015460a084015260069093015460c0830152855190810186528c8716815293518b0184840152845163012b7d0360e31b81529182018a90528451909593948501937f0000000000000000000000000000000000000000000000000000000000000000169263095be8189260248082019391829003018186803b158015610b8657600080fd5b505afa158015610b9a573d6000803e3d6000fd5b505050506040513d6020811015610bb057600080fd5b810190808051906020019092919050505083604001510181526020018683606001510181526020018581526020014281526020016000815250600260008a6001600160a01b03166001600160a01b0316815260200190815260200160002060008b815260200190815260200160002060008201518160000160006101000a8154816001600160a01b0302191690836001600160a01b031602179055506020820151816001015560408201518160020155606082015181600301556080820151816004015560a0820151816005015560c082015181600601559050507f00000000000000000000000000000000000000000000000000000000000000006001600160a01b031663095ea7b37f0000000000000000000000000000000000000000000000000000000000000000876040518363ffffffff1660e01b815260040180836001600160a01b0316815260200182815260200192505050602060405180830381600087803b158015610d2257600080fd5b505af1158015610d36573d6000803e3d6000fd5b505050506040513d6020811015610d4c57600080fd5b505060408051637d5fcafb60e01b815230600482015260248101879052600060448201819052600160648301819052608483015291516001600160a01b037f00000000000000000000000000000000000000000000000000000000000000001692637d5fcafb9260a480820193602093909283900390910190829087803b158015610dd657600080fd5b505af1158015610dea573d6000803e3d6000fd5b505050506040513d6020811015610e0057600080fd5b5050505050505050505050565b60036020526000908152604090205481565b6001546001600160a01b031681565b60045481565b6000610e7683836040518060400160405280601e81526020017f536166654d6174683a207375627472616374696f6e206f766572666c6f7700008152506112d0565b90505b92915050565b604080516001600160a01b038481166024830152604480830185905283518084039091018152606490920183526020820180517bffffffffffffffffffffffffffffffffffffffffffffffffffffffff1663a9059cbb60e01b178152925182516000946060949389169392918291908083835b60208310610f115780518252601f199092019160209182019101610ef2565b6001836020036101000a0380198251168184511680821785525050505050509050019150506000604051808303816000865af19150503d8060008114610f73576040519150601f19603f3d011682016040523d82523d6000602084013e610f78565b606091505b5091509150818015610fa6575080511580610fa65750808060200190516020811015610fa357600080fd5b50515b610ff7576040805162461bcd60e51b815260206004820152600f60248201527f5452414e534645525f4641494c45440000000000000000000000000000000000604482015290519081900360640190fd5b5050505050565b7f00000000000000000000000000000000000000000000000000000000000000006001600160a01b031663095ea7b37f0000000000000000000000000000000000000000000000000000000000000000836040518363ffffffff1660e01b815260040180836001600160a01b0316815260200182815260200192505050602060405180830381600087803b15801561109557600080fd5b505af11580156110a9573d6000803e3d6000fd5b505050506040513d60208110156110bf57600080fd5b50506040805163990966d560e01b8152306004820152602481018390526000604482018190526001606483015291516001600160a01b037f0000000000000000000000000000000000000000000000000000000000000000169263990966d592608480820193602093909283900390910190829087803b15801561114257600080fd5b505af1158015611156573d6000803e3d6000fd5b505050506040513d602081101561116c57600080fd5b506111a390506001600160a01b037f0000000000000000000000000000000000000000000000000000000000000000168383610e7f565b5050565b6111a36001600160a01b037f0000000000000000000000000000000000000000000000000000000000000000168383610e7f565b6000826111ea57506000610e79565b828202828482816111f757fe5b0414610e765760405162461bcd60e51b815260040180806020018281038252602181526020018061142a6021913960400191505060405180910390fd5b6000610e7683836040518060400160405280601a81526020017f536166654d6174683a206469766973696f6e206279207a65726f000000000000815250611367565b600082820183811015610e76576040805162461bcd60e51b815260206004820152601b60248201527f536166654d6174683a206164646974696f6e206f766572666c6f770000000000604482015290519081900360640190fd5b6000818484111561135f5760405162461bcd60e51b81526004018080602001828103825283818151815260200191508051906020019080838360005b8381101561132457818101518382015260200161130c565b50505050905090810190601f1680156113515780820380516001836020036101000a031916815260200191505b509250505060405180910390fd5b505050900390565b600081836113b65760405162461bcd60e51b815260206004820181815283516024840152835190928392604490910191908501908083836000831561132457818101518382015260200161130c565b5060008385816113c257fe5b0490508385816113ce57fe5b068185020185146113db57fe5b949350505050565b6040518060e0016040528060006001600160a01b03168152602001600081526020016000815260200160008152602001600081526020016000815260200160008152509056fe536166654d6174683a206d756c7469706c69636174696f6e206f766572666c6f77a164736f6c6343000705000a",
  "devdoc": {
    "kind": "dev",
    "methods": {
      "newBond(uint256,address,address,uint256,uint256,uint256,address)": {
        "params": {
          "_bid": "bond id",
          "_bonder": "address",
          "_expires": "uint256",
          "_feo": "address",
          "_payout": "uint256",
          "_principal": "address",
          "_principalPaid": "uint256"
        }
      },
      "payoutInfo(address,uint256)": {
        "params": {
          "_bid": "uint256",
          "_bonder": "address"
        },
        "returns": {
          "lockedPayout": "uint256, lockedStakingRewards uint256, pendingPayout uint256, pendingStakingRewards uint256"
        }
      },
      "percentVestedFor(address,uint256)": {
        "params": {
          "_bid": "uint256",
          "_bonder": "address"
        },
        "returns": {
          "percentVested_": "uint256"
        }
      },
      "redeem(address,uint256,bool)": {
        "params": {
          "_bid": "uint256",
          "_bonder": "address",
          "_unstake": "bool"
        }
      }
    },
    "version": 1
  },
  "userdoc": {
    "kind": "user",
    "methods": {
      "newBond(uint256,address,address,uint256,uint256,uint256,address)": {
        "notice": "add new bond payout to user data"
      },
      "payoutInfo(address,uint256)": {
        "notice": "calculate amount of QUAS available for claim for single bond"
      },
      "percentVestedFor(address,uint256)": {
        "notice": "calculate how far into vesting a depositor is"
      },
      "redeem(address,uint256,bool)": {
        "notice": "redeem bond for user"
      }
    },
    "version": 1
  },
  "storageLayout": {
    "storage": [
      {
        "astId": 11094,
        "contract": "contracts/BondTeller.sol:BondTeller",
        "label": "UNAUTHORIZED",
        "offset": 0,
        "slot": "0",
        "type": "t_string_storage"
      },
      {
        "astId": 11096,
        "contract": "contracts/BondTeller.sol:BondTeller",
        "label": "authority",
        "offset": 0,
        "slot": "1",
        "type": "t_contract(IQuasarAuthority)7384"
      },
      {
        "astId": 1180,
        "contract": "contracts/BondTeller.sol:BondTeller",
        "label": "bonderInfo",
        "offset": 0,
        "slot": "2",
        "type": "t_mapping(t_address,t_mapping(t_uint256,t_struct(Bond)1162_storage))"
      },
      {
        "astId": 1184,
        "contract": "contracts/BondTeller.sol:BondTeller",
        "label": "FERs",
        "offset": 0,
        "slot": "3",
        "type": "t_mapping(t_address,t_uint256)"
      },
      {
        "astId": 1186,
        "contract": "contracts/BondTeller.sol:BondTeller",
        "label": "feReward",
        "offset": 0,
        "slot": "4",
        "type": "t_uint256"
      }
    ],
    "types": {
      "t_address": {
        "encoding": "inplace",
        "label": "address",
        "numberOfBytes": "20"
      },
      "t_contract(IQuasarAuthority)7384": {
        "encoding": "inplace",
        "label": "contract IQuasarAuthority",
        "numberOfBytes": "20"
      },
      "t_mapping(t_address,t_mapping(t_uint256,t_struct(Bond)1162_storage))": {
        "encoding": "mapping",
        "key": "t_address",
        "label": "mapping(address => mapping(uint256 => struct BondTeller.Bond))",
        "numberOfBytes": "32",
        "value": "t_mapping(t_uint256,t_struct(Bond)1162_storage)"
      },
      "t_mapping(t_address,t_uint256)": {
        "encoding": "mapping",
        "key": "t_address",
        "label": "mapping(address => uint256)",
        "numberOfBytes": "32",
        "value": "t_uint256"
      },
      "t_mapping(t_uint256,t_struct(Bond)1162_storage)": {
        "encoding": "mapping",
        "key": "t_uint256",
        "label": "mapping(uint256 => struct BondTeller.Bond)",
        "numberOfBytes": "32",
        "value": "t_struct(Bond)1162_storage"
      },
      "t_string_storage": {
        "encoding": "bytes",
        "label": "string",
        "numberOfBytes": "32"
      },
      "t_struct(Bond)1162_storage": {
        "encoding": "inplace",
        "label": "struct BondTeller.Bond",
        "members": [
          {
            "astId": 1149,
            "contract": "contracts/BondTeller.sol:BondTeller",
            "label": "principal",
            "offset": 0,
            "slot": "0",
            "type": "t_address"
          },
          {
            "astId": 1151,
            "contract": "contracts/BondTeller.sol:BondTeller",
            "label": "principalPaid",
            "offset": 0,
            "slot": "1",
            "type": "t_uint256"
          },
          {
            "astId": 1153,
            "contract": "contracts/BondTeller.sol:BondTeller",
            "label": "payout",
            "offset": 0,
            "slot": "2",
            "type": "t_uint256"
          },
          {
            "astId": 1155,
            "contract": "contracts/BondTeller.sol:BondTeller",
            "label": "bonded",
            "offset": 0,
            "slot": "3",
            "type": "t_uint256"
          },
          {
            "astId": 1157,
            "contract": "contracts/BondTeller.sol:BondTeller",
            "label": "vested",
            "offset": 0,
            "slot": "4",
            "type": "t_uint256"
          },
          {
            "astId": 1159,
            "contract": "contracts/BondTeller.sol:BondTeller",
            "label": "created",
            "offset": 0,
            "slot": "5",
            "type": "t_uint256"
          },
          {
            "astId": 1161,
            "contract": "contracts/BondTeller.sol:BondTeller",
            "label": "redeemed",
            "offset": 0,
            "slot": "6",
            "type": "t_uint256"
          }
        ],
        "numberOfBytes": "224"
      },
      "t_uint256": {
        "encoding": "inplace",
        "label": "uint256",
        "numberOfBytes": "32"
      }
    }
  }
}