{
  "address": "0x79c39123c36d6A18B2286Fb49c40c848D92e3834",
  "abi": [
    {
      "inputs": [
        {
          "internalType": "address",
          "name": "_depository",
          "type": "address"
        },
        {
          "internalType": "address",
          "name": "_staking",
          "type": "address"
        },
        {
          "internalType": "address",
          "name": "_treasury",
          "type": "address"
        },
        {
          "internalType": "address",
          "name": "_quas",
          "type": "address"
        },
        {
          "internalType": "address",
          "name": "_sQUAS",
          "type": "address"
        },
        {
          "internalType": "address",
          "name": "_authority",
          "type": "address"
        }
      ],
      "stateMutability": "nonpayable",
      "type": "constructor"
    },
    {
      "anonymous": false,
      "inputs": [
        {
          "indexed": true,
          "internalType": "contract IQuasarAuthority",
          "name": "authority",
          "type": "address"
        }
      ],
      "name": "AuthorityUpdated",
      "type": "event"
    },
    {
      "anonymous": false,
      "inputs": [
        {
          "indexed": true,
          "internalType": "address",
          "name": "bonder",
          "type": "address"
        },
        {
          "indexed": false,
          "internalType": "uint256",
          "name": "payout",
          "type": "uint256"
        },
        {
          "indexed": false,
          "internalType": "uint256",
          "name": "expires",
          "type": "uint256"
        }
      ],
      "name": "BondCreated",
      "type": "event"
    },
    {
      "anonymous": false,
      "inputs": [
        {
          "indexed": true,
          "internalType": "address",
          "name": "bonder",
          "type": "address"
        },
        {
          "indexed": false,
          "internalType": "uint256",
          "name": "payout",
          "type": "uint256"
        }
      ],
      "name": "Redeemed",
      "type": "event"
    },
    {
      "inputs": [
        {
          "internalType": "address",
          "name": "",
          "type": "address"
        }
      ],
      "name": "FERs",
      "outputs": [
        {
          "internalType": "uint256",
          "name": "",
          "type": "uint256"
        }
      ],
      "stateMutability": "view",
      "type": "function"
    },
    {
      "inputs": [],
      "name": "authority",
      "outputs": [
        {
          "internalType": "contract IQuasarAuthority",
          "name": "",
          "type": "address"
        }
      ],
      "stateMutability": "view",
      "type": "function"
    },
    {
      "inputs": [
        {
          "internalType": "address",
          "name": "",
          "type": "address"
        },
        {
          "internalType": "uint256",
          "name": "",
          "type": "uint256"
        }
      ],
      "name": "bonderInfo",
      "outputs": [
        {
          "internalType": "address",
          "name": "principal",
          "type": "address"
        },
        {
          "internalType": "uint256",
          "name": "principalPaid",
          "type": "uint256"
        },
        {
          "internalType": "uint256",
          "name": "payout",
          "type": "uint256"
        },
        {
          "internalType": "uint256",
          "name": "bonded",
          "type": "uint256"
        },
        {
          "internalType": "uint256",
          "name": "vested",
          "type": "uint256"
        },
        {
          "internalType": "uint256",
          "name": "created",
          "type": "uint256"
        },
        {
          "internalType": "uint256",
          "name": "redeemed",
          "type": "uint256"
        }
      ],
      "stateMutability": "view",
      "type": "function"
    },
    {
      "inputs": [],
      "name": "feReward",
      "outputs": [
        {
          "internalType": "uint256",
          "name": "",
          "type": "uint256"
        }
      ],
      "stateMutability": "view",
      "type": "function"
    },
    {
      "inputs": [],
      "name": "getReward",
      "outputs": [],
      "stateMutability": "nonpayable",
      "type": "function"
    },
    {
      "inputs": [
        {
          "internalType": "uint256",
          "name": "_bid",
          "type": "uint256"
        },
        {
          "internalType": "address",
          "name": "_bonder",
          "type": "address"
        },
        {
          "internalType": "address",
          "name": "_principal",
          "type": "address"
        },
        {
          "internalType": "uint256",
          "name": "_principalPaid",
          "type": "uint256"
        },
        {
          "internalType": "uint256",
          "name": "_payout",
          "type": "uint256"
        },
        {
          "internalType": "uint256",
          "name": "_expires",
          "type": "uint256"
        },
        {
          "internalType": "address",
          "name": "_feo",
          "type": "address"
        }
      ],
      "name": "newBond",
      "outputs": [],
      "stateMutability": "nonpayable",
      "type": "function"
    },
    {
      "inputs": [
        {
          "internalType": "address",
          "name": "_bonder",
          "type": "address"
        },
        {
          "internalType": "uint256",
          "name": "_bid",
          "type": "uint256"
        }
      ],
      "name": "payoutInfo",
      "outputs": [
        {
          "internalType": "uint256",
          "name": "lockedPayout",
          "type": "uint256"
        },
        {
          "internalType": "uint256",
          "name": "lockedStakingRewards",
          "type": "uint256"
        },
        {
          "internalType": "uint256",
          "name": "pendingPayout",
          "type": "uint256"
        },
        {
          "internalType": "uint256",
          "name": "pendingStakingRewards",
          "type": "uint256"
        }
      ],
      "stateMutability": "view",
      "type": "function"
    },
    {
      "inputs": [
        {
          "internalType": "address",
          "name": "_bonder",
          "type": "address"
        },
        {
          "internalType": "uint256",
          "name": "_bid",
          "type": "uint256"
        }
      ],
      "name": "percentVestedFor",
      "outputs": [
        {
          "internalType": "uint256",
          "name": "percentVested_",
          "type": "uint256"
        }
      ],
      "stateMutability": "view",
      "type": "function"
    },
    {
      "inputs": [
        {
          "internalType": "address",
          "name": "_bonder",
          "type": "address"
        },
        {
          "internalType": "uint256",
          "name": "_bid",
          "type": "uint256"
        },
        {
          "internalType": "bool",
          "name": "_unstake",
          "type": "bool"
        }
      ],
      "name": "redeem",
      "outputs": [],
      "stateMutability": "nonpayable",
      "type": "function"
    },
    {
      "inputs": [
        {
          "internalType": "contract IQuasarAuthority",
          "name": "_newAuthority",
          "type": "address"
        }
      ],
      "name": "setAuthority",
      "outputs": [],
      "stateMutability": "nonpayable",
      "type": "function"
    },
    {
      "inputs": [
        {
          "internalType": "uint256",
          "name": "reward",
          "type": "uint256"
        }
      ],
      "name": "setFEReward",
      "outputs": [],
      "stateMutability": "nonpayable",
      "type": "function"
    }
  ],
  "transactionHash": "0xcf0063b952a786ba8883c75ae841e2049cafb71e4a401e8995a3b1173363e2fe",
  "args": [
    "0x30E8Ba9307fAbAc135256e971324c974A3121646",
    "0xd0887B2a9158F050417c0bbe0Bf78C9596BA737D",
    "0x7DCd50dd5e379A026068bE0b54895EBF21688689",
    "0x19F8f746aB18f62987b0191A65a0c9D0D1D2C2b7",
    "0x1d62a74C444b03cfd7AeddB124181f39a564DA0B",
    "0x4b7CC652D35eaB994c4f86F6d88Acb306d17e01c"
  ],
  "numDeployments": 1,
  "solcInputHash": "5d5cb846ad6d547770dcc63383db45a8",
  "bytecode": "0x610160604052600c6101208190526b15539055551213d49256915160a21b610140908152620000329160009190620002ff565b503480156200004057600080fd5b506040516200183e3803806200183e833981810160405260c08110156200006657600080fd5b50805160208201516040808401516060850151608086015160a090960151600180546001600160a01b0319166001600160a01b038316908117909155935195969495929491939192909182917f2f658b440c35314f52658ea8a740e05b284cdc84dc9ae01e891f21b8933e7cad90600090a2506001600160a01b03861662000135576040805162461bcd60e51b815260206004820152601860248201527f5a65726f20616464726573733a204465706f7369746f72790000000000000000604482015290519081900360640190fd5b6001600160601b0319606087901b166080526001600160a01b038516620001a3576040805162461bcd60e51b815260206004820152601560248201527f5a65726f20616464726573733a205374616b696e670000000000000000000000604482015290519081900360640190fd5b6001600160601b0319606086901b1660a0526001600160a01b03841662000211576040805162461bcd60e51b815260206004820152601660248201527f5a65726f20616464726573733a20547265617375727900000000000000000000604482015290519081900360640190fd5b6001600160601b0319606085901b1660c0526001600160a01b03831662000274576040805162461bcd60e51b81526020600482015260126024820152715a65726f20616464726573733a205155415360701b604482015290519081900360640190fd5b6001600160601b0319606084901b1660e0526001600160a01b038216620002e2576040805162461bcd60e51b815260206004820152601360248201527f5a65726f20616464726573733a20735155415300000000000000000000000000604482015290519081900360640190fd5b5060601b6001600160601b0319166101005250620003ab92505050565b828054600181600116156101000203166002900490600052602060002090601f01602090048101928262000337576000855562000382565b82601f106200035257805160ff191683800117855562000382565b8280016001018555821562000382579182015b828111156200038257825182559160200191906001019062000365565b506200039092915062000394565b5090565b5b8082111562000390576000815560010162000395565b60805160601c60a05160601c60c05160601c60e05160601c6101005160601c61141c620004226000398061033e5280610b095280610fc552806111795250806104a75280610c525280611141525080610994525080610c815280610d515280610ff452806110bd5250806108f9525061141c6000f3fe608060405234801561001057600080fd5b50600436106100c95760003560e01c80636e979c6a11610081578063b3b554d11161005b578063b3b554d11461029b578063bf7e214f146102c1578063fbd030c0146102e5576100c9565b80636e979c6a146101e95780637a9e5e4b14610227578063a729e9c11461024d576100c9565b80633d18b912116100b25780633d18b9121461018e5780633d7319e2146101985780634458a14c146101b5576100c9565b8063015ee036146100ce5780632c1133d414610120575b600080fd5b6100fa600480360360408110156100e457600080fd5b506001600160a01b0381351690602001356102ed565b604080519485526020850193909352838301919091526060830152519081900360800190f35b61014c6004803603604081101561013657600080fd5b506001600160a01b03813516906020013561043d565b604080516001600160a01b0390981688526020880196909652868601949094526060860192909252608085015260a084015260c0830152519081900360e00190f35b61019661048c565b005b610196600480360360208110156101ae57600080fd5b50356104d9565b610196600480360360608110156101cb57600080fd5b506001600160a01b0381351690602081013590604001351515610604565b610215600480360360408110156101ff57600080fd5b506001600160a01b0381351690602001356106dd565b60408051918252519081900360200190f35b6101966004803603602081101561023d57600080fd5b50356001600160a01b03166107ab565b610196600480360360e081101561026357600080fd5b508035906001600160a01b036020820135811691604081013582169160608201359160808101359160a08201359160c00135166108ee565b610215600480360360208110156102b157600080fd5b50356001600160a01b0316610dd2565b6102c9610de4565b604080516001600160a01b039092168252519081900360200190f35b610215610df3565b6001600160a01b038281166000908152600260208181526040808420868552825280842092830154600390930154815163b8fbd53360e01b81526004810185905291519495869586958695909486937f0000000000000000000000000000000000000000000000000000000000000000169263b8fbd53392602480840193919291829003018186803b15801561038257600080fd5b505afa158015610396573d6000803e3d6000fd5b505050506040513d60208110156103ac57600080fd5b5051905060006103bc8284610df9565b6001600160a01b038b1660009081526002602090815260408083208d845290915290206006015490915015801561041957506001600160a01b038a1660009081526002602090815260408083208c84529091529020600401544210155b1561042957819550809450610430565b8197508096505b5050505092959194509250565b6002602081815260009384526040808520909152918352912080546001820154928201546003830154600484015460058501546006909501546001600160a01b03909416959492939192909187565b3360008181526003602052604081208054919055906104d6907f00000000000000000000000000000000000000000000000000000000000000006001600160a01b03169083610e44565b50565b600160009054906101000a90046001600160a01b03166001600160a01b0316630505c8c96040518163ffffffff1660e01b815260040160206040518083038186803b15801561052757600080fd5b505afa15801561053b573d6000803e3d6000fd5b505050506040513d602081101561055157600080fd5b50516000906001600160a01b031633146105fe5760405162461bcd60e51b81526020600482019081528254600260001961010060018416150201909116046024830181905290918291604490910190849080156105ef5780601f106105c4576101008083540402835291602001916105ef565b820191906000526020600020905b8154815290600101906020018083116105d257829003601f168201915b50509250505060405180910390fd5b50600455565b600061061084846102ed565b5092505050806000146106d7576001600160a01b03841660008181526002602081815260408084208885528252808420805473ffffffffffffffffffffffffffffffffffffffff1916815560018101859055928301849055600383018490556004830184905560058301849055600690920192909255805184815290517f4896181ff8f4543cc00db9fe9b6fb7e6f032b7eb772c72ab1ec1b4d2e03b9369929181900390910190a281156106cd576106c88482610fc3565b6106d7565b6106d7848261116c565b50505050565b60006106e76113a8565b506001600160a01b0380841660009081526002602081815260408084208785528252808420815160e0810183528154909616865260018101549286019290925291810154918401919091526003810154606084015260048101546080840152600581015460a0840181905260069091015460c0840152610768904290610df9565b905060006107878360a001518460800151610df990919063ffffffff16565b90506107a18161079b84633b9aca006111a0565b906111f9565b9695505050505050565b600160009054906101000a90046001600160a01b03166001600160a01b0316630c340a246040518163ffffffff1660e01b815260040160206040518083038186803b1580156107f957600080fd5b505afa15801561080d573d6000803e3d6000fd5b505050506040513d602081101561082357600080fd5b50516000906001600160a01b031633146108965760405162461bcd60e51b81526020600482019081528254600260001961010060018416150201909116046024830181905290918291604490910190849080156105ef5780601f106105c4576101008083540402835291602001916105ef565b506001805473ffffffffffffffffffffffffffffffffffffffff19166001600160a01b0383169081179091556040517f2f658b440c35314f52658ea8a740e05b284cdc84dc9ae01e891f21b8933e7cad90600090a250565b336001600160a01b037f0000000000000000000000000000000000000000000000000000000000000000161461096b576040805162461bcd60e51b815260206004820152600f60248201527f4f6e6c79206465706f7369746f72790000000000000000000000000000000000604482015290519081900360640190fd5b600061098861271061079b600454876111a090919063ffffffff16565b90506001600160a01b037f0000000000000000000000000000000000000000000000000000000000000000166340c10f19306109c4878561123b565b6040518363ffffffff1660e01b815260040180836001600160a01b0316815260200182815260200192505050600060405180830381600087803b158015610a0a57600080fd5b505af1158015610a1e573d6000803e3d6000fd5b5050506001600160a01b038316600090815260036020526040902054610a4591508261123b565b6001600160a01b038316600090815260036020526040902055610a666113a8565b506001600160a01b0380881660009081526002602081815260408084208d8552825292839020835160e0808201865282548716825260018301548285019081529483015482870152600383015460608301526004808401546080840152600584015460a084015260069093015460c0830152855190810186528c8716815293518b0184840152845163012b7d0360e31b81529182018a90528451909593948501937f0000000000000000000000000000000000000000000000000000000000000000169263095be8189260248082019391829003018186803b158015610b4b57600080fd5b505afa158015610b5f573d6000803e3d6000fd5b505050506040513d6020811015610b7557600080fd5b810190808051906020019092919050505083604001510181526020018683606001510181526020018581526020014281526020016000815250600260008a6001600160a01b03166001600160a01b0316815260200190815260200160002060008b815260200190815260200160002060008201518160000160006101000a8154816001600160a01b0302191690836001600160a01b031602179055506020820151816001015560408201518160020155606082015181600301556080820151816004015560a0820151816005015560c082015181600601559050507f00000000000000000000000000000000000000000000000000000000000000006001600160a01b031663095ea7b37f0000000000000000000000000000000000000000000000000000000000000000876040518363ffffffff1660e01b815260040180836001600160a01b0316815260200182815260200192505050602060405180830381600087803b158015610ce757600080fd5b505af1158015610cfb573d6000803e3d6000fd5b505050506040513d6020811015610d1157600080fd5b505060408051637d5fcafb60e01b815230600482015260248101879052600060448201819052600160648301819052608483015291516001600160a01b037f00000000000000000000000000000000000000000000000000000000000000001692637d5fcafb9260a480820193602093909283900390910190829087803b158015610d9b57600080fd5b505af1158015610daf573d6000803e3d6000fd5b505050506040513d6020811015610dc557600080fd5b5050505050505050505050565b60036020526000908152604090205481565b6001546001600160a01b031681565b60045481565b6000610e3b83836040518060400160405280601e81526020017f536166654d6174683a207375627472616374696f6e206f766572666c6f770000815250611295565b90505b92915050565b604080516001600160a01b038481166024830152604480830185905283518084039091018152606490920183526020820180517bffffffffffffffffffffffffffffffffffffffffffffffffffffffff1663a9059cbb60e01b178152925182516000946060949389169392918291908083835b60208310610ed65780518252601f199092019160209182019101610eb7565b6001836020036101000a0380198251168184511680821785525050505050509050019150506000604051808303816000865af19150503d8060008114610f38576040519150601f19603f3d011682016040523d82523d6000602084013e610f3d565b606091505b5091509150818015610f6b575080511580610f6b5750808060200190516020811015610f6857600080fd5b50515b610fbc576040805162461bcd60e51b815260206004820152600f60248201527f5452414e534645525f4641494c45440000000000000000000000000000000000604482015290519081900360640190fd5b5050505050565b7f00000000000000000000000000000000000000000000000000000000000000006001600160a01b031663095ea7b37f0000000000000000000000000000000000000000000000000000000000000000836040518363ffffffff1660e01b815260040180836001600160a01b0316815260200182815260200192505050602060405180830381600087803b15801561105a57600080fd5b505af115801561106e573d6000803e3d6000fd5b505050506040513d602081101561108457600080fd5b50506040805163990966d560e01b8152306004820152602481018390526000604482018190526001606483015291516001600160a01b037f0000000000000000000000000000000000000000000000000000000000000000169263990966d592608480820193602093909283900390910190829087803b15801561110757600080fd5b505af115801561111b573d6000803e3d6000fd5b505050506040513d602081101561113157600080fd5b5061116890506001600160a01b037f0000000000000000000000000000000000000000000000000000000000000000168383610e44565b5050565b6111686001600160a01b037f0000000000000000000000000000000000000000000000000000000000000000168383610e44565b6000826111af57506000610e3e565b828202828482816111bc57fe5b0414610e3b5760405162461bcd60e51b81526004018080602001828103825260218152602001806113ef6021913960400191505060405180910390fd5b6000610e3b83836040518060400160405280601a81526020017f536166654d6174683a206469766973696f6e206279207a65726f00000000000081525061132c565b600082820183811015610e3b576040805162461bcd60e51b815260206004820152601b60248201527f536166654d6174683a206164646974696f6e206f766572666c6f770000000000604482015290519081900360640190fd5b600081848411156113245760405162461bcd60e51b81526004018080602001828103825283818151815260200191508051906020019080838360005b838110156112e95781810151838201526020016112d1565b50505050905090810190601f1680156113165780820380516001836020036101000a031916815260200191505b509250505060405180910390fd5b505050900390565b6000818361137b5760405162461bcd60e51b81526020600482018181528351602484015283519092839260449091019190850190808383600083156112e95781810151838201526020016112d1565b50600083858161138757fe5b04905083858161139357fe5b068185020185146113a057fe5b949350505050565b6040518060e0016040528060006001600160a01b03168152602001600081526020016000815260200160008152602001600081526020016000815260200160008152509056fe536166654d6174683a206d756c7469706c69636174696f6e206f766572666c6f77a164736f6c6343000705000a",
  "devdoc": {
    "kind": "dev",
    "methods": {
      "newBond(uint256,address,address,uint256,uint256,uint256,address)": {
        "params": {
          "_bid": "bond id",
          "_bonder": "address",
          "_expires": "uint256",
          "_feo": "address",
          "_payout": "uint256",
          "_principal": "address",
          "_principalPaid": "uint256"
        }
      },
      "payoutInfo(address,uint256)": {
        "params": {
          "_bid": "uint256",
          "_bonder": "address"
        },
        "returns": {
          "lockedPayout": "uint256, lockedStakingRewards uint256, pendingPayout uint256, pendingStakingRewards uint256"
        }
      },
      "percentVestedFor(address,uint256)": {
        "params": {
          "_bid": "uint256",
          "_bonder": "address"
        },
        "returns": {
          "percentVested_": "uint256"
        }
      },
      "redeem(address,uint256,bool)": {
        "params": {
          "_bid": "uint256",
          "_bonder": "address",
          "_unstake": "bool"
        }
      }
    },
    "version": 1
  },
  "userdoc": {
    "kind": "user",
    "methods": {
      "newBond(uint256,address,address,uint256,uint256,uint256,address)": {
        "notice": "add new bond payout to user data"
      },
      "payoutInfo(address,uint256)": {
        "notice": "calculate amount of QUAS available for claim for single bond"
      },
      "percentVestedFor(address,uint256)": {
        "notice": "calculate how far into vesting a depositor is"
      },
      "redeem(address,uint256,bool)": {
        "notice": "redeem bond for user"
      }
    },
    "version": 1
  },
  "storageLayout": {
    "storage": [
      {
        "astId": 10503,
        "contract": "contracts/BondTeller.sol:BondTeller",
        "label": "UNAUTHORIZED",
        "offset": 0,
        "slot": "0",
        "type": "t_string_storage"
      },
      {
        "astId": 10505,
        "contract": "contracts/BondTeller.sol:BondTeller",
        "label": "authority",
        "offset": 0,
        "slot": "1",
        "type": "t_contract(IQuasarAuthority)6793"
      },
      {
        "astId": 1180,
        "contract": "contracts/BondTeller.sol:BondTeller",
        "label": "bonderInfo",
        "offset": 0,
        "slot": "2",
        "type": "t_mapping(t_address,t_mapping(t_uint256,t_struct(Bond)1164_storage))"
      },
      {
        "astId": 1184,
        "contract": "contracts/BondTeller.sol:BondTeller",
        "label": "FERs",
        "offset": 0,
        "slot": "3",
        "type": "t_mapping(t_address,t_uint256)"
      },
      {
        "astId": 1186,
        "contract": "contracts/BondTeller.sol:BondTeller",
        "label": "feReward",
        "offset": 0,
        "slot": "4",
        "type": "t_uint256"
      }
    ],
    "types": {
      "t_address": {
        "encoding": "inplace",
        "label": "address",
        "numberOfBytes": "20"
      },
      "t_contract(IQuasarAuthority)6793": {
        "encoding": "inplace",
        "label": "contract IQuasarAuthority",
        "numberOfBytes": "20"
      },
      "t_mapping(t_address,t_mapping(t_uint256,t_struct(Bond)1164_storage))": {
        "encoding": "mapping",
        "key": "t_address",
        "label": "mapping(address => mapping(uint256 => struct BondTeller.Bond))",
        "numberOfBytes": "32",
        "value": "t_mapping(t_uint256,t_struct(Bond)1164_storage)"
      },
      "t_mapping(t_address,t_uint256)": {
        "encoding": "mapping",
        "key": "t_address",
        "label": "mapping(address => uint256)",
        "numberOfBytes": "32",
        "value": "t_uint256"
      },
      "t_mapping(t_uint256,t_struct(Bond)1164_storage)": {
        "encoding": "mapping",
        "key": "t_uint256",
        "label": "mapping(uint256 => struct BondTeller.Bond)",
        "numberOfBytes": "32",
        "value": "t_struct(Bond)1164_storage"
      },
      "t_string_storage": {
        "encoding": "bytes",
        "label": "string",
        "numberOfBytes": "32"
      },
      "t_struct(Bond)1164_storage": {
        "encoding": "inplace",
        "label": "struct BondTeller.Bond",
        "members": [
          {
            "astId": 1151,
            "contract": "contracts/BondTeller.sol:BondTeller",
            "label": "principal",
            "offset": 0,
            "slot": "0",
            "type": "t_address"
          },
          {
            "astId": 1153,
            "contract": "contracts/BondTeller.sol:BondTeller",
            "label": "principalPaid",
            "offset": 0,
            "slot": "1",
            "type": "t_uint256"
          },
          {
            "astId": 1155,
            "contract": "contracts/BondTeller.sol:BondTeller",
            "label": "payout",
            "offset": 0,
            "slot": "2",
            "type": "t_uint256"
          },
          {
            "astId": 1157,
            "contract": "contracts/BondTeller.sol:BondTeller",
            "label": "bonded",
            "offset": 0,
            "slot": "3",
            "type": "t_uint256"
          },
          {
            "astId": 1159,
            "contract": "contracts/BondTeller.sol:BondTeller",
            "label": "vested",
            "offset": 0,
            "slot": "4",
            "type": "t_uint256"
          },
          {
            "astId": 1161,
            "contract": "contracts/BondTeller.sol:BondTeller",
            "label": "created",
            "offset": 0,
            "slot": "5",
            "type": "t_uint256"
          },
          {
            "astId": 1163,
            "contract": "contracts/BondTeller.sol:BondTeller",
            "label": "redeemed",
            "offset": 0,
            "slot": "6",
            "type": "t_uint256"
          }
        ],
        "numberOfBytes": "224"
      },
      "t_uint256": {
        "encoding": "inplace",
        "label": "uint256",
        "numberOfBytes": "32"
      }
    }
  }
}