{
  "address": "0x30E8Ba9307fAbAc135256e971324c974A3121646",
  "abi": [
    {
      "inputs": [
        {
          "internalType": "address",
          "name": "_QUAS",
          "type": "address"
        },
        {
          "internalType": "address",
          "name": "_treasury",
          "type": "address"
        },
        {
          "internalType": "address",
          "name": "_authority",
          "type": "address"
        }
      ],
      "stateMutability": "nonpayable",
      "type": "constructor"
    },
    {
      "anonymous": false,
      "inputs": [
        {
          "indexed": true,
          "internalType": "contract IQuasarAuthority",
          "name": "authority",
          "type": "address"
        }
      ],
      "name": "AuthorityUpdated",
      "type": "event"
    },
    {
      "anonymous": false,
      "inputs": [
        {
          "indexed": false,
          "internalType": "uint256",
          "name": "index",
          "type": "uint256"
        },
        {
          "indexed": false,
          "internalType": "uint256",
          "name": "amount",
          "type": "uint256"
        },
        {
          "indexed": false,
          "internalType": "uint256",
          "name": "payout",
          "type": "uint256"
        },
        {
          "indexed": false,
          "internalType": "uint256",
          "name": "expires",
          "type": "uint256"
        }
      ],
      "name": "CreateBond",
      "type": "event"
    },
    {
      "anonymous": false,
      "inputs": [
        {
          "indexed": false,
          "internalType": "uint256",
          "name": "index",
          "type": "uint256"
        },
        {
          "indexed": false,
          "internalType": "uint256",
          "name": "price",
          "type": "uint256"
        },
        {
          "indexed": false,
          "internalType": "uint256",
          "name": "internalPrice",
          "type": "uint256"
        },
        {
          "indexed": false,
          "internalType": "uint256",
          "name": "debtRatio",
          "type": "uint256"
        }
      ],
      "name": "afterBond",
      "type": "event"
    },
    {
      "anonymous": false,
      "inputs": [
        {
          "indexed": false,
          "internalType": "uint256",
          "name": "index",
          "type": "uint256"
        },
        {
          "indexed": false,
          "internalType": "uint256",
          "name": "price",
          "type": "uint256"
        },
        {
          "indexed": false,
          "internalType": "uint256",
          "name": "internalPrice",
          "type": "uint256"
        },
        {
          "indexed": false,
          "internalType": "uint256",
          "name": "debtRatio",
          "type": "uint256"
        }
      ],
      "name": "beforeBond",
      "type": "event"
    },
    {
      "inputs": [
        {
          "internalType": "uint256",
          "name": "",
          "type": "uint256"
        }
      ],
      "name": "IDs",
      "outputs": [
        {
          "internalType": "address",
          "name": "",
          "type": "address"
        }
      ],
      "stateMutability": "view",
      "type": "function"
    },
    {
      "inputs": [
        {
          "internalType": "address",
          "name": "_principal",
          "type": "address"
        },
        {
          "internalType": "address",
          "name": "_calculator",
          "type": "address"
        },
        {
          "internalType": "uint256",
          "name": "_capacity",
          "type": "uint256"
        },
        {
          "internalType": "bool",
          "name": "_capacityIsPayout",
          "type": "bool"
        }
      ],
      "name": "addBond",
      "outputs": [
        {
          "internalType": "uint256",
          "name": "id_",
          "type": "uint256"
        }
      ],
      "stateMutability": "nonpayable",
      "type": "function"
    },
    {
      "inputs": [],
      "name": "authority",
      "outputs": [
        {
          "internalType": "contract IQuasarAuthority",
          "name": "",
          "type": "address"
        }
      ],
      "stateMutability": "view",
      "type": "function"
    },
    {
      "inputs": [
        {
          "internalType": "uint256",
          "name": "_BID",
          "type": "uint256"
        }
      ],
      "name": "bondInfo",
      "outputs": [
        {
          "internalType": "address",
          "name": "principal_",
          "type": "address"
        },
        {
          "internalType": "address",
          "name": "calculator_",
          "type": "address"
        },
        {
          "internalType": "uint256",
          "name": "totalDebt_",
          "type": "uint256"
        },
        {
          "internalType": "uint256",
          "name": "lastBondCreatedAt_",
          "type": "uint256"
        }
      ],
      "stateMutability": "view",
      "type": "function"
    },
    {
      "inputs": [
        {
          "internalType": "uint256",
          "name": "_BID",
          "type": "uint256"
        }
      ],
      "name": "bondPrice",
      "outputs": [
        {
          "internalType": "uint256",
          "name": "price_",
          "type": "uint256"
        }
      ],
      "stateMutability": "view",
      "type": "function"
    },
    {
      "inputs": [
        {
          "internalType": "uint256",
          "name": "_BID",
          "type": "uint256"
        }
      ],
      "name": "bondPriceInUSD",
      "outputs": [
        {
          "internalType": "uint256",
          "name": "price_",
          "type": "uint256"
        }
      ],
      "stateMutability": "view",
      "type": "function"
    },
    {
      "inputs": [
        {
          "internalType": "uint256",
          "name": "_BID",
          "type": "uint256"
        }
      ],
      "name": "bondTerms",
      "outputs": [
        {
          "internalType": "uint256",
          "name": "controlVariable_",
          "type": "uint256"
        },
        {
          "internalType": "uint256",
          "name": "vestingTerm_",
          "type": "uint256"
        },
        {
          "internalType": "uint256",
          "name": "minimumPrice_",
          "type": "uint256"
        },
        {
          "internalType": "uint256",
          "name": "maxPayout_",
          "type": "uint256"
        },
        {
          "internalType": "uint256",
          "name": "maxDebt_",
          "type": "uint256"
        }
      ],
      "stateMutability": "view",
      "type": "function"
    },
    {
      "inputs": [
        {
          "internalType": "uint256",
          "name": "",
          "type": "uint256"
        }
      ],
      "name": "bonds",
      "outputs": [
        {
          "internalType": "contract IERC20",
          "name": "principal",
          "type": "address"
        },
        {
          "internalType": "contract IBondingCalculator",
          "name": "calculator",
          "type": "address"
        },
        {
          "components": [
            {
              "internalType": "uint256",
              "name": "controlVariable",
              "type": "uint256"
            },
            {
              "internalType": "bool",
              "name": "fixedTerm",
              "type": "bool"
            },
            {
              "internalType": "uint256",
              "name": "vestingTerm",
              "type": "uint256"
            },
            {
              "internalType": "uint256",
              "name": "expiration",
              "type": "uint256"
            },
            {
              "internalType": "uint256",
              "name": "conclusion",
              "type": "uint256"
            },
            {
              "internalType": "uint256",
              "name": "minimumPrice",
              "type": "uint256"
            },
            {
              "internalType": "uint256",
              "name": "maxPayout",
              "type": "uint256"
            },
            {
              "internalType": "uint256",
              "name": "maxDebt",
              "type": "uint256"
            }
          ],
          "internalType": "struct QuasarBondDepository.Terms",
          "name": "terms",
          "type": "tuple"
        },
        {
          "internalType": "bool",
          "name": "termsSet",
          "type": "bool"
        },
        {
          "internalType": "uint256",
          "name": "capacity",
          "type": "uint256"
        },
        {
          "internalType": "bool",
          "name": "capacityIsPayout",
          "type": "bool"
        },
        {
          "internalType": "uint256",
          "name": "totalDebt",
          "type": "uint256"
        },
        {
          "internalType": "uint256",
          "name": "lastDecay",
          "type": "uint256"
        }
      ],
      "stateMutability": "view",
      "type": "function"
    },
    {
      "inputs": [
        {
          "internalType": "uint256",
          "name": "_BID",
          "type": "uint256"
        }
      ],
      "name": "currentDebt",
      "outputs": [
        {
          "internalType": "uint256",
          "name": "",
          "type": "uint256"
        }
      ],
      "stateMutability": "view",
      "type": "function"
    },
    {
      "inputs": [
        {
          "internalType": "uint256",
          "name": "_BID",
          "type": "uint256"
        }
      ],
      "name": "debtDecay",
      "outputs": [
        {
          "internalType": "uint256",
          "name": "decay_",
          "type": "uint256"
        }
      ],
      "stateMutability": "view",
      "type": "function"
    },
    {
      "inputs": [
        {
          "internalType": "uint256",
          "name": "_BID",
          "type": "uint256"
        }
      ],
      "name": "debtRatio",
      "outputs": [
        {
          "internalType": "uint256",
          "name": "debtRatio_",
          "type": "uint256"
        }
      ],
      "stateMutability": "view",
      "type": "function"
    },
    {
      "inputs": [
        {
          "internalType": "uint256",
          "name": "_amount",
          "type": "uint256"
        },
        {
          "internalType": "uint256",
          "name": "_maxPrice",
          "type": "uint256"
        },
        {
          "internalType": "address",
          "name": "_depositor",
          "type": "address"
        },
        {
          "internalType": "uint256",
          "name": "_BID",
          "type": "uint256"
        },
        {
          "internalType": "address",
          "name": "_feo",
          "type": "address"
        }
      ],
      "name": "deposit",
      "outputs": [
        {
          "internalType": "uint256",
          "name": "",
          "type": "uint256"
        }
      ],
      "stateMutability": "nonpayable",
      "type": "function"
    },
    {
      "inputs": [
        {
          "internalType": "uint256",
          "name": "_id",
          "type": "uint256"
        }
      ],
      "name": "deprecateBond",
      "outputs": [],
      "stateMutability": "nonpayable",
      "type": "function"
    },
    {
      "inputs": [
        {
          "internalType": "uint256",
          "name": "_BID",
          "type": "uint256"
        }
      ],
      "name": "maxPayout",
      "outputs": [
        {
          "internalType": "uint256",
          "name": "",
          "type": "uint256"
        }
      ],
      "stateMutability": "view",
      "type": "function"
    },
    {
      "inputs": [
        {
          "internalType": "uint256",
          "name": "_value",
          "type": "uint256"
        },
        {
          "internalType": "uint256",
          "name": "_BID",
          "type": "uint256"
        }
      ],
      "name": "payoutFor",
      "outputs": [
        {
          "internalType": "uint256",
          "name": "",
          "type": "uint256"
        }
      ],
      "stateMutability": "view",
      "type": "function"
    },
    {
      "inputs": [
        {
          "internalType": "uint256",
          "name": "_amount",
          "type": "uint256"
        },
        {
          "internalType": "uint256",
          "name": "_BID",
          "type": "uint256"
        }
      ],
      "name": "payoutForAmount",
      "outputs": [
        {
          "internalType": "uint256",
          "name": "",
          "type": "uint256"
        }
      ],
      "stateMutability": "view",
      "type": "function"
    },
    {
      "inputs": [
        {
          "internalType": "contract IQuasarAuthority",
          "name": "_newAuthority",
          "type": "address"
        }
      ],
      "name": "setAuthority",
      "outputs": [],
      "stateMutability": "nonpayable",
      "type": "function"
    },
    {
      "inputs": [
        {
          "internalType": "address",
          "name": "_teller",
          "type": "address"
        }
      ],
      "name": "setTeller",
      "outputs": [],
      "stateMutability": "nonpayable",
      "type": "function"
    },
    {
      "inputs": [
        {
          "internalType": "uint256",
          "name": "_id",
          "type": "uint256"
        },
        {
          "internalType": "uint256",
          "name": "_controlVariable",
          "type": "uint256"
        },
        {
          "internalType": "bool",
          "name": "_fixedTerm",
          "type": "bool"
        },
        {
          "internalType": "uint256",
          "name": "_vestingTerm",
          "type": "uint256"
        },
        {
          "internalType": "uint256",
          "name": "_expiration",
          "type": "uint256"
        },
        {
          "internalType": "uint256",
          "name": "_conclusion",
          "type": "uint256"
        },
        {
          "internalType": "uint256",
          "name": "_minimumPrice",
          "type": "uint256"
        },
        {
          "internalType": "uint256",
          "name": "_maxPayout",
          "type": "uint256"
        },
        {
          "internalType": "uint256",
          "name": "_maxDebt",
          "type": "uint256"
        },
        {
          "internalType": "uint256",
          "name": "_initialDebt",
          "type": "uint256"
        }
      ],
      "name": "setTerms",
      "outputs": [],
      "stateMutability": "nonpayable",
      "type": "function"
    },
    {
      "inputs": [
        {
          "internalType": "uint256",
          "name": "_BID",
          "type": "uint256"
        }
      ],
      "name": "standardizedDebtRatio",
      "outputs": [
        {
          "internalType": "uint256",
          "name": "",
          "type": "uint256"
        }
      ],
      "stateMutability": "view",
      "type": "function"
    },
    {
      "inputs": [],
      "name": "teller",
      "outputs": [
        {
          "internalType": "contract ITeller",
          "name": "",
          "type": "address"
        }
      ],
      "stateMutability": "view",
      "type": "function"
    }
  ],
  "transactionHash": "0x7a2be0e44939a8dc6c2b6cef6e5b00b4bd34356ee69e253b033da4d25e9224eb",
  "args": [
    "0x19F8f746aB18f62987b0191A65a0c9D0D1D2C2b7",
    "0x7DCd50dd5e379A026068bE0b54895EBF21688689",
    "0x4b7CC652D35eaB994c4f86F6d88Acb306d17e01c"
  ],
  "numDeployments": 1,
  "solcInputHash": "5d5cb846ad6d547770dcc63383db45a8",
  "bytecode": "0x610100604052600c60c08190526b15539055551213d49256915160a21b60e0908152620000309160009190620000fe565b503480156200003e57600080fd5b5060405162002dec38038062002dec8339810160408190526200006191620001c7565b600180546001600160a01b0319166001600160a01b0383169081179091556040518291907f2f658b440c35314f52658ea8a740e05b284cdc84dc9ae01e891f21b8933e7cad90600090a2506001600160a01b038316620000c057600080fd5b6001600160601b0319606084901b1660a0526001600160a01b038216620000e657600080fd5b5060601b6001600160601b0319166080525062000210565b828054600181600116156101000203166002900490600052602060002090601f01602090048101928262000136576000855562000181565b82601f106200015157805160ff191683800117855562000181565b8280016001018555821562000181579182015b828111156200018157825182559160200191906001019062000164565b506200018f92915062000193565b5090565b5b808211156200018f576000815560010162000194565b80516001600160a01b0381168114620001c257600080fd5b919050565b600080600060608486031215620001dc578283fd5b620001e784620001aa565b9250620001f760208501620001aa565b91506200020760408501620001aa565b90509250925092565b60805160601c60a05160601c612ba3620002496000395080610a6e5280610bf652806110dd52806114d05280611b445250612ba36000f3fe608060405234801561001057600080fd5b50600436106101775760003560e01c80636a6c575d116100d8578063aab114641161008c578063bf7e214f11610066578063bf7e214f14610321578063effc99cd14610329578063f1b7dc781461033c57610177565b8063aab11464146102d7578063abbf4b17146102fb578063bcb296671461030e57610177565b8063805b5bc2116100bd578063805b5bc21461029e578063856519b5146102b1578063a817712a146102c457610177565b80636a6c575d146102785780637a9e5e4b1461028b57610177565b806333ff77221161012f57806357edab4e1161011457806357edab4e146102295780635f1c17c01461023e5780636551df2c1461026557610177565b806333ff77221461020157806357e333ba1461021657610177565b8063172c44ec11610160578063172c44ec146101c8578063187dcb85146101db57806319a64215146101ee57610177565b80630170bbd91461017c57806310fc6172146101a5575b600080fd5b61018f61018a366004612660565b61034f565b60405161019c9190612ab7565b60405180910390f35b6101b86101b33660046126b0565b6106aa565b60405161019c9493929190612806565b61018f6101d63660046126b0565b6107b6565b61018f6101e9366004612701565b61082d565b61018f6101fc3660046126b0565b610d39565b61021461020f366004612644565b610f71565b005b61018f6102243660046126b0565b6110b5565b610231611172565b60405161019c91906127f2565b61025161024c3660046126b0565b611181565b60405161019c989796959493929190612848565b6102146102733660046126b0565b611231565b61018f6102863660046126e0565b611331565b610214610299366004612644565b61135f565b61018f6102ac3660046126e0565b6114a2565b61018f6102bf3660046126b0565b611567565b6102146102d2366004612756565b611711565b6102ea6102e53660046126b0565b6118e2565b60405161019c959493929190612b14565b61018f6103093660046126b0565b611978565b61018f61031c3660046126b0565b611abe565b610231611ae4565b6102316103373660046126b0565b611af3565b61018f61034a3660046126b0565b611b1d565b60015460408051630229549960e51b815290516000926001600160a01b03169163452a9320916004808301926020929190829003018186803b15801561039457600080fd5b505afa1580156103a8573d6000803e3d6000fd5b505050506040513d60208110156103be57600080fd5b50516000906001600160a01b0316331461046b5760405162461bcd60e51b815260206004820190815282546002600019610100600184161502019091160460248301819052909182916044909101908490801561045c5780601f106104315761010080835404028352916020019161045c565b820191906000526020600020905b81548152906001019060200180831161043f57829003601f168201915b50509250505060405180910390fd5b5061047461258e565b60405180610100016040528060008152602001600015158152602001600081526020016000815260200160008152602001600081526020016000815260200160008152509050604051806101000160405280876001600160a01b03168152602001866001600160a01b031681526020018281526020016000151581526020018581526020018415158152602001600081526020014281525060026000600380549050815260200190815260200160002060008201518160000160006101000a8154816001600160a01b0302191690836001600160a01b0316021790555060208201518160010160006101000a8154816001600160a01b0302191690836001600160a01b031602179055506040820151816002016000820151816000015560208201518160010160006101000a81548160ff02191690831515021790555060408201518160020155606082015181600301556080820151816004015560a0820151816005015560c0820151816006015560e082015181600701555050606082015181600a0160006101000a81548160ff021916908315150217905550608082015181600b015560a082015181600c0160006101000a81548160ff02191690831515021790555060c082015181600d015560e082015181600e015590505060038054905091506003869080600181540180825580915050600190039060005260206000200160009091909190916101000a8154816001600160a01b0302191690836001600160a01b0316021790555050949350505050565b6000806000806106b86125d5565b50505060009283525050600260208181526040928390208351610100808201865282546001600160a01b03908116835260018401541682850190815286519182018752948301548152600383015460ff90811615159482019490945260048301548187015260058301546060808301919091526006840154608080840191909152600785015460a080850191909152600886015460c080860191909152600987015460e08087019190915299860194909452600a8601548716151592850192909252600b85015490840152600c840154909416151593820193909352600d820154928101839052600e90910154938101849052519151919391929091565b60006107f8629896806107f2633b9aca006107ec6107d387611b1d565b6000888152600260208190526040909120015490611bd3565b90611c2c565b90611c86565b60008381526002602052604090206007015490915081101561082857506000818152600260205260409020600701545b919050565b60006001600160a01b03841661085e5760405162461bcd60e51b8152600401610855906128f3565b60405180910390fd5b6108666125d5565b5060008381526002602081815260408084208151610100808201845282546001600160a01b0390811683526001840154168286015283519081018452828601548152600383015460ff90811615158287015260048401548286015260058401546060808401919091526006850154608080850191909152600786015460a080860191909152600887015460c080870191909152600988015460e08088019190915298870195909552600a870154841680151593870193909352600b87015491860191909152600c860154909216151591840191909152600d84015491830191909152600e909201549281019290925293879052919052906109795760405162461bcd60e51b815260040161085590612961565b80604001516080015142106109a05760405162461bcd60e51b815260040161085590612998565b7f8f0783a6c1cb2d85a903a2db160118a565dc172b5e4da3d75733b7b5995a0fa1846109cb86610d39565b6109d4876107b6565b6109dd88611b1d565b6040516109ed9493929190612af9565b60405180910390a16109fe84611cc8565b806040015160e001518160c001511115610a2a5760405162461bcd60e51b81526004016108559061292a565b610a3384611d0c565b861015610a525760405162461bcd60e51b815260040161085590612a3d565b805160405163f182178360e01b81526000916001600160a01b037f0000000000000000000000000000000000000000000000000000000000000000169163f182178391610aa3918c9060040161282f565b60206040518083038186803b158015610abb57600080fd5b505afa158015610acf573d6000803e3d6000fd5b505050506040513d601f19601f82011682018060405250810190610af391906126c8565b90506000610b018287611331565b90508260a0015115610b4a578083608001511015610b315760405162461bcd60e51b815260040161085590612998565b6080830151610b409082611e74565b6080840152610b83565b8883608001511015610b6e5760405162461bcd60e51b815260040161085590612998565b6080830151610b7d908a611e74565b60808401525b62989680811015610ba65760405162461bcd60e51b815260040161085590612a06565b610baf866110b5565b811115610bce5760405162461bcd60e51b815260040161085590612a80565b8251610be5906001600160a01b031633308c611eb6565b8251610c1b906001600160a01b03167f00000000000000000000000000000000000000000000000000000000000000008b612029565b60c0830151610c2a9083611c2c565b600087815260026020526040808220600d01929092558482015190910151610c529042611c2c565b9050836040015160200151610c6c57506040830151606001515b600460009054906101000a90046001600160a01b03166001600160a01b031663a729e9c1888a87600001518e87878d6040518863ffffffff1660e01b8152600401610cbd9796959493929190612ac0565b600060405180830381600087803b158015610cd757600080fd5b505af1158015610ceb573d6000803e3d6000fd5b505050507f6671c52657539dfe32e25a5646170ce70ec6adfebf197a90845ab3ec1e42569c878b8484604051610d249493929190612af9565b60405180910390a15098975050505050505050565b6000610d436125d5565b506000828152600260208181526040928390208351610100808201865282546001600160a01b0390811683526001840154811683860190815287519283018852958401548252600384015460ff90811615159583019590955260048401548288015260058401546060808401919091526006850154608080850191909152600786015460a080860191909152600887015460c080870191909152600988015460e0808801919091529a870195909552600a8701548816151592860192909252600b86015490850152600c850154909516151594830194909452600d83015490820152600e909101549381019390935290511615610edc57610ed560646107f283602001516001600160a01b03166332da80a385600001516040518263ffffffff1660e01b8152600401610e7691906127f2565b60206040518083038186803b158015610e8e57600080fd5b505afa158015610ea2573d6000803e3d6000fd5b505050506040513d601f19601f82011682018060405250810190610ec691906126c8565b610ecf876107b6565b90611bd3565b9150610f6b565b610f6860646107f283600001516001600160a01b031663313ce5676040518163ffffffff1660e01b815260040160206040518083038186803b158015610f2157600080fd5b505afa158015610f35573d6000803e3d6000fd5b505050506040513d601f19601f82011682018060405250810190610f5991906127cb565b60ff16600a0a610ecf876107b6565b91505b50919050565b600160009054906101000a90046001600160a01b03166001600160a01b0316630c340a246040518163ffffffff1660e01b815260040160206040518083038186803b158015610fbf57600080fd5b505afa158015610fd3573d6000803e3d6000fd5b505050506040513d6020811015610fe957600080fd5b50516000906001600160a01b0316331461105c5760405162461bcd60e51b815260206004820190815282546002600019610100600184161502019091160460248301819052909182916044909101908490801561045c5780601f106104315761010080835404028352916020019161045c565b506004546001600160a01b03161561107357600080fd5b6001600160a01b03811661108657600080fd5b6004805473ffffffffffffffffffffffffffffffffffffffff19166001600160a01b0392909216919091179055565b600061116c620186a06107f260026000868152602001908152602001600020600201600601547f00000000000000000000000000000000000000000000000000000000000000006001600160a01b031663860f50486040518163ffffffff1660e01b815260040160206040518083038186803b15801561113457600080fd5b505afa158015611148573d6000803e3d6000fd5b505050506040513d601f19601f82011682018060405250810190610ecf91906126c8565b92915050565b6004546001600160a01b031681565b60026020818152600092835260409283902080546001820154855161010081018752948301548552600383015460ff9081161515948601949094526004830154958501959095526005820154606085015260068201546080850152600782015460a0850152600882015460c0850152600982015460e0850152600a820154600b830154600c840154600d850154600e909501546001600160a01b0394851698909416969592831694919392169188565b600160009054906101000a90046001600160a01b03166001600160a01b031663452a93206040518163ffffffff1660e01b815260040160206040518083038186803b15801561127f57600080fd5b505afa158015611293573d6000803e3d6000fd5b505050506040513d60208110156112a957600080fd5b50516000906001600160a01b0316331461131c5760405162461bcd60e51b815260206004820190815282546002600019610100600184161502019091160460248301819052909182916044909101908490801561045c5780601f106104315761010080835404028352916020019161045c565b506000908152600260205260408120600b0155565b6000611358662386f26fc100006107f26113538661134e876107b6565b612193565b612315565b9392505050565b600160009054906101000a90046001600160a01b03166001600160a01b0316630c340a246040518163ffffffff1660e01b815260040160206040518083038186803b1580156113ad57600080fd5b505afa1580156113c1573d6000803e3d6000fd5b505050506040513d60208110156113d757600080fd5b50516000906001600160a01b0316331461144a5760405162461bcd60e51b815260206004820190815282546002600019610100600184161502019091160460248301819052909182916044909101908490801561045c5780601f106104315761010080835404028352916020019161045c565b506001805473ffffffffffffffffffffffffffffffffffffffff19166001600160a01b0383169081179091556040517f2f658b440c35314f52658ea8a740e05b284cdc84dc9ae01e891f21b8933e7cad90600090a250565b60008181526002602052604080822054905163f182178360e01b81526001600160a01b039182169161155f917f00000000000000000000000000000000000000000000000000000000000000009091169063f182178390611509908590899060040161282f565b60206040518083038186803b15801561152157600080fd5b505afa158015611535573d6000803e3d6000fd5b505050506040513d601f19601f8201168201806040525081019061155991906126c8565b84611331565b949350505050565b60006115716125d5565b506000828152600260208181526040928390208351610100808201865282546001600160a01b0390811683526001840154811683860190815287519283018852958401548252600384015460ff90811615159583019590955260048401548288015260058401546060808401919091526006850154608080850191909152600786015460a080860191909152600887015460c080870191909152600988015460e0808801919091529a870195909552600a8701548816151592860192909252600b86015490850152600c850154909516151594830194909452600d83015490820152600e90910154938101939093529051161561170857611700633b9aca006107f283602001516001600160a01b03166332da80a385600001516040518263ffffffff1660e01b81526004016116a791906127f2565b60206040518083038186803b1580156116bf57600080fd5b505afa1580156116d3573d6000803e3d6000fd5b505050506040513d601f19601f820116820180604052508101906116f791906126c8565b610ecf87611b1d565b915050610828565b61170083611b1d565b600160009054906101000a90046001600160a01b03166001600160a01b031663452a93206040518163ffffffff1660e01b815260040160206040518083038186803b15801561175f57600080fd5b505afa158015611773573d6000803e3d6000fd5b505050506040513d602081101561178957600080fd5b50516000906001600160a01b031633146117fc5760405162461bcd60e51b815260206004820190815282546002600019610100600184161502019091160460248301819052909182916044909101908490801561045c5780601f106104315761010080835404028352916020019161045c565b5060008a8152600260205260409020600a015460ff161561182f5760405162461bcd60e51b8152600401610855906129cf565b61183761258e565b506040805161010081018252998a529715156020808b019182528a8a0198895260608b0197885260808b0196875260a08b0195865260c08b0194855260e08b0193845260009b8c5260029081905298909a20985197890197909755975160038801805491151560ff1992831617905594516004880155925160058701559051600686015551600785015551600884015592516009830155600d820155600a0180549091166001179055565b60008060008060006118f261258e565b505050600093845250506002602081815260409384902084516101008101865292810154808452600382015460ff1615159284019290925260048101549483018590526005810154606084015260068101546080840152600781015460a08401819052600882015460c0850181905260099092015460e090940184905291959193509190565b60006119826125d5565b5060008281526002602081815260408084208151610100808201845282546001600160a01b0390811683526001840154168286015283519081018452948201548552600382015460ff90811615159486019490945260048201548584015260058201546060808701919091526006830154608080880191909152600784015460a080890191909152600885015460c0808a0191909152600986015460e0808b019190915296850198909852600a8501548716151592840192909252600b84015490830152600c830154909416151593810193909352600d81015493830193909352600e909201549181018290529190611a7c904290611e74565b9050611aa18260400151604001516107f2838560c00151611bd390919063ffffffff16565b92508160c00151831115611ab7578160c0015192505b5050919050565b600061116c611acc83611978565b6000848152600260205260409020600d015490611e74565b6001546001600160a01b031681565b60038181548110611b0357600080fd5b6000918252602090912001546001600160a01b0316905081565b600061116c670de0b6b3a76400006107f2611353611b42633b9aca00610ecf88611abe565b7f00000000000000000000000000000000000000000000000000000000000000006001600160a01b031663860f50486040518163ffffffff1660e01b815260040160206040518083038186803b158015611b9b57600080fd5b505afa158015611baf573d6000803e3d6000fd5b505050506040513d601f19601f8201168201806040525081019061134e91906126c8565b600082611be25750600061116c565b82820282848281611bef57fe5b04146113585760405162461bcd60e51b8152600401808060200182810382526021815260200180612b766021913960400191505060405180910390fd5b600082820183811015611358576040805162461bcd60e51b815260206004820152601b60248201527f536166654d6174683a206164646974696f6e206f766572666c6f770000000000604482015290519081900360640190fd5b600061135883836040518060400160405280601a81526020017f536166654d6174683a206469766973696f6e206279207a65726f00000000000081525061232d565b611cec611cd482611978565b6000838152600260205260409020600d015490611e74565b600091825260026020526040909120600d81019190915542600e90910155565b6000611d166125d5565b506000828152600260208181526040928390208351610100808201865282546001600160a01b0390811683526001840154168285015285519081018652938201548452600382015460ff90811615159385019390935260048201548486015260058201546060808601919091526006830154608080870191909152600784015460a080880191909152600885015460c080890191909152600986015460e0808a019190915298850197909752600a8501548616151592840192909252600b84015490830152600c830154909316151592810192909252600d81015492820192909252600e9091015491810191909152611e2c629896806107f2633b9aca006107ec611e2088611b1d565b60408701515190611bd3565b9150806040015160a00151821015611e4e57806040015160a001519150610f6b565b604081015160a0015115610f6b5760008381526002602052604081206007015550919050565b600061135883836040518060400160405280601e81526020017f536166654d6174683a207375627472616374696f6e206f766572666c6f7700008152506123de565b604080516001600160a01b0385811660248301528481166044830152606480830185905283518084039091018152608490920183526020820180516001600160e01b03166323b872dd60e01b17815292518251600094606094938a169392918291908083835b60208310611f3b5780518252601f199092019160209182019101611f1c565b6001836020036101000a0380198251168184511680821785525050505050509050019150506000604051808303816000865af19150503d8060008114611f9d576040519150601f19603f3d011682016040523d82523d6000602084013e611fa2565b606091505b5091509150818015611fd0575080511580611fd05750808060200190516020811015611fcd57600080fd5b50515b612021576040805162461bcd60e51b815260206004820152601460248201527f5452414e534645525f46524f4d5f4641494c4544000000000000000000000000604482015290519081900360640190fd5b505050505050565b604080516001600160a01b038481166024830152604480830185905283518084039091018152606490920183526020820180516001600160e01b031663a9059cbb60e01b178152925182516000946060949389169392918291908083835b602083106120a65780518252601f199092019160209182019101612087565b6001836020036101000a0380198251168184511680821785525050505050509050019150506000604051808303816000865af19150503d8060008114612108576040519150601f19603f3d011682016040523d82523d6000602084013e61210d565b606091505b509150915081801561213b57508051158061213b575080806020019051602081101561213857600080fd5b50515b61218c576040805162461bcd60e51b815260206004820152600f60248201527f5452414e534645525f4641494c45440000000000000000000000000000000000604482015290519081900360640190fd5b5050505050565b61219b612622565b600082116121da5760405162461bcd60e51b8152600401808060200182810382526026815260200180612b506026913960400191505060405180910390fd5b826121f4575060408051602081019091526000815261116c565b71ffffffffffffffffffffffffffffffffffff831161229b57600082607085901b8161221c57fe5b0490506001600160e01b0381111561227b576040805162461bcd60e51b815260206004820152601e60248201527f4669786564506f696e743a3a6672616374696f6e3a206f766572666c6f770000604482015290519081900360640190fd5b6040518060200160405280826001600160e01b031681525091505061116c565b60006122b7846e01000000000000000000000000000085612438565b90506001600160e01b0381111561227b576040805162461bcd60e51b815260206004820152601e60248201527f4669786564506f696e743a3a6672616374696f6e3a206f766572666c6f770000604482015290519081900360640190fd5b516612725dd1d243ab6001600160e01b039091160490565b600081836123b95760405162461bcd60e51b81526004018080602001828103825283818151815260200191508051906020019080838360005b8381101561237e578181015183820152602001612366565b50505050905090810190601f1680156123ab5780820380516001836020036101000a031916815260200191505b509250505060405180910390fd5b5060008385816123c557fe5b0490508385816123d157fe5b0681850201851461155f57fe5b600081848411156124305760405162461bcd60e51b815260206004820181815283516024840152835190928392604490910191908501908083836000831561237e578181015183820152602001612366565b505050900390565b600080600061244786866124f1565b915091506000848061245557fe5b868809905082811115612469576001820391505b9182900391816124875784838161247c57fe5b049350505050611358565b8482106124db576040805162461bcd60e51b815260206004820152601a60248201527f46756c6c4d6174683a2046554c4c4449565f4f564552464c4f57000000000000604482015290519081900360640190fd5b6124e683838761251e565b979650505050505050565b6000808060001984860990508385029250828103915082811015612516576001820391505b509250929050565b6000818103821680838161252e57fe5b04925080858161253a57fe5b04945080816000038161254957fe5b60028581038087028203028087028203028087028203028087028203028087028203028087028203029586029003909402930460010193909302939093010292915050565b604051806101000160405280600081526020016000151581526020016000815260200160008152602001600081526020016000815260200160008152602001600081525090565b6040805161010081018252600080825260208201529081016125f561258e565b81526020016000151581526020016000815260200160001515815260200160008152602001600081525090565b60408051602081019091526000815290565b8035801515811461082857600080fd5b600060208284031215612655578081fd5b813561135881612b37565b60008060008060808587031215612675578283fd5b843561268081612b37565b9350602085013561269081612b37565b9250604085013591506126a560608601612634565b905092959194509250565b6000602082840312156126c1578081fd5b5035919050565b6000602082840312156126d9578081fd5b5051919050565b600080604083850312156126f2578182fd5b50508035926020909101359150565b600080600080600060a08688031215612718578081fd5b8535945060208601359350604086013561273181612b37565b925060608601359150608086013561274881612b37565b809150509295509295909350565b6000806000806000806000806000806101408b8d031215612775578485fd5b8a35995060208b0135985061278c60408c01612634565b999c989b5098996060810135995060808101359860a0820135985060c0820135975060e082013596506101008201359550610120909101359350915050565b6000602082840312156127dc578081fd5b815160ff81168114611358578182fd5b15159052565b6001600160a01b0391909116815260200190565b6001600160a01b0394851681529290931660208301526040820152606081019190915260800190565b6001600160a01b03929092168252602082015260400190565b60006101e0820190506001600160a01b03808b168352808a166020840152508751604083015260208801511515606083015260408801516080830152606088015160a0830152608088015160c083015260a088015160e083015260c088015161010083015260e08801516101208301526128c66101408301886127ec565b856101608301526128db6101808301866127ec565b6101a08201939093526101c001529695505050505050565b6020808252600f908201527f496e76616c696420616464726573730000000000000000000000000000000000604082015260600190565b60208082526011908201527f4d61782064656274206578636565646564000000000000000000000000000000604082015260600190565b6020808252600f908201527f4e6f7420696e697469616c697a65640000000000000000000000000000000000604082015260600190565b6020808252600e908201527f426f6e6420636f6e636c75646564000000000000000000000000000000000000604082015260600190565b6020808252600b908201527f416c726561647920736574000000000000000000000000000000000000000000604082015260600190565b6020808252600e908201527f426f6e6420746f6f20736d616c6c000000000000000000000000000000000000604082015260600190565b60208082526023908201527f536c697070616765206c696d69743a206d6f7265207468616e206d617820707260408201526269636560e81b606082015260800190565b6020808252600e908201527f426f6e6420746f6f206c61726765000000000000000000000000000000000000604082015260600190565b90815260200190565b9687526001600160a01b03958616602088015293851660408701526060860192909252608085015260a08401521660c082015260e00190565b93845260208401929092526040830152606082015260800190565b948552602085019390935260408401919091526060830152608082015260a00190565b6001600160a01b0381168114612b4c57600080fd5b5056fe4669786564506f696e743a3a6672616374696f6e3a206469766973696f6e206279207a65726f536166654d6174683a206d756c7469706c69636174696f6e206f766572666c6f77a164736f6c6343000705000a",
  "devdoc": {
    "kind": "dev",
    "methods": {
      "addBond(address,address,uint256,bool)": {
        "params": {
          "_calculator": "address",
          "_capacity": "uint",
          "_capacityIsPayout": "bool",
          "_principal": "address"
        }
      },
      "bondInfo(uint256)": {
        "params": {
          "_BID": "uint"
        },
        "returns": {
          "calculator_": "address",
          "lastBondCreatedAt_": "uint",
          "principal_": "address",
          "totalDebt_": "uint"
        }
      },
      "bondPrice(uint256)": {
        "params": {
          "_BID": "uint"
        },
        "returns": {
          "price_": "uint"
        }
      },
      "bondPriceInUSD(uint256)": {
        "params": {
          "_BID": "uint"
        },
        "returns": {
          "price_": "uint"
        }
      },
      "bondTerms(uint256)": {
        "params": {
          "_BID": "uint"
        },
        "returns": {
          "controlVariable_": "uint",
          "maxDebt_": "uint",
          "maxPayout_": "uint",
          "minimumPrice_": "uint",
          "vestingTerm_": "uint"
        }
      },
      "currentDebt(uint256)": {
        "params": {
          "_BID": "uint"
        },
        "returns": {
          "_0": "uint"
        }
      },
      "debtDecay(uint256)": {
        "params": {
          "_BID": "uint"
        },
        "returns": {
          "decay_": "uint"
        }
      },
      "debtRatio(uint256)": {
        "params": {
          "_BID": "uint"
        },
        "returns": {
          "debtRatio_": "uint"
        }
      },
      "deposit(uint256,uint256,address,uint256,address)": {
        "params": {
          "_BID": "uint",
          "_amount": "uint",
          "_depositor": "address",
          "_feo": "address",
          "_maxPrice": "uint"
        },
        "returns": {
          "_0": "uint256"
        }
      },
      "deprecateBond(uint256)": {
        "params": {
          "_id": "uint"
        }
      },
      "maxPayout(uint256)": {
        "params": {
          "_BID": "uint"
        },
        "returns": {
          "_0": "uint"
        }
      },
      "payoutFor(uint256,uint256)": {
        "params": {
          "_BID": "uint",
          "_value": "uint"
        },
        "returns": {
          "_0": "uint"
        }
      },
      "payoutForAmount(uint256,uint256)": {
        "params": {
          "_BID": "uint",
          "_amount": "uint"
        }
      },
      "setTeller(address)": {
        "params": {
          "_teller": "address"
        }
      },
      "setTerms(uint256,uint256,bool,uint256,uint256,uint256,uint256,uint256,uint256,uint256)": {
        "params": {
          "_conclusion": "uint",
          "_controlVariable": "uint",
          "_expiration": "uint",
          "_fixedTerm": "bool",
          "_id": "uint",
          "_initialDebt": "uint",
          "_maxDebt": "uint",
          "_maxPayout": "uint",
          "_minimumPrice": "uint",
          "_vestingTerm": "uint"
        }
      },
      "standardizedDebtRatio(uint256)": {
        "returns": {
          "_0": "uint"
        }
      }
    },
    "version": 1
  },
  "userdoc": {
    "kind": "user",
    "methods": {
      "addBond(address,address,uint256,bool)": {
        "notice": "creates a new bond type"
      },
      "bondInfo(uint256)": {
        "notice": "returns data about a bond type"
      },
      "bondPrice(uint256)": {
        "notice": "calculate current bond premium"
      },
      "bondPriceInUSD(uint256)": {
        "notice": "converts bond price to DAI value"
      },
      "bondTerms(uint256)": {
        "notice": "returns terms for a bond type"
      },
      "currentDebt(uint256)": {
        "notice": "calculate debt factoring in decay"
      },
      "debtDecay(uint256)": {
        "notice": "amount to decay total debt by"
      },
      "debtRatio(uint256)": {
        "notice": "calculate current ratio of debt to QUAS supply"
      },
      "deposit(uint256,uint256,address,uint256,address)": {
        "notice": "deposit bond"
      },
      "deprecateBond(uint256)": {
        "notice": "disable existing bond"
      },
      "maxPayout(uint256)": {
        "notice": "determine maximum bond size"
      },
      "payoutFor(uint256,uint256)": {
        "notice": "payout due for amount of treasury value"
      },
      "payoutForAmount(uint256,uint256)": {
        "notice": "payout due for amount of token"
      },
      "setTeller(address)": {
        "notice": "set teller contract"
      },
      "setTerms(uint256,uint256,bool,uint256,uint256,uint256,uint256,uint256,uint256,uint256)": {
        "notice": "set minimum price for new bond"
      },
      "standardizedDebtRatio(uint256)": {
        "notice": "debt ratio in same terms for reserve or liquidity bonds"
      }
    },
    "version": 1
  },
  "storageLayout": {
    "storage": [
      {
        "astId": 10503,
        "contract": "contracts/BondDepository.sol:QuasarBondDepository",
        "label": "UNAUTHORIZED",
        "offset": 0,
        "slot": "0",
        "type": "t_string_storage"
      },
      {
        "astId": 10505,
        "contract": "contracts/BondDepository.sol:QuasarBondDepository",
        "label": "authority",
        "offset": 0,
        "slot": "1",
        "type": "t_contract(IQuasarAuthority)6793"
      },
      {
        "astId": 89,
        "contract": "contracts/BondDepository.sol:QuasarBondDepository",
        "label": "bonds",
        "offset": 0,
        "slot": "2",
        "type": "t_mapping(t_uint256,t_struct(Bond)68_storage)"
      },
      {
        "astId": 92,
        "contract": "contracts/BondDepository.sol:QuasarBondDepository",
        "label": "IDs",
        "offset": 0,
        "slot": "3",
        "type": "t_array(t_address)dyn_storage"
      },
      {
        "astId": 94,
        "contract": "contracts/BondDepository.sol:QuasarBondDepository",
        "label": "teller",
        "offset": 0,
        "slot": "4",
        "type": "t_contract(ITeller)6943"
      }
    ],
    "types": {
      "t_address": {
        "encoding": "inplace",
        "label": "address",
        "numberOfBytes": "20"
      },
      "t_array(t_address)dyn_storage": {
        "base": "t_address",
        "encoding": "dynamic_array",
        "label": "address[]",
        "numberOfBytes": "32"
      },
      "t_bool": {
        "encoding": "inplace",
        "label": "bool",
        "numberOfBytes": "1"
      },
      "t_contract(IBondingCalculator)6478": {
        "encoding": "inplace",
        "label": "contract IBondingCalculator",
        "numberOfBytes": "20"
      },
      "t_contract(IERC20)6613": {
        "encoding": "inplace",
        "label": "contract IERC20",
        "numberOfBytes": "20"
      },
      "t_contract(IQuasarAuthority)6793": {
        "encoding": "inplace",
        "label": "contract IQuasarAuthority",
        "numberOfBytes": "20"
      },
      "t_contract(ITeller)6943": {
        "encoding": "inplace",
        "label": "contract ITeller",
        "numberOfBytes": "20"
      },
      "t_mapping(t_uint256,t_struct(Bond)68_storage)": {
        "encoding": "mapping",
        "key": "t_uint256",
        "label": "mapping(uint256 => struct QuasarBondDepository.Bond)",
        "numberOfBytes": "32",
        "value": "t_struct(Bond)68_storage"
      },
      "t_string_storage": {
        "encoding": "bytes",
        "label": "string",
        "numberOfBytes": "32"
      },
      "t_struct(Bond)68_storage": {
        "encoding": "inplace",
        "label": "struct QuasarBondDepository.Bond",
        "members": [
          {
            "astId": 53,
            "contract": "contracts/BondDepository.sol:QuasarBondDepository",
            "label": "principal",
            "offset": 0,
            "slot": "0",
            "type": "t_contract(IERC20)6613"
          },
          {
            "astId": 55,
            "contract": "contracts/BondDepository.sol:QuasarBondDepository",
            "label": "calculator",
            "offset": 0,
            "slot": "1",
            "type": "t_contract(IBondingCalculator)6478"
          },
          {
            "astId": 57,
            "contract": "contracts/BondDepository.sol:QuasarBondDepository",
            "label": "terms",
            "offset": 0,
            "slot": "2",
            "type": "t_struct(Terms)85_storage"
          },
          {
            "astId": 59,
            "contract": "contracts/BondDepository.sol:QuasarBondDepository",
            "label": "termsSet",
            "offset": 0,
            "slot": "10",
            "type": "t_bool"
          },
          {
            "astId": 61,
            "contract": "contracts/BondDepository.sol:QuasarBondDepository",
            "label": "capacity",
            "offset": 0,
            "slot": "11",
            "type": "t_uint256"
          },
          {
            "astId": 63,
            "contract": "contracts/BondDepository.sol:QuasarBondDepository",
            "label": "capacityIsPayout",
            "offset": 0,
            "slot": "12",
            "type": "t_bool"
          },
          {
            "astId": 65,
            "contract": "contracts/BondDepository.sol:QuasarBondDepository",
            "label": "totalDebt",
            "offset": 0,
            "slot": "13",
            "type": "t_uint256"
          },
          {
            "astId": 67,
            "contract": "contracts/BondDepository.sol:QuasarBondDepository",
            "label": "lastDecay",
            "offset": 0,
            "slot": "14",
            "type": "t_uint256"
          }
        ],
        "numberOfBytes": "480"
      },
      "t_struct(Terms)85_storage": {
        "encoding": "inplace",
        "label": "struct QuasarBondDepository.Terms",
        "members": [
          {
            "astId": 70,
            "contract": "contracts/BondDepository.sol:QuasarBondDepository",
            "label": "controlVariable",
            "offset": 0,
            "slot": "0",
            "type": "t_uint256"
          },
          {
            "astId": 72,
            "contract": "contracts/BondDepository.sol:QuasarBondDepository",
            "label": "fixedTerm",
            "offset": 0,
            "slot": "1",
            "type": "t_bool"
          },
          {
            "astId": 74,
            "contract": "contracts/BondDepository.sol:QuasarBondDepository",
            "label": "vestingTerm",
            "offset": 0,
            "slot": "2",
            "type": "t_uint256"
          },
          {
            "astId": 76,
            "contract": "contracts/BondDepository.sol:QuasarBondDepository",
            "label": "expiration",
            "offset": 0,
            "slot": "3",
            "type": "t_uint256"
          },
          {
            "astId": 78,
            "contract": "contracts/BondDepository.sol:QuasarBondDepository",
            "label": "conclusion",
            "offset": 0,
            "slot": "4",
            "type": "t_uint256"
          },
          {
            "astId": 80,
            "contract": "contracts/BondDepository.sol:QuasarBondDepository",
            "label": "minimumPrice",
            "offset": 0,
            "slot": "5",
            "type": "t_uint256"
          },
          {
            "astId": 82,
            "contract": "contracts/BondDepository.sol:QuasarBondDepository",
            "label": "maxPayout",
            "offset": 0,
            "slot": "6",
            "type": "t_uint256"
          },
          {
            "astId": 84,
            "contract": "contracts/BondDepository.sol:QuasarBondDepository",
            "label": "maxDebt",
            "offset": 0,
            "slot": "7",
            "type": "t_uint256"
          }
        ],
        "numberOfBytes": "256"
      },
      "t_uint256": {
        "encoding": "inplace",
        "label": "uint256",
        "numberOfBytes": "32"
      }
    }
  }
}