{
  "address": "0x60ada4de18FC5A52022F276336e77b15f569984A",
  "abi": [
    {
      "inputs": [
        {
          "internalType": "address",
          "name": "_quas",
          "type": "address"
        },
        {
          "internalType": "address",
          "name": "_sQUAS",
          "type": "address"
        },
        {
          "internalType": "address",
          "name": "_gQUAS",
          "type": "address"
        },
        {
          "internalType": "uint256",
          "name": "_epochLength",
          "type": "uint256"
        },
        {
          "internalType": "uint256",
          "name": "_firstEpochNumber",
          "type": "uint256"
        },
        {
          "internalType": "uint256",
          "name": "_firstEpochTime",
          "type": "uint256"
        },
        {
          "internalType": "address",
          "name": "_authority",
          "type": "address"
        }
      ],
      "stateMutability": "nonpayable",
      "type": "constructor"
    },
    {
      "anonymous": false,
      "inputs": [
        {
          "indexed": true,
          "internalType": "contract IQuasarAuthority",
          "name": "authority",
          "type": "address"
        }
      ],
      "name": "AuthorityUpdated",
      "type": "event"
    },
    {
      "anonymous": false,
      "inputs": [
        {
          "indexed": false,
          "internalType": "address",
          "name": "distributor",
          "type": "address"
        }
      ],
      "name": "DistributorSet",
      "type": "event"
    },
    {
      "anonymous": false,
      "inputs": [
        {
          "indexed": false,
          "internalType": "uint256",
          "name": "warmup",
          "type": "uint256"
        }
      ],
      "name": "WarmupSet",
      "type": "event"
    },
    {
      "inputs": [],
      "name": "QUAS",
      "outputs": [
        {
          "internalType": "contract IERC20",
          "name": "",
          "type": "address"
        }
      ],
      "stateMutability": "view",
      "type": "function"
    },
    {
      "inputs": [],
      "name": "authority",
      "outputs": [
        {
          "internalType": "contract IQuasarAuthority",
          "name": "",
          "type": "address"
        }
      ],
      "stateMutability": "view",
      "type": "function"
    },
    {
      "inputs": [
        {
          "internalType": "address",
          "name": "_to",
          "type": "address"
        },
        {
          "internalType": "bool",
          "name": "_rebasing",
          "type": "bool"
        }
      ],
      "name": "claim",
      "outputs": [
        {
          "internalType": "uint256",
          "name": "",
          "type": "uint256"
        }
      ],
      "stateMutability": "nonpayable",
      "type": "function"
    },
    {
      "inputs": [],
      "name": "distributor",
      "outputs": [
        {
          "internalType": "contract IDistributor",
          "name": "",
          "type": "address"
        }
      ],
      "stateMutability": "view",
      "type": "function"
    },
    {
      "inputs": [],
      "name": "epoch",
      "outputs": [
        {
          "internalType": "uint256",
          "name": "length",
          "type": "uint256"
        },
        {
          "internalType": "uint256",
          "name": "number",
          "type": "uint256"
        },
        {
          "internalType": "uint256",
          "name": "end",
          "type": "uint256"
        },
        {
          "internalType": "uint256",
          "name": "distribute",
          "type": "uint256"
        }
      ],
      "stateMutability": "view",
      "type": "function"
    },
    {
      "inputs": [],
      "name": "forfeit",
      "outputs": [
        {
          "internalType": "uint256",
          "name": "",
          "type": "uint256"
        }
      ],
      "stateMutability": "nonpayable",
      "type": "function"
    },
    {
      "inputs": [],
      "name": "gQUAS",
      "outputs": [
        {
          "internalType": "contract IgQUAS",
          "name": "",
          "type": "address"
        }
      ],
      "stateMutability": "view",
      "type": "function"
    },
    {
      "inputs": [],
      "name": "index",
      "outputs": [
        {
          "internalType": "uint256",
          "name": "",
          "type": "uint256"
        }
      ],
      "stateMutability": "view",
      "type": "function"
    },
    {
      "inputs": [],
      "name": "rebase",
      "outputs": [
        {
          "internalType": "uint256",
          "name": "",
          "type": "uint256"
        }
      ],
      "stateMutability": "nonpayable",
      "type": "function"
    },
    {
      "inputs": [],
      "name": "sQUAS",
      "outputs": [
        {
          "internalType": "contract IsQUAS",
          "name": "",
          "type": "address"
        }
      ],
      "stateMutability": "view",
      "type": "function"
    },
    {
      "inputs": [],
      "name": "secondsToNextEpoch",
      "outputs": [
        {
          "internalType": "uint256",
          "name": "",
          "type": "uint256"
        }
      ],
      "stateMutability": "view",
      "type": "function"
    },
    {
      "inputs": [
        {
          "internalType": "contract IQuasarAuthority",
          "name": "_newAuthority",
          "type": "address"
        }
      ],
      "name": "setAuthority",
      "outputs": [],
      "stateMutability": "nonpayable",
      "type": "function"
    },
    {
      "inputs": [
        {
          "internalType": "address",
          "name": "_distributor",
          "type": "address"
        }
      ],
      "name": "setDistributor",
      "outputs": [],
      "stateMutability": "nonpayable",
      "type": "function"
    },
    {
      "inputs": [
        {
          "internalType": "uint256",
          "name": "_warmupPeriod",
          "type": "uint256"
        }
      ],
      "name": "setWarmupLength",
      "outputs": [],
      "stateMutability": "nonpayable",
      "type": "function"
    },
    {
      "inputs": [
        {
          "internalType": "address",
          "name": "_to",
          "type": "address"
        },
        {
          "internalType": "uint256",
          "name": "_amount",
          "type": "uint256"
        },
        {
          "internalType": "bool",
          "name": "_rebasing",
          "type": "bool"
        },
        {
          "internalType": "bool",
          "name": "_claim",
          "type": "bool"
        }
      ],
      "name": "stake",
      "outputs": [
        {
          "internalType": "uint256",
          "name": "",
          "type": "uint256"
        }
      ],
      "stateMutability": "nonpayable",
      "type": "function"
    },
    {
      "inputs": [],
      "name": "supplyInWarmup",
      "outputs": [
        {
          "internalType": "uint256",
          "name": "",
          "type": "uint256"
        }
      ],
      "stateMutability": "view",
      "type": "function"
    },
    {
      "inputs": [],
      "name": "toggleLock",
      "outputs": [],
      "stateMutability": "nonpayable",
      "type": "function"
    },
    {
      "inputs": [
        {
          "internalType": "address",
          "name": "_to",
          "type": "address"
        },
        {
          "internalType": "uint256",
          "name": "_amount",
          "type": "uint256"
        },
        {
          "internalType": "bool",
          "name": "_trigger",
          "type": "bool"
        },
        {
          "internalType": "bool",
          "name": "_rebasing",
          "type": "bool"
        }
      ],
      "name": "unstake",
      "outputs": [
        {
          "internalType": "uint256",
          "name": "amount_",
          "type": "uint256"
        }
      ],
      "stateMutability": "nonpayable",
      "type": "function"
    },
    {
      "inputs": [
        {
          "internalType": "address",
          "name": "_to",
          "type": "address"
        },
        {
          "internalType": "uint256",
          "name": "_amount",
          "type": "uint256"
        }
      ],
      "name": "unwrap",
      "outputs": [
        {
          "internalType": "uint256",
          "name": "sBalance_",
          "type": "uint256"
        }
      ],
      "stateMutability": "nonpayable",
      "type": "function"
    },
    {
      "inputs": [
        {
          "internalType": "address",
          "name": "",
          "type": "address"
        }
      ],
      "name": "warmupInfo",
      "outputs": [
        {
          "internalType": "uint256",
          "name": "deposit",
          "type": "uint256"
        },
        {
          "internalType": "uint256",
          "name": "gons",
          "type": "uint256"
        },
        {
          "internalType": "uint256",
          "name": "expiry",
          "type": "uint256"
        },
        {
          "internalType": "bool",
          "name": "lock",
          "type": "bool"
        }
      ],
      "stateMutability": "view",
      "type": "function"
    },
    {
      "inputs": [],
      "name": "warmupPeriod",
      "outputs": [
        {
          "internalType": "uint256",
          "name": "",
          "type": "uint256"
        }
      ],
      "stateMutability": "view",
      "type": "function"
    },
    {
      "inputs": [
        {
          "internalType": "address",
          "name": "_to",
          "type": "address"
        },
        {
          "internalType": "uint256",
          "name": "_amount",
          "type": "uint256"
        }
      ],
      "name": "wrap",
      "outputs": [
        {
          "internalType": "uint256",
          "name": "gBalance_",
          "type": "uint256"
        }
      ],
      "stateMutability": "nonpayable",
      "type": "function"
    }
  ],
  "transactionHash": "0xcfa128cdd7528dcfea088c9ea4631ced5e78d353c0c65a55eba01656d31da06c",
  "args": [
    "0x6c0fD6f7eD6f4af3Ba14c3ae611564D07417243c",
    "0xC35D8656A50b755AEf5d3cB27BAcD812ADc426e0",
    "0x45facD657Ed2F0C7289690FAd7d2c7B0d03330ff",
    "1800",
    "767",
    1640812466,
    "0xBFE11f951Ac4fF5bbD14AA9CB04B6026addD56F6"
  ],
  "numDeployments": 3,
  "solcInputHash": "2f66007361390c9e0a0eb99fbc55e423",
  "bytecode": "0x610120604052600c60e08190526b15539055551213d49256915160a21b61010090815262000031916000919062000256565b503480156200003f57600080fd5b506040516200227238038062002272833981810160405260e08110156200006557600080fd5b50805160208201516040808401516060850151608086015160a087015160c090970151600180546001600160a01b0319166001600160a01b038316908117909155945196979596939592949193909182917f2f658b440c35314f52658ea8a740e05b284cdc84dc9ae01e891f21b8933e7cad90600090a2506001600160a01b0387166200012e576040805162461bcd60e51b81526020600482015260126024820152715a65726f20616464726573733a205155415360701b604482015290519081900360640190fd5b6001600160601b0319606088901b166080526001600160a01b0386166200019c576040805162461bcd60e51b815260206004820152601360248201527f5a65726f20616464726573733a20735155415300000000000000000000000000604482015290519081900360640190fd5b6001600160601b0319606087901b1660a0526001600160a01b0385166200020a576040805162461bcd60e51b815260206004820152601360248201527f5a65726f20616464726573733a20675155415300000000000000000000000000604482015290519081900360640190fd5b506001600160601b0319606094851b1660c05260408051608081018252848152602081018490529081018290526000940184905260029290925560035560045560055550620003029050565b828054600181600116156101000203166002900490600052602060002090601f0160209004810192826200028e5760008555620002d9565b82601f10620002a957805160ff1916838001178555620002d9565b82800160010185558215620002d9579182015b82811115620002d9578251825591602001919060010190620002bc565b50620002e7929150620002eb565b5090565b5b80821115620002e75760008155600101620002ec565b60805160601c60a05160601c60c05160601c611ebd620003b56000398061051552806105a45280610d1c5280610d81528061128b528061134552806116b752806119c652806119f65280611b045250806103fb528061042152806104ba52806106415280610bd65280610cbc5280610f3552806111a5528061126152806115035280611628528061199652508061069a5280610e385280610ef552806110ee52806113da52806117675250611ebd6000f3fe608060405234801561001057600080fd5b50600436106101815760003560e01c80639483c1d7116100d8578063bfe109281161008c578063dedd601111610066578063dedd6011146103e1578063f3d86e4a146103e9578063ff9413d8146103f157610181565b8063bfe1092814610395578063d866c9d81461039d578063deac361a146103d957610181565b8063af14052c116100bd578063af14052c14610359578063bf376c7a14610361578063bf7e214f1461038d57610181565b80639483c1d714610315578063990966d51461031d57610181565b80636a5e0f1a1161013a578063900cf0cf11610114578063900cf0cf1461029c5780639238d592146102ca57806392fd2daf146102e757610181565b80636a5e0f1a1461024657806375619ab51461024e5780637a9e5e4b1461027657610181565b80632986c0e51161016b5780632986c0e5146101c457806339f47693146101cc5780636746f4c2146101f857610181565b8062387ff21461018657806320138641146101aa575b600080fd5b61018e6103f9565b604080516001600160a01b039092168252519081900360200190f35b6101b261041d565b60408051918252519081900360200190f35b6101b26104b6565b6101b2600480360360408110156101e257600080fd5b506001600160a01b038135169060200135610511565b61021e6004803603602081101561020e57600080fd5b50356001600160a01b031661066e565b6040805194855260208501939093528383019190915215156060830152519081900360800190f35b61018e610698565b6102746004803603602081101561026457600080fd5b50356001600160a01b03166106bc565b005b6102746004803603602081101561028c57600080fd5b50356001600160a01b0316610843565b6102a4610986565b604080519485526020850193909352838301919091526060830152519081900360800190f35b610274600480360360208110156102e057600080fd5b5035610995565b6101b2600480360360408110156102fd57600080fd5b506001600160a01b0381351690602001351515610abc565b6101b2610c80565b6101b26004803603608081101561033357600080fd5b506001600160a01b03813516906020810135906040810135151590606001351515610c95565b6101b2610f25565b6101b26004803603604081101561037757600080fd5b506001600160a01b038135169060200135611252565b61018e6113ad565b61018e6113bc565b6101b2600480360360808110156103b357600080fd5b506001600160a01b038135169060208101359060408101351515906060013515156113cb565b6101b26116af565b61018e6116b5565b6101b26116d9565b610274611795565b7f000000000000000000000000000000000000000000000000000000000000000081565b60007f00000000000000000000000000000000000000000000000000000000000000006001600160a01b0316637965d56d6009546040518263ffffffff1660e01b81526004018082815260200191505060206040518083038186803b15801561048557600080fd5b505afa158015610499573d6000803e3d6000fd5b505050506040513d60208110156104af57600080fd5b5051905090565b60007f00000000000000000000000000000000000000000000000000000000000000006001600160a01b0316632986c0e56040518163ffffffff1660e01b815260040160206040518083038186803b15801561048557600080fd5b60007f00000000000000000000000000000000000000000000000000000000000000006001600160a01b0316639dc29fac33846040518363ffffffff1660e01b815260040180836001600160a01b0316815260200182815260200192505050600060405180830381600087803b15801561058a57600080fd5b505af115801561059e573d6000803e3d6000fd5b505050507f00000000000000000000000000000000000000000000000000000000000000006001600160a01b031663a8248768836040518263ffffffff1660e01b81526004018082815260200191505060206040518083038186803b15801561060657600080fd5b505afa15801561061a573d6000803e3d6000fd5b505050506040513d602081101561063057600080fd5b505190506106686001600160a01b037f00000000000000000000000000000000000000000000000000000000000000001684836117b9565b92915050565b60076020526000908152604090208054600182015460028301546003909301549192909160ff1684565b7f000000000000000000000000000000000000000000000000000000000000000081565b600160009054906101000a90046001600160a01b03166001600160a01b0316630c340a246040518163ffffffff1660e01b815260040160206040518083038186803b15801561070a57600080fd5b505afa15801561071e573d6000803e3d6000fd5b505050506040513d602081101561073457600080fd5b50516000906001600160a01b031633146107e15760405162461bcd60e51b81526020600482019081528254600260001961010060018416150201909116046024830181905290918291604490910190849080156107d25780601f106107a7576101008083540402835291602001916107d2565b820191906000526020600020905b8154815290600101906020018083116107b557829003601f168201915b50509250505060405180910390fd5b50600680546001600160a01b03831673ffffffffffffffffffffffffffffffffffffffff19909116811790915560408051918252517f86719c518c7d99ac94b3d405d462ea876ba5cd0a978461dc9a7c9862a94858869181900360200190a150565b600160009054906101000a90046001600160a01b03166001600160a01b0316630c340a246040518163ffffffff1660e01b815260040160206040518083038186803b15801561089157600080fd5b505afa1580156108a5573d6000803e3d6000fd5b505050506040513d60208110156108bb57600080fd5b50516000906001600160a01b0316331461092e5760405162461bcd60e51b81526020600482019081528254600260001961010060018416150201909116046024830181905290918291604490910190849080156107d25780601f106107a7576101008083540402835291602001916107d2565b506001805473ffffffffffffffffffffffffffffffffffffffff19166001600160a01b0383169081179091556040517f2f658b440c35314f52658ea8a740e05b284cdc84dc9ae01e891f21b8933e7cad90600090a250565b60025460035460045460055484565b600160009054906101000a90046001600160a01b03166001600160a01b0316630c340a246040518163ffffffff1660e01b815260040160206040518083038186803b1580156109e357600080fd5b505afa1580156109f7573d6000803e3d6000fd5b505050506040513d6020811015610a0d57600080fd5b50516000906001600160a01b03163314610a805760405162461bcd60e51b81526020600482019081528254600260001961010060018416150201909116046024830181905290918291604490910190849080156107d25780601f106107a7576101008083540402835291602001916107d2565b5060088190556040805182815290517fac17d51c35ac71d3eddc155985908430e88946d51e2f6093e93c1c0aba08f6c49181900360200190a150565b6000610ac6611e13565b506001600160a01b03831660009081526007602090815260409182902082516080810184528154815260018201549281019290925260028101549282019290925260039091015460ff16151560608201819052610b64576001600160a01b0384163314610b645760405162461bcd60e51b8152600401808060200182810382526026815260200180611e666026913960400191505060405180910390fd5b604081015160035410801590610b7d5750604081015115155b15610c76576001600160a01b038416600090815260076020908152604082208281556001810183905560028101929092556003909101805460ff19169055810151600954610bca91611938565b600981905550610c6e847f00000000000000000000000000000000000000000000000000000000000000006001600160a01b0316637965d56d84602001516040518263ffffffff1660e01b81526004018082815260200191505060206040518083038186803b158015610c3c57600080fd5b505afa158015610c50573d6000803e3d6000fd5b505050506040513d6020811015610c6657600080fd5b505185611981565b915050610668565b5060009392505050565b600454600090610c909042611938565b905090565b8260008315610ca957610ca6610f25565b90505b8215610cf557610ce46001600160a01b037f000000000000000000000000000000000000000000000000000000000000000016333088611b9a565b610cee8282611d22565b9150610e18565b60408051632770a7eb60e21b81523360048201526024810187905290516001600160a01b037f00000000000000000000000000000000000000000000000000000000000000001691639dc29fac91604480830192600092919082900301818387803b158015610d6357600080fd5b505af1158015610d77573d6000803e3d6000fd5b50505050610e15817f00000000000000000000000000000000000000000000000000000000000000006001600160a01b031663a8248768856040518263ffffffff1660e01b81526004018082815260200191505060206040518083038186803b158015610de357600080fd5b505afa158015610df7573d6000803e3d6000fd5b505050506040513d6020811015610e0d57600080fd5b505190611d22565b91505b604080516370a0823160e01b815230600482015290516001600160a01b037f000000000000000000000000000000000000000000000000000000000000000016916370a08231916024808301926020929190829003018186803b158015610e7e57600080fd5b505afa158015610e92573d6000803e3d6000fd5b505050506040513d6020811015610ea857600080fd5b5051821115610ee85760405162461bcd60e51b8152600401808060200182810382526025815260200180611e8c6025913960400191505060405180910390fd5b610f1c6001600160a01b037f00000000000000000000000000000000000000000000000000000000000000001687846117b9565b50949350505050565b60008042600280015411610c90577f00000000000000000000000000000000000000000000000000000000000000006001600160a01b031663058ecdb46002600301546002600101546040518363ffffffff1660e01b81526004018083815260200182815260200192505050602060405180830381600087803b158015610fab57600080fd5b505af1158015610fbf573d6000803e3d6000fd5b505050506040513d6020811015610fd557600080fd5b5050600254600454610fe691611d22565b6004556003805460010190556006546001600160a01b0316156110ea57600660009054906101000a90046001600160a01b03166001600160a01b031663e4fc6b6d6040518163ffffffff1660e01b8152600401600060405180830381600087803b15801561105357600080fd5b505af1158015611067573d6000803e3d6000fd5b50505050600660009054906101000a90046001600160a01b03166001600160a01b031663e7187e8a6040518163ffffffff1660e01b8152600401602060405180830381600087803b1580156110bb57600080fd5b505af11580156110cf573d6000803e3d6000fd5b505050506040513d60208110156110e557600080fd5b505190505b60007f00000000000000000000000000000000000000000000000000000000000000006001600160a01b03166370a08231306040518263ffffffff1660e01b815260040180826001600160a01b0316815260200191505060206040518083038186803b15801561115957600080fd5b505afa15801561116d573d6000803e3d6000fd5b505050506040513d602081101561118357600080fd5b505160408051639358928b60e01b815290519192506000916001600160a01b037f00000000000000000000000000000000000000000000000000000000000000001691639358928b916004808301926020929190829003018186803b1580156111eb57600080fd5b505afa1580156111ff573d6000803e3d6000fd5b505050506040513d602081101561121557600080fd5b505190506112238184611d22565b821161123357600060055561124b565b611247836112418484611938565b90611938565b6005555b5050905090565b60006112896001600160a01b037f000000000000000000000000000000000000000000000000000000000000000016333085611b9a565b7f00000000000000000000000000000000000000000000000000000000000000006001600160a01b03166366a5236c836040518263ffffffff1660e01b81526004018082815260200191505060206040518083038186803b1580156112ed57600080fd5b505afa158015611301573d6000803e3d6000fd5b505050506040513d602081101561131757600080fd5b5051604080516340c10f1960e01b81526001600160a01b0386811660048301526024820184905291519293507f0000000000000000000000000000000000000000000000000000000000000000909116916340c10f199160448082019260009290919082900301818387803b15801561138f57600080fd5b505af11580156113a3573d6000803e3d6000fd5b5050505092915050565b6001546001600160a01b031681565b6006546001600160a01b031681565b60006114026001600160a01b037f000000000000000000000000000000000000000000000000000000000000000016333087611b9a565b61141461140d610f25565b8590611d22565b93508180156114235750600854155b1561143a57611433858585611981565b90506116a7565b611442611e13565b506001600160a01b03851660009081526007602090815260409182902082516080810184528154815260018201549281019290925260028101549282019290925260039091015460ff161515606082018190526114e0576001600160a01b03861633146114e05760405162461bcd60e51b8152600401808060200182810382526028815260200180611e3e6028913960400191505060405180910390fd5b6040805160808101909152815181906114f99088611d22565b815260200161159c7f00000000000000000000000000000000000000000000000000000000000000006001600160a01b0316631bd39674896040518263ffffffff1660e01b81526004018082815260200191505060206040518083038186803b15801561156557600080fd5b505afa158015611579573d6000803e3d6000fd5b505050506040513d602081101561158f57600080fd5b5051602085015190611d22565b81526008546003546020909201916115b391611d22565b815260608381015115156020928301526001600160a01b038981166000908152600784526040908190208551815585850151600182015585820151600282015594909201516003909401805460ff19169415159490941790935580516306f4e59d60e21b815260048101899052905161169f937f00000000000000000000000000000000000000000000000000000000000000001692631bd396749260248082019391829003018186803b15801561166a57600080fd5b505afa15801561167e573d6000803e3d6000fd5b505050506040513d602081101561169457600080fd5b505160095490611d22565b600955508390505b949350505050565b60085481565b7f000000000000000000000000000000000000000000000000000000000000000081565b60006116e3611e13565b503360008181526007602081815260408084208151608081018352815481526001820180548286019081526002840180549584019590955260038401805460ff81161515606086015299895296909552918690559085905593905560ff199093169055905160095461175491611938565b600955805161178f906001600160a01b037f0000000000000000000000000000000000000000000000000000000000000000169033906117b9565b51905090565b336000908152600760205260409020600301805460ff19811660ff90911615179055565b604080516001600160a01b038481166024830152604480830185905283518084039091018152606490920183526020820180517bffffffffffffffffffffffffffffffffffffffffffffffffffffffff1663a9059cbb60e01b178152925182516000946060949389169392918291908083835b6020831061184b5780518252601f19909201916020918201910161182c565b6001836020036101000a0380198251168184511680821785525050505050509050019150506000604051808303816000865af19150503d80600081146118ad576040519150601f19603f3d011682016040523d82523d6000602084013e6118b2565b606091505b50915091508180156118e05750805115806118e057508080602001905160208110156118dd57600080fd5b50515b611931576040805162461bcd60e51b815260206004820152600f60248201527f5452414e534645525f4641494c45440000000000000000000000000000000000604482015290519081900360640190fd5b5050505050565b600061197a83836040518060400160405280601e81526020017f536166654d6174683a207375627472616374696f6e206f766572666c6f770000815250611d7c565b9392505050565b600081156119c4576119bd6001600160a01b037f00000000000000000000000000000000000000000000000000000000000000001685856117b9565b508161197a565b7f00000000000000000000000000000000000000000000000000000000000000006001600160a01b03166340c10f19857f00000000000000000000000000000000000000000000000000000000000000006001600160a01b03166366a5236c876040518263ffffffff1660e01b81526004018082815260200191505060206040518083038186803b158015611a5857600080fd5b505afa158015611a6c573d6000803e3d6000fd5b505050506040513d6020811015611a8257600080fd5b5051604080517fffffffff0000000000000000000000000000000000000000000000000000000060e086901b1681526001600160a01b039093166004840152602483019190915251604480830192600092919082900301818387803b158015611aea57600080fd5b505af1158015611afe573d6000803e3d6000fd5b505050507f00000000000000000000000000000000000000000000000000000000000000006001600160a01b03166366a5236c846040518263ffffffff1660e01b81526004018082815260200191505060206040518083038186803b158015611b6657600080fd5b505afa158015611b7a573d6000803e3d6000fd5b505050506040513d6020811015611b9057600080fd5b5051949350505050565b604080516001600160a01b0385811660248301528481166044830152606480830185905283518084039091018152608490920183526020820180517bffffffffffffffffffffffffffffffffffffffffffffffffffffffff166323b872dd60e01b17815292518251600094606094938a169392918291908083835b60208310611c345780518252601f199092019160209182019101611c15565b6001836020036101000a0380198251168184511680821785525050505050509050019150506000604051808303816000865af19150503d8060008114611c96576040519150601f19603f3d011682016040523d82523d6000602084013e611c9b565b606091505b5091509150818015611cc9575080511580611cc95750808060200190516020811015611cc657600080fd5b50515b611d1a576040805162461bcd60e51b815260206004820152601460248201527f5452414e534645525f46524f4d5f4641494c4544000000000000000000000000604482015290519081900360640190fd5b505050505050565b60008282018381101561197a576040805162461bcd60e51b815260206004820152601b60248201527f536166654d6174683a206164646974696f6e206f766572666c6f770000000000604482015290519081900360640190fd5b60008184841115611e0b5760405162461bcd60e51b81526004018080602001828103825283818151815260200191508051906020019080838360005b83811015611dd0578181015183820152602001611db8565b50505050905090810190601f168015611dfd5780820380516001836020036101000a031916815260200191505b509250505060405180910390fd5b505050900390565b6040518060800160405280600081526020016000815260200160008152602001600015158152509056fe45787465726e616c206465706f7369747320666f72206163636f756e7420617265206c6f636b656445787465726e616c20636c61696d7320666f72206163636f756e7420617265206c6f636b6564496e73756666696369656e7420515541532062616c616e636520696e20636f6e7472616374a164736f6c6343000705000a",
  "devdoc": {
    "kind": "dev",
    "methods": {
      "claim(address,bool)": {
        "params": {
          "_rebasing": "bool",
          "_to": "address"
        },
        "returns": {
          "_0": "uint"
        }
      },
      "forfeit()": {
        "returns": {
          "_0": "uint"
        }
      },
      "index()": {
        "returns": {
          "_0": "uint"
        }
      },
      "rebase()": {
        "returns": {
          "_0": "uint256"
        }
      },
      "setDistributor(address)": {
        "params": {
          "_distributor": "address"
        }
      },
      "setWarmupLength(uint256)": {
        "params": {
          "_warmupPeriod": "uint"
        }
      },
      "stake(address,uint256,bool,bool)": {
        "params": {
          "_amount": "uint",
          "_claim": "bool",
          "_rebasing": "bool",
          "_to": "address"
        },
        "returns": {
          "_0": "uint"
        }
      },
      "unstake(address,uint256,bool,bool)": {
        "params": {
          "_amount": "uint",
          "_rebasing": "bool",
          "_to": "address",
          "_trigger": "bool"
        },
        "returns": {
          "amount_": "uint"
        }
      },
      "unwrap(address,uint256)": {
        "params": {
          "_amount": "uint",
          "_to": "address"
        },
        "returns": {
          "sBalance_": "uint"
        }
      },
      "wrap(address,uint256)": {
        "params": {
          "_amount": "uint",
          "_to": "address"
        },
        "returns": {
          "gBalance_": "uint"
        }
      }
    },
    "version": 1
  },
  "userdoc": {
    "kind": "user",
    "methods": {
      "claim(address,bool)": {
        "notice": "retrieve stake from warmup"
      },
      "forfeit()": {
        "notice": "forfeit stake and retrieve QUAS"
      },
      "index()": {
        "notice": "returns the sQUAS index, which tracks rebase growth"
      },
      "rebase()": {
        "notice": "trigger rebase if epoch over"
      },
      "secondsToNextEpoch()": {
        "notice": "seconds until the next epoch begins"
      },
      "setDistributor(address)": {
        "notice": "sets the contract address for LP staking"
      },
      "setWarmupLength(uint256)": {
        "notice": "set warmup period for new stakers"
      },
      "stake(address,uint256,bool,bool)": {
        "notice": "stake QUAS to enter warmup"
      },
      "supplyInWarmup()": {
        "notice": "total supply in warmup"
      },
      "toggleLock()": {
        "notice": "prevent new deposits or claims from ext. address (protection from malicious activity)"
      },
      "unstake(address,uint256,bool,bool)": {
        "notice": "redeem sQUAS for QUASs"
      },
      "unwrap(address,uint256)": {
        "notice": "convert _amount gQUAS into sBalance_ sQUAS"
      },
      "wrap(address,uint256)": {
        "notice": "convert _amount sQUAS into gBalance_ gQUAS"
      }
    },
    "version": 1
  },
  "storageLayout": {
    "storage": [
      {
        "astId": 10594,
        "contract": "contracts/Staking.sol:QuasarStaking",
        "label": "UNAUTHORIZED",
        "offset": 0,
        "slot": "0",
        "type": "t_string_storage"
      },
      {
        "astId": 10596,
        "contract": "contracts/Staking.sol:QuasarStaking",
        "label": "authority",
        "offset": 0,
        "slot": "1",
        "type": "t_contract(IQuasarAuthority)6875"
      },
      {
        "astId": 2233,
        "contract": "contracts/Staking.sol:QuasarStaking",
        "label": "epoch",
        "offset": 0,
        "slot": "2",
        "type": "t_struct(Epoch)2216_storage"
      },
      {
        "astId": 2235,
        "contract": "contracts/Staking.sol:QuasarStaking",
        "label": "distributor",
        "offset": 0,
        "slot": "6",
        "type": "t_contract(IDistributor)6618"
      },
      {
        "astId": 2239,
        "contract": "contracts/Staking.sol:QuasarStaking",
        "label": "warmupInfo",
        "offset": 0,
        "slot": "7",
        "type": "t_mapping(t_address,t_struct(Claim)2225_storage)"
      },
      {
        "astId": 2241,
        "contract": "contracts/Staking.sol:QuasarStaking",
        "label": "warmupPeriod",
        "offset": 0,
        "slot": "8",
        "type": "t_uint256"
      },
      {
        "astId": 2243,
        "contract": "contracts/Staking.sol:QuasarStaking",
        "label": "gonsInWarmup",
        "offset": 0,
        "slot": "9",
        "type": "t_uint256"
      }
    ],
    "types": {
      "t_address": {
        "encoding": "inplace",
        "label": "address",
        "numberOfBytes": "20"
      },
      "t_bool": {
        "encoding": "inplace",
        "label": "bool",
        "numberOfBytes": "1"
      },
      "t_contract(IDistributor)6618": {
        "encoding": "inplace",
        "label": "contract IDistributor",
        "numberOfBytes": "20"
      },
      "t_contract(IQuasarAuthority)6875": {
        "encoding": "inplace",
        "label": "contract IQuasarAuthority",
        "numberOfBytes": "20"
      },
      "t_mapping(t_address,t_struct(Claim)2225_storage)": {
        "encoding": "mapping",
        "key": "t_address",
        "label": "mapping(address => struct QuasarStaking.Claim)",
        "numberOfBytes": "32",
        "value": "t_struct(Claim)2225_storage"
      },
      "t_string_storage": {
        "encoding": "bytes",
        "label": "string",
        "numberOfBytes": "32"
      },
      "t_struct(Claim)2225_storage": {
        "encoding": "inplace",
        "label": "struct QuasarStaking.Claim",
        "members": [
          {
            "astId": 2218,
            "contract": "contracts/Staking.sol:QuasarStaking",
            "label": "deposit",
            "offset": 0,
            "slot": "0",
            "type": "t_uint256"
          },
          {
            "astId": 2220,
            "contract": "contracts/Staking.sol:QuasarStaking",
            "label": "gons",
            "offset": 0,
            "slot": "1",
            "type": "t_uint256"
          },
          {
            "astId": 2222,
            "contract": "contracts/Staking.sol:QuasarStaking",
            "label": "expiry",
            "offset": 0,
            "slot": "2",
            "type": "t_uint256"
          },
          {
            "astId": 2224,
            "contract": "contracts/Staking.sol:QuasarStaking",
            "label": "lock",
            "offset": 0,
            "slot": "3",
            "type": "t_bool"
          }
        ],
        "numberOfBytes": "128"
      },
      "t_struct(Epoch)2216_storage": {
        "encoding": "inplace",
        "label": "struct QuasarStaking.Epoch",
        "members": [
          {
            "astId": 2209,
            "contract": "contracts/Staking.sol:QuasarStaking",
            "label": "length",
            "offset": 0,
            "slot": "0",
            "type": "t_uint256"
          },
          {
            "astId": 2211,
            "contract": "contracts/Staking.sol:QuasarStaking",
            "label": "number",
            "offset": 0,
            "slot": "1",
            "type": "t_uint256"
          },
          {
            "astId": 2213,
            "contract": "contracts/Staking.sol:QuasarStaking",
            "label": "end",
            "offset": 0,
            "slot": "2",
            "type": "t_uint256"
          },
          {
            "astId": 2215,
            "contract": "contracts/Staking.sol:QuasarStaking",
            "label": "distribute",
            "offset": 0,
            "slot": "3",
            "type": "t_uint256"
          }
        ],
        "numberOfBytes": "128"
      },
      "t_uint256": {
        "encoding": "inplace",
        "label": "uint256",
        "numberOfBytes": "32"
      }
    }
  }
}