{
  "address": "0x33cEEfa5547434F35549B31E29b5673BD162E4Ca",
  "abi": [
    {
      "inputs": [
        {
          "internalType": "address",
          "name": "_treasury",
          "type": "address"
        },
        {
          "internalType": "address",
          "name": "_authority",
          "type": "address"
        }
      ],
      "stateMutability": "nonpayable",
      "type": "constructor"
    },
    {
      "anonymous": false,
      "inputs": [
        {
          "indexed": true,
          "internalType": "contract IQuasarAuthority",
          "name": "authority",
          "type": "address"
        }
      ],
      "name": "AuthorityUpdated",
      "type": "event"
    },
    {
      "anonymous": false,
      "inputs": [
        {
          "indexed": false,
          "internalType": "uint256",
          "name": "bid",
          "type": "uint256"
        },
        {
          "indexed": false,
          "internalType": "uint256",
          "name": "amount",
          "type": "uint256"
        },
        {
          "indexed": false,
          "internalType": "uint256",
          "name": "payout",
          "type": "uint256"
        },
        {
          "indexed": false,
          "internalType": "uint256",
          "name": "expires",
          "type": "uint256"
        }
      ],
      "name": "CreateBond",
      "type": "event"
    },
    {
      "anonymous": false,
      "inputs": [
        {
          "indexed": false,
          "internalType": "uint256",
          "name": "bid",
          "type": "uint256"
        },
        {
          "indexed": false,
          "internalType": "uint256",
          "name": "price",
          "type": "uint256"
        },
        {
          "indexed": false,
          "internalType": "uint256",
          "name": "internalPrice",
          "type": "uint256"
        },
        {
          "indexed": false,
          "internalType": "uint256",
          "name": "debtRatio",
          "type": "uint256"
        }
      ],
      "name": "afterBond",
      "type": "event"
    },
    {
      "anonymous": false,
      "inputs": [
        {
          "indexed": false,
          "internalType": "uint256",
          "name": "bid",
          "type": "uint256"
        },
        {
          "indexed": false,
          "internalType": "uint256",
          "name": "price",
          "type": "uint256"
        },
        {
          "indexed": false,
          "internalType": "uint256",
          "name": "internalPrice",
          "type": "uint256"
        },
        {
          "indexed": false,
          "internalType": "uint256",
          "name": "debtRatio",
          "type": "uint256"
        }
      ],
      "name": "beforeBond",
      "type": "event"
    },
    {
      "inputs": [
        {
          "internalType": "uint256",
          "name": "",
          "type": "uint256"
        }
      ],
      "name": "IDs",
      "outputs": [
        {
          "internalType": "address",
          "name": "",
          "type": "address"
        }
      ],
      "stateMutability": "view",
      "type": "function"
    },
    {
      "inputs": [
        {
          "internalType": "address",
          "name": "_principal",
          "type": "address"
        },
        {
          "internalType": "address",
          "name": "_calculator",
          "type": "address"
        },
        {
          "internalType": "uint256",
          "name": "_capacity",
          "type": "uint256"
        },
        {
          "internalType": "bool",
          "name": "_capacityIsPayout",
          "type": "bool"
        }
      ],
      "name": "addBond",
      "outputs": [
        {
          "internalType": "uint256",
          "name": "id_",
          "type": "uint256"
        }
      ],
      "stateMutability": "nonpayable",
      "type": "function"
    },
    {
      "inputs": [],
      "name": "authority",
      "outputs": [
        {
          "internalType": "contract IQuasarAuthority",
          "name": "",
          "type": "address"
        }
      ],
      "stateMutability": "view",
      "type": "function"
    },
    {
      "inputs": [
        {
          "internalType": "uint256",
          "name": "_BID",
          "type": "uint256"
        }
      ],
      "name": "bondInfo",
      "outputs": [
        {
          "internalType": "address",
          "name": "principal_",
          "type": "address"
        },
        {
          "internalType": "address",
          "name": "calculator_",
          "type": "address"
        },
        {
          "internalType": "uint256",
          "name": "totalDebt_",
          "type": "uint256"
        },
        {
          "internalType": "uint256",
          "name": "lastBondCreatedAt_",
          "type": "uint256"
        }
      ],
      "stateMutability": "view",
      "type": "function"
    },
    {
      "inputs": [
        {
          "internalType": "uint256",
          "name": "_BID",
          "type": "uint256"
        }
      ],
      "name": "bondPrice",
      "outputs": [
        {
          "internalType": "uint256",
          "name": "price_",
          "type": "uint256"
        }
      ],
      "stateMutability": "view",
      "type": "function"
    },
    {
      "inputs": [
        {
          "internalType": "uint256",
          "name": "_BID",
          "type": "uint256"
        }
      ],
      "name": "bondPriceInUSD",
      "outputs": [
        {
          "internalType": "uint256",
          "name": "price_",
          "type": "uint256"
        }
      ],
      "stateMutability": "view",
      "type": "function"
    },
    {
      "inputs": [
        {
          "internalType": "uint256",
          "name": "_BID",
          "type": "uint256"
        }
      ],
      "name": "bondTerms",
      "outputs": [
        {
          "internalType": "uint256",
          "name": "controlVariable_",
          "type": "uint256"
        },
        {
          "internalType": "uint256",
          "name": "vestingTerm_",
          "type": "uint256"
        },
        {
          "internalType": "uint256",
          "name": "minimumPrice_",
          "type": "uint256"
        },
        {
          "internalType": "uint256",
          "name": "maxPayout_",
          "type": "uint256"
        },
        {
          "internalType": "uint256",
          "name": "maxDebt_",
          "type": "uint256"
        }
      ],
      "stateMutability": "view",
      "type": "function"
    },
    {
      "inputs": [
        {
          "internalType": "uint256",
          "name": "",
          "type": "uint256"
        }
      ],
      "name": "bonds",
      "outputs": [
        {
          "internalType": "contract IERC20",
          "name": "principal",
          "type": "address"
        },
        {
          "internalType": "contract IBondingCalculator",
          "name": "calculator",
          "type": "address"
        },
        {
          "components": [
            {
              "internalType": "uint256",
              "name": "controlVariable",
              "type": "uint256"
            },
            {
              "internalType": "bool",
              "name": "fixedTerm",
              "type": "bool"
            },
            {
              "internalType": "uint256",
              "name": "vestingTerm",
              "type": "uint256"
            },
            {
              "internalType": "uint256",
              "name": "expiration",
              "type": "uint256"
            },
            {
              "internalType": "uint256",
              "name": "conclusion",
              "type": "uint256"
            },
            {
              "internalType": "uint256",
              "name": "minimumPrice",
              "type": "uint256"
            },
            {
              "internalType": "uint256",
              "name": "maxPayout",
              "type": "uint256"
            },
            {
              "internalType": "uint256",
              "name": "maxDebt",
              "type": "uint256"
            }
          ],
          "internalType": "struct QuasarBondDepository.Terms",
          "name": "terms",
          "type": "tuple"
        },
        {
          "internalType": "bool",
          "name": "termsSet",
          "type": "bool"
        },
        {
          "internalType": "uint256",
          "name": "capacity",
          "type": "uint256"
        },
        {
          "internalType": "bool",
          "name": "capacityIsPayout",
          "type": "bool"
        },
        {
          "internalType": "uint256",
          "name": "totalDebt",
          "type": "uint256"
        },
        {
          "internalType": "uint256",
          "name": "lastDecay",
          "type": "uint256"
        }
      ],
      "stateMutability": "view",
      "type": "function"
    },
    {
      "inputs": [
        {
          "internalType": "uint256",
          "name": "_BID",
          "type": "uint256"
        }
      ],
      "name": "currentDebt",
      "outputs": [
        {
          "internalType": "uint256",
          "name": "",
          "type": "uint256"
        }
      ],
      "stateMutability": "view",
      "type": "function"
    },
    {
      "inputs": [
        {
          "internalType": "uint256",
          "name": "_BID",
          "type": "uint256"
        }
      ],
      "name": "debtDecay",
      "outputs": [
        {
          "internalType": "uint256",
          "name": "decay_",
          "type": "uint256"
        }
      ],
      "stateMutability": "view",
      "type": "function"
    },
    {
      "inputs": [
        {
          "internalType": "uint256",
          "name": "_BID",
          "type": "uint256"
        }
      ],
      "name": "debtRatio",
      "outputs": [
        {
          "internalType": "uint256",
          "name": "debtRatio_",
          "type": "uint256"
        }
      ],
      "stateMutability": "view",
      "type": "function"
    },
    {
      "inputs": [
        {
          "internalType": "uint256",
          "name": "_amount",
          "type": "uint256"
        },
        {
          "internalType": "uint256",
          "name": "_maxPrice",
          "type": "uint256"
        },
        {
          "internalType": "address",
          "name": "_depositor",
          "type": "address"
        },
        {
          "internalType": "uint256",
          "name": "_BID",
          "type": "uint256"
        },
        {
          "internalType": "address",
          "name": "_feo",
          "type": "address"
        }
      ],
      "name": "deposit",
      "outputs": [
        {
          "internalType": "uint256",
          "name": "",
          "type": "uint256"
        }
      ],
      "stateMutability": "nonpayable",
      "type": "function"
    },
    {
      "inputs": [
        {
          "internalType": "uint256",
          "name": "_id",
          "type": "uint256"
        }
      ],
      "name": "deprecateBond",
      "outputs": [],
      "stateMutability": "nonpayable",
      "type": "function"
    },
    {
      "inputs": [
        {
          "internalType": "uint256",
          "name": "_BID",
          "type": "uint256"
        }
      ],
      "name": "maxPayout",
      "outputs": [
        {
          "internalType": "uint256",
          "name": "",
          "type": "uint256"
        }
      ],
      "stateMutability": "view",
      "type": "function"
    },
    {
      "inputs": [
        {
          "internalType": "uint256",
          "name": "_value",
          "type": "uint256"
        },
        {
          "internalType": "uint256",
          "name": "_BID",
          "type": "uint256"
        }
      ],
      "name": "payoutFor",
      "outputs": [
        {
          "internalType": "uint256",
          "name": "",
          "type": "uint256"
        }
      ],
      "stateMutability": "view",
      "type": "function"
    },
    {
      "inputs": [
        {
          "internalType": "uint256",
          "name": "_amount",
          "type": "uint256"
        },
        {
          "internalType": "uint256",
          "name": "_BID",
          "type": "uint256"
        }
      ],
      "name": "payoutForAmount",
      "outputs": [
        {
          "internalType": "uint256",
          "name": "",
          "type": "uint256"
        }
      ],
      "stateMutability": "view",
      "type": "function"
    },
    {
      "inputs": [
        {
          "internalType": "contract IQuasarAuthority",
          "name": "_newAuthority",
          "type": "address"
        }
      ],
      "name": "setAuthority",
      "outputs": [],
      "stateMutability": "nonpayable",
      "type": "function"
    },
    {
      "inputs": [
        {
          "internalType": "address",
          "name": "_teller",
          "type": "address"
        }
      ],
      "name": "setTeller",
      "outputs": [],
      "stateMutability": "nonpayable",
      "type": "function"
    },
    {
      "inputs": [
        {
          "internalType": "uint256",
          "name": "_id",
          "type": "uint256"
        },
        {
          "internalType": "uint256",
          "name": "_controlVariable",
          "type": "uint256"
        },
        {
          "internalType": "bool",
          "name": "_fixedTerm",
          "type": "bool"
        },
        {
          "internalType": "uint256",
          "name": "_vestingTerm",
          "type": "uint256"
        },
        {
          "internalType": "uint256",
          "name": "_expiration",
          "type": "uint256"
        },
        {
          "internalType": "uint256",
          "name": "_conclusion",
          "type": "uint256"
        },
        {
          "internalType": "uint256",
          "name": "_minimumPrice",
          "type": "uint256"
        },
        {
          "internalType": "uint256",
          "name": "_maxPayout",
          "type": "uint256"
        },
        {
          "internalType": "uint256",
          "name": "_maxDebt",
          "type": "uint256"
        },
        {
          "internalType": "uint256",
          "name": "_initialDebt",
          "type": "uint256"
        }
      ],
      "name": "setTerms",
      "outputs": [],
      "stateMutability": "nonpayable",
      "type": "function"
    },
    {
      "inputs": [
        {
          "internalType": "uint256",
          "name": "_BID",
          "type": "uint256"
        }
      ],
      "name": "standardizedDebtRatio",
      "outputs": [
        {
          "internalType": "uint256",
          "name": "",
          "type": "uint256"
        }
      ],
      "stateMutability": "view",
      "type": "function"
    },
    {
      "inputs": [],
      "name": "teller",
      "outputs": [
        {
          "internalType": "contract ITeller",
          "name": "",
          "type": "address"
        }
      ],
      "stateMutability": "view",
      "type": "function"
    }
  ],
  "transactionHash": "0x8286d661ad16ed4a11a2bd22e044209f351b0987c8d119d4d98d4ce2827f48a0",
  "args": [
    "0xb4D2BD97f235Ac8a85C7DB14ae4C48b6fFBA0699",
    "0x5e7AB75Db9Ca25deCfB1a1B3CcC3905fEE885F68"
  ],
  "numDeployments": 1,
  "solcInputHash": "738a2335619ff75761cabf0c79c1824c",
  "bytecode": "0x60e0604052600c60a08190526b15539055551213d49256915160a21b60c09081526200002f9160009190620000d6565b503480156200003d57600080fd5b5060405162002d9438038062002d9483398101604081905262000060916200019f565b600180546001600160a01b0319166001600160a01b0383169081179091556040518291907f2f658b440c35314f52658ea8a740e05b284cdc84dc9ae01e891f21b8933e7cad90600090a2506001600160a01b038216620000bf57600080fd5b5060601b6001600160601b031916608052620001d6565b828054600181600116156101000203166002900490600052602060002090601f0160209004810192826200010e576000855562000159565b82601f106200012957805160ff191683800117855562000159565b8280016001018555821562000159579182015b82811115620001595782518255916020019190600101906200013c565b50620001679291506200016b565b5090565b5b808211156200016757600081556001016200016c565b80516001600160a01b03811681146200019a57600080fd5b919050565b60008060408385031215620001b2578182fd5b620001bd8362000182565b9150620001cd6020840162000182565b90509250929050565b60805160601c612b876200020d60003980610a6e5280610c0c5280610ca252806111ee52806115e15280611c555250612b876000f3fe608060405234801561001057600080fd5b50600436106101775760003560e01c80636a6c575d116100d8578063aab114641161008c578063bf7e214f11610066578063bf7e214f14610321578063effc99cd14610329578063f1b7dc781461033c57610177565b8063aab11464146102d7578063abbf4b17146102fb578063bcb296671461030e57610177565b8063805b5bc2116100bd578063805b5bc21461029e578063856519b5146102b1578063a817712a146102c457610177565b80636a6c575d146102785780637a9e5e4b1461028b57610177565b806333ff77221161012f57806357edab4e1161011457806357edab4e146102295780635f1c17c01461023e5780636551df2c1461026557610177565b806333ff77221461020157806357e333ba1461021657610177565b8063172c44ec11610160578063172c44ec146101c8578063187dcb85146101db57806319a64215146101ee57610177565b80630170bbd91461017c57806310fc6172146101a5575b600080fd5b61018f61018a3660046125f7565b61034f565b60405161019c9190612a6e565b60405180910390f35b6101b86101b3366004612665565b6106aa565b60405161019c94939291906127bd565b61018f6101d6366004612665565b6107b6565b61018f6101e93660046126b6565b61082d565b61018f6101fc366004612665565b610e4a565b61021461020f3660046125db565b611082565b005b61018f610224366004612665565b6111c6565b610231611283565b60405161019c91906127a9565b61025161024c366004612665565b611292565b60405161019c9897969594939291906127ff565b610214610273366004612665565b611342565b61018f610286366004612695565b611442565b6102146102993660046125db565b611470565b61018f6102ac366004612695565b6115b3565b61018f6102bf366004612665565b611678565b6102146102d236600461270b565b611822565b6102ea6102e5366004612665565b6119f3565b60405161019c959493929190612aea565b61018f610309366004612665565b611a89565b61018f61031c366004612665565b611bcf565b610231611bf5565b610231610337366004612665565b611c04565b61018f61034a366004612665565b611c2e565b60015460408051630229549960e51b815290516000926001600160a01b03169163452a9320916004808301926020929190829003018186803b15801561039457600080fd5b505afa1580156103a8573d6000803e3d6000fd5b505050506040513d60208110156103be57600080fd5b50516000906001600160a01b0316331461046b5760405162461bcd60e51b815260206004820190815282546002600019610100600184161502019091160460248301819052909182916044909101908490801561045c5780601f106104315761010080835404028352916020019161045c565b820191906000526020600020905b81548152906001019060200180831161043f57829003601f168201915b50509250505060405180910390fd5b50610474612535565b60405180610100016040528060008152602001600015158152602001600081526020016000815260200160008152602001600081526020016000815260200160008152509050604051806101000160405280876001600160a01b03168152602001866001600160a01b031681526020018281526020016000151581526020018581526020018415158152602001600081526020014281525060026000600380549050815260200190815260200160002060008201518160000160006101000a8154816001600160a01b0302191690836001600160a01b0316021790555060208201518160010160006101000a8154816001600160a01b0302191690836001600160a01b031602179055506040820151816002016000820151816000015560208201518160010160006101000a81548160ff02191690831515021790555060408201518160020155606082015181600301556080820151816004015560a0820151816005015560c0820151816006015560e082015181600701555050606082015181600a0160006101000a81548160ff021916908315150217905550608082015181600b015560a082015181600c0160006101000a81548160ff02191690831515021790555060c082015181600d015560e082015181600e015590505060038054905091506003869080600181540180825580915050600190039060005260206000200160009091909190916101000a8154816001600160a01b0302191690836001600160a01b0316021790555050949350505050565b6000806000806106b861257c565b50505060009283525050600260208181526040928390208351610100808201865282546001600160a01b03908116835260018401541682850190815286519182018752948301548152600383015460ff90811615159482019490945260048301548187015260058301546060808301919091526006840154608080840191909152600785015460a080850191909152600886015460c080860191909152600987015460e08087019190915299860194909452600a8601548716151592850192909252600b85015490840152600c840154909416151593820193909352600d820154928101839052600e90910154938101849052519151919391929091565b60006107f8629896806107f2633b9aca006107ec6107d387611c2e565b6000888152600260208190526040909120015490611ce4565b90611d3d565b90611d97565b60008381526002602052604090206007015490915081101561082857506000818152600260205260409020600701545b919050565b60006001600160a01b03841661085e5760405162461bcd60e51b8152600401610855906128aa565b60405180910390fd5b61086661257c565b5060008381526002602081815260408084208151610100808201845282546001600160a01b0390811683526001840154168286015283519081018452828601548152600383015460ff90811615158287015260048401548286015260058401546060808401919091526006850154608080850191909152600786015460a080860191909152600887015460c080870191909152600988015460e08088019190915298870195909552600a870154841680151593870193909352600b87015491860191909152600c860154909216151591840191909152600d84015491830191909152600e909201549281019290925293879052919052906109795760405162461bcd60e51b815260040161085590612918565b80604001516080015142106109a05760405162461bcd60e51b81526004016108559061294f565b7f8f0783a6c1cb2d85a903a2db160118a565dc172b5e4da3d75733b7b5995a0fa1846109cb86610e4a565b6109d4876107b6565b6109dd88611c2e565b6040516109ed9493929190612acf565b60405180910390a16109fe84611dd9565b806040015160e001518160c001511115610a2a5760405162461bcd60e51b8152600401610855906128e1565b610a3384611e1d565b861015610a525760405162461bcd60e51b8152600401610855906129f4565b805160405163f182178360e01b81526000916001600160a01b037f0000000000000000000000000000000000000000000000000000000000000000169163f182178391610aa3918c906004016127e6565b60206040518083038186803b158015610abb57600080fd5b505afa158015610acf573d6000803e3d6000fd5b505050506040513d601f19601f82011682018060405250810190610af3919061267d565b90506000610b018287611442565b90508260a0015115610b4a578083608001511015610b315760405162461bcd60e51b81526004016108559061294f565b6080830151610b409082611f85565b6080840152610b83565b8883608001511015610b6e5760405162461bcd60e51b81526004016108559061294f565b6080830151610b7d908a611f85565b60808401525b62989680811015610ba65760405162461bcd60e51b8152600401610855906129bd565b610baf866111c6565b811115610bce5760405162461bcd60e51b815260040161085590612a37565b8251610be5906001600160a01b031633308c611fc7565b825160405163095ea7b360e01b81526001600160a01b039091169063095ea7b390610c36907f0000000000000000000000000000000000000000000000000000000000000000908d906004016127e6565b602060405180830381600087803b158015610c5057600080fd5b505af1158015610c64573d6000803e3d6000fd5b505050506040513d601f19601f82011682018060405250810190610c889190612649565b50825160405163bc157ac160e01b81526001600160a01b037f0000000000000000000000000000000000000000000000000000000000000000169163bc157ac191610cd9918d918790600401612ab0565b602060405180830381600087803b158015610cf357600080fd5b505af1158015610d07573d6000803e3d6000fd5b505050506040513d601f19601f82011682018060405250810190610d2b919061267d565b5060c0830151610d3b9083611d3d565b600087815260026020526040808220600d01929092558482015190910151610d639042611d3d565b9050836040015160200151610d7d57506040830151606001515b600460009054906101000a90046001600160a01b03166001600160a01b031663a729e9c1888a87600001518e87878d6040518863ffffffff1660e01b8152600401610dce9796959493929190612a77565b600060405180830381600087803b158015610de857600080fd5b505af1158015610dfc573d6000803e3d6000fd5b505050507f6671c52657539dfe32e25a5646170ce70ec6adfebf197a90845ab3ec1e42569c878b8484604051610e359493929190612acf565b60405180910390a15098975050505050505050565b6000610e5461257c565b506000828152600260208181526040928390208351610100808201865282546001600160a01b0390811683526001840154811683860190815287519283018852958401548252600384015460ff90811615159583019590955260048401548288015260058401546060808401919091526006850154608080850191909152600786015460a080860191909152600887015460c080870191909152600988015460e0808801919091529a870195909552600a8701548816151592860192909252600b86015490850152600c850154909516151594830194909452600d83015490820152600e909101549381019390935290511615610fed57610fe660646107f283602001516001600160a01b03166332da80a385600001516040518263ffffffff1660e01b8152600401610f8791906127a9565b60206040518083038186803b158015610f9f57600080fd5b505afa158015610fb3573d6000803e3d6000fd5b505050506040513d601f19601f82011682018060405250810190610fd7919061267d565b610fe0876107b6565b90611ce4565b915061107c565b61107960646107f283600001516001600160a01b031663313ce5676040518163ffffffff1660e01b815260040160206040518083038186803b15801561103257600080fd5b505afa158015611046573d6000803e3d6000fd5b505050506040513d601f19601f8201168201806040525081019061106a9190612782565b60ff16600a0a610fe0876107b6565b91505b50919050565b600160009054906101000a90046001600160a01b03166001600160a01b0316630c340a246040518163ffffffff1660e01b815260040160206040518083038186803b1580156110d057600080fd5b505afa1580156110e4573d6000803e3d6000fd5b505050506040513d60208110156110fa57600080fd5b50516000906001600160a01b0316331461116d5760405162461bcd60e51b815260206004820190815282546002600019610100600184161502019091160460248301819052909182916044909101908490801561045c5780601f106104315761010080835404028352916020019161045c565b506004546001600160a01b03161561118457600080fd5b6001600160a01b03811661119757600080fd5b6004805473ffffffffffffffffffffffffffffffffffffffff19166001600160a01b0392909216919091179055565b600061127d620186a06107f260026000868152602001908152602001600020600201600601547f00000000000000000000000000000000000000000000000000000000000000006001600160a01b031663860f50486040518163ffffffff1660e01b815260040160206040518083038186803b15801561124557600080fd5b505afa158015611259573d6000803e3d6000fd5b505050506040513d601f19601f82011682018060405250810190610fe0919061267d565b92915050565b6004546001600160a01b031681565b60026020818152600092835260409283902080546001820154855161010081018752948301548552600383015460ff9081161515948601949094526004830154958501959095526005820154606085015260068201546080850152600782015460a0850152600882015460c0850152600982015460e0850152600a820154600b830154600c840154600d850154600e909501546001600160a01b0394851698909416969592831694919392169188565b600160009054906101000a90046001600160a01b03166001600160a01b031663452a93206040518163ffffffff1660e01b815260040160206040518083038186803b15801561139057600080fd5b505afa1580156113a4573d6000803e3d6000fd5b505050506040513d60208110156113ba57600080fd5b50516000906001600160a01b0316331461142d5760405162461bcd60e51b815260206004820190815282546002600019610100600184161502019091160460248301819052909182916044909101908490801561045c5780601f106104315761010080835404028352916020019161045c565b506000908152600260205260408120600b0155565b6000611469662386f26fc100006107f26114648661145f876107b6565b61213a565b6122bc565b9392505050565b600160009054906101000a90046001600160a01b03166001600160a01b0316630c340a246040518163ffffffff1660e01b815260040160206040518083038186803b1580156114be57600080fd5b505afa1580156114d2573d6000803e3d6000fd5b505050506040513d60208110156114e857600080fd5b50516000906001600160a01b0316331461155b5760405162461bcd60e51b815260206004820190815282546002600019610100600184161502019091160460248301819052909182916044909101908490801561045c5780601f106104315761010080835404028352916020019161045c565b506001805473ffffffffffffffffffffffffffffffffffffffff19166001600160a01b0383169081179091556040517f2f658b440c35314f52658ea8a740e05b284cdc84dc9ae01e891f21b8933e7cad90600090a250565b60008181526002602052604080822054905163f182178360e01b81526001600160a01b0391821691611670917f00000000000000000000000000000000000000000000000000000000000000009091169063f18217839061161a90859089906004016127e6565b60206040518083038186803b15801561163257600080fd5b505afa158015611646573d6000803e3d6000fd5b505050506040513d601f19601f8201168201806040525081019061166a919061267d565b84611442565b949350505050565b600061168261257c565b506000828152600260208181526040928390208351610100808201865282546001600160a01b0390811683526001840154811683860190815287519283018852958401548252600384015460ff90811615159583019590955260048401548288015260058401546060808401919091526006850154608080850191909152600786015460a080860191909152600887015460c080870191909152600988015460e0808801919091529a870195909552600a8701548816151592860192909252600b86015490850152600c850154909516151594830194909452600d83015490820152600e90910154938101939093529051161561181957611811633b9aca006107f283602001516001600160a01b03166332da80a385600001516040518263ffffffff1660e01b81526004016117b891906127a9565b60206040518083038186803b1580156117d057600080fd5b505afa1580156117e4573d6000803e3d6000fd5b505050506040513d601f19601f82011682018060405250810190611808919061267d565b610fe087611c2e565b915050610828565b61181183611c2e565b600160009054906101000a90046001600160a01b03166001600160a01b031663452a93206040518163ffffffff1660e01b815260040160206040518083038186803b15801561187057600080fd5b505afa158015611884573d6000803e3d6000fd5b505050506040513d602081101561189a57600080fd5b50516000906001600160a01b0316331461190d5760405162461bcd60e51b815260206004820190815282546002600019610100600184161502019091160460248301819052909182916044909101908490801561045c5780601f106104315761010080835404028352916020019161045c565b5060008a8152600260205260409020600a015460ff16156119405760405162461bcd60e51b815260040161085590612986565b611948612535565b506040805161010081018252998a529715156020808b019182528a8a0198895260608b0197885260808b0196875260a08b0195865260c08b0194855260e08b0193845260009b8c5260029081905298909a20985197890197909755975160038801805491151560ff1992831617905594516004880155925160058701559051600686015551600785015551600884015592516009830155600d820155600a0180549091166001179055565b6000806000806000611a03612535565b505050600093845250506002602081815260409384902084516101008101865292810154808452600382015460ff1615159284019290925260048101549483018590526005810154606084015260068101546080840152600781015460a08401819052600882015460c0850181905260099092015460e090940184905291959193509190565b6000611a9361257c565b5060008281526002602081815260408084208151610100808201845282546001600160a01b0390811683526001840154168286015283519081018452948201548552600382015460ff90811615159486019490945260048201548584015260058201546060808701919091526006830154608080880191909152600784015460a080890191909152600885015460c0808a0191909152600986015460e0808b019190915296850198909852600a8501548716151592840192909252600b84015490830152600c830154909416151593810193909352600d81015493830193909352600e909201549181018290529190611b8d904290611f85565b9050611bb28260400151604001516107f2838560c00151611ce490919063ffffffff16565b92508160c00151831115611bc8578160c0015192505b5050919050565b600061127d611bdd83611a89565b6000848152600260205260409020600d015490611f85565b6001546001600160a01b031681565b60038181548110611c1457600080fd5b6000918252602090912001546001600160a01b0316905081565b600061127d670de0b6b3a76400006107f2611464611c53633b9aca00610fe088611bcf565b7f00000000000000000000000000000000000000000000000000000000000000006001600160a01b031663860f50486040518163ffffffff1660e01b815260040160206040518083038186803b158015611cac57600080fd5b505afa158015611cc0573d6000803e3d6000fd5b505050506040513d601f19601f8201168201806040525081019061145f919061267d565b600082611cf35750600061127d565b82820282848281611d0057fe5b04146114695760405162461bcd60e51b8152600401808060200182810382526021815260200180612b5a6021913960400191505060405180910390fd5b600082820183811015611469576040805162461bcd60e51b815260206004820152601b60248201527f536166654d6174683a206164646974696f6e206f766572666c6f770000000000604482015290519081900360640190fd5b600061146983836040518060400160405280601a81526020017f536166654d6174683a206469766973696f6e206279207a65726f0000000000008152506122d4565b611dfd611de582611a89565b6000838152600260205260409020600d015490611f85565b600091825260026020526040909120600d81019190915542600e90910155565b6000611e2761257c565b506000828152600260208181526040928390208351610100808201865282546001600160a01b0390811683526001840154168285015285519081018652938201548452600382015460ff90811615159385019390935260048201548486015260058201546060808601919091526006830154608080870191909152600784015460a080880191909152600885015460c080890191909152600986015460e0808a019190915298850197909752600a8501548616151592840192909252600b84015490830152600c830154909316151592810192909252600d81015492820192909252600e9091015491810191909152611f3d629896806107f2633b9aca006107ec611f3188611c2e565b60408701515190611ce4565b9150806040015160a00151821015611f5f57806040015160a00151915061107c565b604081015160a001511561107c5760008381526002602052604081206007015550919050565b600061146983836040518060400160405280601e81526020017f536166654d6174683a207375627472616374696f6e206f766572666c6f770000815250612385565b604080516001600160a01b0385811660248301528481166044830152606480830185905283518084039091018152608490920183526020820180516001600160e01b03166323b872dd60e01b17815292518251600094606094938a169392918291908083835b6020831061204c5780518252601f19909201916020918201910161202d565b6001836020036101000a0380198251168184511680821785525050505050509050019150506000604051808303816000865af19150503d80600081146120ae576040519150601f19603f3d011682016040523d82523d6000602084013e6120b3565b606091505b50915091508180156120e15750805115806120e157508080602001905160208110156120de57600080fd5b50515b612132576040805162461bcd60e51b815260206004820152601460248201527f5452414e534645525f46524f4d5f4641494c4544000000000000000000000000604482015290519081900360640190fd5b505050505050565b6121426125c9565b600082116121815760405162461bcd60e51b8152600401808060200182810382526026815260200180612b346026913960400191505060405180910390fd5b8261219b575060408051602081019091526000815261127d565b71ffffffffffffffffffffffffffffffffffff831161224257600082607085901b816121c357fe5b0490506001600160e01b03811115612222576040805162461bcd60e51b815260206004820152601e60248201527f4669786564506f696e743a3a6672616374696f6e3a206f766572666c6f770000604482015290519081900360640190fd5b6040518060200160405280826001600160e01b031681525091505061127d565b600061225e846e010000000000000000000000000000856123df565b90506001600160e01b03811115612222576040805162461bcd60e51b815260206004820152601e60248201527f4669786564506f696e743a3a6672616374696f6e3a206f766572666c6f770000604482015290519081900360640190fd5b516612725dd1d243ab6001600160e01b039091160490565b600081836123605760405162461bcd60e51b81526004018080602001828103825283818151815260200191508051906020019080838360005b8381101561232557818101518382015260200161230d565b50505050905090810190601f1680156123525780820380516001836020036101000a031916815260200191505b509250505060405180910390fd5b50600083858161236c57fe5b04905083858161237857fe5b0681850201851461167057fe5b600081848411156123d75760405162461bcd60e51b815260206004820181815283516024840152835190928392604490910191908501908083836000831561232557818101518382015260200161230d565b505050900390565b60008060006123ee8686612498565b91509150600084806123fc57fe5b868809905082811115612410576001820391505b91829003918161242e5784838161242357fe5b049350505050611469565b848210612482576040805162461bcd60e51b815260206004820152601a60248201527f46756c6c4d6174683a2046554c4c4449565f4f564552464c4f57000000000000604482015290519081900360640190fd5b61248d8383876124c5565b979650505050505050565b60008080600019848609905083850292508281039150828110156124bd576001820391505b509250929050565b600081810382168083816124d557fe5b0492508085816124e157fe5b0494508081600003816124f057fe5b60028581038087028203028087028203028087028203028087028203028087028203028087028203029586029003909402930460010193909302939093010292915050565b604051806101000160405280600081526020016000151581526020016000815260200160008152602001600081526020016000815260200160008152602001600081525090565b60408051610100810182526000808252602082015290810161259c612535565b81526020016000151581526020016000815260200160001515815260200160008152602001600081525090565b60408051602081019091526000815290565b6000602082840312156125ec578081fd5b813561146981612b0d565b6000806000806080858703121561260c578283fd5b843561261781612b0d565b9350602085013561262781612b0d565b925060408501359150606085013561263e81612b25565b939692955090935050565b60006020828403121561265a578081fd5b815161146981612b25565b600060208284031215612676578081fd5b5035919050565b60006020828403121561268e578081fd5b5051919050565b600080604083850312156126a7578182fd5b50508035926020909101359150565b600080600080600060a086880312156126cd578081fd5b853594506020860135935060408601356126e681612b0d565b92506060860135915060808601356126fd81612b0d565b809150509295509295909350565b6000806000806000806000806000806101408b8d03121561272a578485fd5b8a35995060208b0135985060408b013561274381612b25565b999c989b5098996060810135995060808101359860a0820135985060c0820135975060e082013596506101008201359550610120909101359350915050565b600060208284031215612793578081fd5b815160ff81168114611469578182fd5b15159052565b6001600160a01b0391909116815260200190565b6001600160a01b0394851681529290931660208301526040820152606081019190915260800190565b6001600160a01b03929092168252602082015260400190565b60006101e0820190506001600160a01b03808b168352808a166020840152508751604083015260208801511515606083015260408801516080830152606088015160a0830152608088015160c083015260a088015160e083015260c088015161010083015260e088015161012083015261287d6101408301886127a3565b856101608301526128926101808301866127a3565b6101a08201939093526101c001529695505050505050565b6020808252600f908201527f496e76616c696420616464726573730000000000000000000000000000000000604082015260600190565b60208082526011908201527f4d61782064656274206578636565646564000000000000000000000000000000604082015260600190565b6020808252600f908201527f4e6f7420696e697469616c697a65640000000000000000000000000000000000604082015260600190565b6020808252600e908201527f426f6e6420636f6e636c75646564000000000000000000000000000000000000604082015260600190565b6020808252600b908201527f416c726561647920736574000000000000000000000000000000000000000000604082015260600190565b6020808252600e908201527f426f6e6420746f6f20736d616c6c000000000000000000000000000000000000604082015260600190565b60208082526023908201527f536c697070616765206c696d69743a206d6f7265207468616e206d617820707260408201526269636560e81b606082015260800190565b6020808252600e908201527f426f6e6420746f6f206c61726765000000000000000000000000000000000000604082015260600190565b90815260200190565b9687526001600160a01b03958616602088015293851660408701526060860192909252608085015260a08401521660c082015260e00190565b9283526001600160a01b03919091166020830152604082015260600190565b93845260208401929092526040830152606082015260800190565b948552602085019390935260408401919091526060830152608082015260a00190565b6001600160a01b0381168114612b2257600080fd5b50565b8015158114612b2257600080fdfe4669786564506f696e743a3a6672616374696f6e3a206469766973696f6e206279207a65726f536166654d6174683a206d756c7469706c69636174696f6e206f766572666c6f77a164736f6c6343000705000a",
  "devdoc": {
    "kind": "dev",
    "methods": {
      "addBond(address,address,uint256,bool)": {
        "params": {
          "_calculator": "address",
          "_capacity": "uint",
          "_capacityIsPayout": "bool",
          "_principal": "address"
        }
      },
      "bondInfo(uint256)": {
        "params": {
          "_BID": "uint"
        },
        "returns": {
          "calculator_": "address",
          "lastBondCreatedAt_": "uint",
          "principal_": "address",
          "totalDebt_": "uint"
        }
      },
      "bondPrice(uint256)": {
        "params": {
          "_BID": "uint"
        },
        "returns": {
          "price_": "uint"
        }
      },
      "bondPriceInUSD(uint256)": {
        "params": {
          "_BID": "uint"
        },
        "returns": {
          "price_": "uint"
        }
      },
      "bondTerms(uint256)": {
        "params": {
          "_BID": "uint"
        },
        "returns": {
          "controlVariable_": "uint",
          "maxDebt_": "uint",
          "maxPayout_": "uint",
          "minimumPrice_": "uint",
          "vestingTerm_": "uint"
        }
      },
      "currentDebt(uint256)": {
        "params": {
          "_BID": "uint"
        },
        "returns": {
          "_0": "uint"
        }
      },
      "debtDecay(uint256)": {
        "params": {
          "_BID": "uint"
        },
        "returns": {
          "decay_": "uint"
        }
      },
      "debtRatio(uint256)": {
        "params": {
          "_BID": "uint"
        },
        "returns": {
          "debtRatio_": "uint"
        }
      },
      "deposit(uint256,uint256,address,uint256,address)": {
        "params": {
          "_BID": "uint",
          "_amount": "uint",
          "_depositor": "address",
          "_feo": "address",
          "_maxPrice": "uint"
        },
        "returns": {
          "_0": "uint256"
        }
      },
      "deprecateBond(uint256)": {
        "params": {
          "_id": "uint"
        }
      },
      "maxPayout(uint256)": {
        "params": {
          "_BID": "uint"
        },
        "returns": {
          "_0": "uint"
        }
      },
      "payoutFor(uint256,uint256)": {
        "params": {
          "_BID": "uint",
          "_value": "uint"
        },
        "returns": {
          "_0": "uint"
        }
      },
      "payoutForAmount(uint256,uint256)": {
        "params": {
          "_BID": "uint",
          "_amount": "uint"
        }
      },
      "setTeller(address)": {
        "params": {
          "_teller": "address"
        }
      },
      "setTerms(uint256,uint256,bool,uint256,uint256,uint256,uint256,uint256,uint256,uint256)": {
        "params": {
          "_conclusion": "uint",
          "_controlVariable": "uint",
          "_expiration": "uint",
          "_fixedTerm": "bool",
          "_id": "uint",
          "_initialDebt": "uint",
          "_maxDebt": "uint",
          "_maxPayout": "uint",
          "_minimumPrice": "uint",
          "_vestingTerm": "uint"
        }
      },
      "standardizedDebtRatio(uint256)": {
        "returns": {
          "_0": "uint"
        }
      }
    },
    "version": 1
  },
  "userdoc": {
    "kind": "user",
    "methods": {
      "addBond(address,address,uint256,bool)": {
        "notice": "creates a new bond type"
      },
      "bondInfo(uint256)": {
        "notice": "returns data about a bond type"
      },
      "bondPrice(uint256)": {
        "notice": "calculate current bond premium"
      },
      "bondPriceInUSD(uint256)": {
        "notice": "converts bond price to DAI value"
      },
      "bondTerms(uint256)": {
        "notice": "returns terms for a bond type"
      },
      "currentDebt(uint256)": {
        "notice": "calculate debt factoring in decay"
      },
      "debtDecay(uint256)": {
        "notice": "amount to decay total debt by"
      },
      "debtRatio(uint256)": {
        "notice": "calculate current ratio of debt to QUAS supply"
      },
      "deposit(uint256,uint256,address,uint256,address)": {
        "notice": "deposit bond"
      },
      "deprecateBond(uint256)": {
        "notice": "disable existing bond"
      },
      "maxPayout(uint256)": {
        "notice": "determine maximum bond size"
      },
      "payoutFor(uint256,uint256)": {
        "notice": "payout due for amount of treasury value"
      },
      "payoutForAmount(uint256,uint256)": {
        "notice": "payout due for amount of token"
      },
      "setTeller(address)": {
        "notice": "set teller contract"
      },
      "setTerms(uint256,uint256,bool,uint256,uint256,uint256,uint256,uint256,uint256,uint256)": {
        "notice": "set minimum price for new bond"
      },
      "standardizedDebtRatio(uint256)": {
        "notice": "debt ratio in same terms for reserve or liquidity bonds"
      }
    },
    "version": 1
  },
  "storageLayout": {
    "storage": [
      {
        "astId": 11094,
        "contract": "contracts/BondDepository.sol:QuasarBondDepository",
        "label": "UNAUTHORIZED",
        "offset": 0,
        "slot": "0",
        "type": "t_string_storage"
      },
      {
        "astId": 11096,
        "contract": "contracts/BondDepository.sol:QuasarBondDepository",
        "label": "authority",
        "offset": 0,
        "slot": "1",
        "type": "t_contract(IQuasarAuthority)7384"
      },
      {
        "astId": 89,
        "contract": "contracts/BondDepository.sol:QuasarBondDepository",
        "label": "bonds",
        "offset": 0,
        "slot": "2",
        "type": "t_mapping(t_uint256,t_struct(Bond)68_storage)"
      },
      {
        "astId": 92,
        "contract": "contracts/BondDepository.sol:QuasarBondDepository",
        "label": "IDs",
        "offset": 0,
        "slot": "3",
        "type": "t_array(t_address)dyn_storage"
      },
      {
        "astId": 94,
        "contract": "contracts/BondDepository.sol:QuasarBondDepository",
        "label": "teller",
        "offset": 0,
        "slot": "4",
        "type": "t_contract(ITeller)7534"
      }
    ],
    "types": {
      "t_address": {
        "encoding": "inplace",
        "label": "address",
        "numberOfBytes": "20"
      },
      "t_array(t_address)dyn_storage": {
        "base": "t_address",
        "encoding": "dynamic_array",
        "label": "address[]",
        "numberOfBytes": "32"
      },
      "t_bool": {
        "encoding": "inplace",
        "label": "bool",
        "numberOfBytes": "1"
      },
      "t_contract(IBondingCalculator)7069": {
        "encoding": "inplace",
        "label": "contract IBondingCalculator",
        "numberOfBytes": "20"
      },
      "t_contract(IERC20)7204": {
        "encoding": "inplace",
        "label": "contract IERC20",
        "numberOfBytes": "20"
      },
      "t_contract(IQuasarAuthority)7384": {
        "encoding": "inplace",
        "label": "contract IQuasarAuthority",
        "numberOfBytes": "20"
      },
      "t_contract(ITeller)7534": {
        "encoding": "inplace",
        "label": "contract ITeller",
        "numberOfBytes": "20"
      },
      "t_mapping(t_uint256,t_struct(Bond)68_storage)": {
        "encoding": "mapping",
        "key": "t_uint256",
        "label": "mapping(uint256 => struct QuasarBondDepository.Bond)",
        "numberOfBytes": "32",
        "value": "t_struct(Bond)68_storage"
      },
      "t_string_storage": {
        "encoding": "bytes",
        "label": "string",
        "numberOfBytes": "32"
      },
      "t_struct(Bond)68_storage": {
        "encoding": "inplace",
        "label": "struct QuasarBondDepository.Bond",
        "members": [
          {
            "astId": 53,
            "contract": "contracts/BondDepository.sol:QuasarBondDepository",
            "label": "principal",
            "offset": 0,
            "slot": "0",
            "type": "t_contract(IERC20)7204"
          },
          {
            "astId": 55,
            "contract": "contracts/BondDepository.sol:QuasarBondDepository",
            "label": "calculator",
            "offset": 0,
            "slot": "1",
            "type": "t_contract(IBondingCalculator)7069"
          },
          {
            "astId": 57,
            "contract": "contracts/BondDepository.sol:QuasarBondDepository",
            "label": "terms",
            "offset": 0,
            "slot": "2",
            "type": "t_struct(Terms)85_storage"
          },
          {
            "astId": 59,
            "contract": "contracts/BondDepository.sol:QuasarBondDepository",
            "label": "termsSet",
            "offset": 0,
            "slot": "10",
            "type": "t_bool"
          },
          {
            "astId": 61,
            "contract": "contracts/BondDepository.sol:QuasarBondDepository",
            "label": "capacity",
            "offset": 0,
            "slot": "11",
            "type": "t_uint256"
          },
          {
            "astId": 63,
            "contract": "contracts/BondDepository.sol:QuasarBondDepository",
            "label": "capacityIsPayout",
            "offset": 0,
            "slot": "12",
            "type": "t_bool"
          },
          {
            "astId": 65,
            "contract": "contracts/BondDepository.sol:QuasarBondDepository",
            "label": "totalDebt",
            "offset": 0,
            "slot": "13",
            "type": "t_uint256"
          },
          {
            "astId": 67,
            "contract": "contracts/BondDepository.sol:QuasarBondDepository",
            "label": "lastDecay",
            "offset": 0,
            "slot": "14",
            "type": "t_uint256"
          }
        ],
        "numberOfBytes": "480"
      },
      "t_struct(Terms)85_storage": {
        "encoding": "inplace",
        "label": "struct QuasarBondDepository.Terms",
        "members": [
          {
            "astId": 70,
            "contract": "contracts/BondDepository.sol:QuasarBondDepository",
            "label": "controlVariable",
            "offset": 0,
            "slot": "0",
            "type": "t_uint256"
          },
          {
            "astId": 72,
            "contract": "contracts/BondDepository.sol:QuasarBondDepository",
            "label": "fixedTerm",
            "offset": 0,
            "slot": "1",
            "type": "t_bool"
          },
          {
            "astId": 74,
            "contract": "contracts/BondDepository.sol:QuasarBondDepository",
            "label": "vestingTerm",
            "offset": 0,
            "slot": "2",
            "type": "t_uint256"
          },
          {
            "astId": 76,
            "contract": "contracts/BondDepository.sol:QuasarBondDepository",
            "label": "expiration",
            "offset": 0,
            "slot": "3",
            "type": "t_uint256"
          },
          {
            "astId": 78,
            "contract": "contracts/BondDepository.sol:QuasarBondDepository",
            "label": "conclusion",
            "offset": 0,
            "slot": "4",
            "type": "t_uint256"
          },
          {
            "astId": 80,
            "contract": "contracts/BondDepository.sol:QuasarBondDepository",
            "label": "minimumPrice",
            "offset": 0,
            "slot": "5",
            "type": "t_uint256"
          },
          {
            "astId": 82,
            "contract": "contracts/BondDepository.sol:QuasarBondDepository",
            "label": "maxPayout",
            "offset": 0,
            "slot": "6",
            "type": "t_uint256"
          },
          {
            "astId": 84,
            "contract": "contracts/BondDepository.sol:QuasarBondDepository",
            "label": "maxDebt",
            "offset": 0,
            "slot": "7",
            "type": "t_uint256"
          }
        ],
        "numberOfBytes": "256"
      },
      "t_uint256": {
        "encoding": "inplace",
        "label": "uint256",
        "numberOfBytes": "32"
      }
    }
  }
}