{
  "address": "0x4DD12d1DA20F90B95687a12c83A65E68bFFc7d91",
  "abi": [
    {
      "inputs": [],
      "stateMutability": "nonpayable",
      "type": "constructor"
    },
    {
      "anonymous": false,
      "inputs": [
        {
          "indexed": true,
          "internalType": "address",
          "name": "owner",
          "type": "address"
        },
        {
          "indexed": true,
          "internalType": "address",
          "name": "spender",
          "type": "address"
        },
        {
          "indexed": false,
          "internalType": "uint256",
          "name": "value",
          "type": "uint256"
        }
      ],
      "name": "Approval",
      "type": "event"
    },
    {
      "anonymous": false,
      "inputs": [
        {
          "indexed": true,
          "internalType": "uint256",
          "name": "epoch",
          "type": "uint256"
        },
        {
          "indexed": false,
          "internalType": "uint256",
          "name": "rebase",
          "type": "uint256"
        },
        {
          "indexed": false,
          "internalType": "uint256",
          "name": "index",
          "type": "uint256"
        }
      ],
      "name": "LogRebase",
      "type": "event"
    },
    {
      "anonymous": false,
      "inputs": [
        {
          "indexed": false,
          "internalType": "address",
          "name": "stakingContract",
          "type": "address"
        }
      ],
      "name": "LogStakingContractUpdated",
      "type": "event"
    },
    {
      "anonymous": false,
      "inputs": [
        {
          "indexed": true,
          "internalType": "uint256",
          "name": "epoch",
          "type": "uint256"
        },
        {
          "indexed": false,
          "internalType": "uint256",
          "name": "totalSupply",
          "type": "uint256"
        }
      ],
      "name": "LogSupply",
      "type": "event"
    },
    {
      "anonymous": false,
      "inputs": [
        {
          "indexed": true,
          "internalType": "address",
          "name": "from",
          "type": "address"
        },
        {
          "indexed": true,
          "internalType": "address",
          "name": "to",
          "type": "address"
        },
        {
          "indexed": false,
          "internalType": "uint256",
          "name": "value",
          "type": "uint256"
        }
      ],
      "name": "Transfer",
      "type": "event"
    },
    {
      "inputs": [],
      "name": "DOMAIN_SEPARATOR",
      "outputs": [
        {
          "internalType": "bytes32",
          "name": "",
          "type": "bytes32"
        }
      ],
      "stateMutability": "view",
      "type": "function"
    },
    {
      "inputs": [
        {
          "internalType": "address",
          "name": "owner_",
          "type": "address"
        },
        {
          "internalType": "address",
          "name": "spender",
          "type": "address"
        }
      ],
      "name": "allowance",
      "outputs": [
        {
          "internalType": "uint256",
          "name": "",
          "type": "uint256"
        }
      ],
      "stateMutability": "view",
      "type": "function"
    },
    {
      "inputs": [
        {
          "internalType": "address",
          "name": "spender",
          "type": "address"
        },
        {
          "internalType": "uint256",
          "name": "value",
          "type": "uint256"
        }
      ],
      "name": "approve",
      "outputs": [
        {
          "internalType": "bool",
          "name": "",
          "type": "bool"
        }
      ],
      "stateMutability": "nonpayable",
      "type": "function"
    },
    {
      "inputs": [
        {
          "internalType": "uint256",
          "name": "gons",
          "type": "uint256"
        }
      ],
      "name": "balanceForGons",
      "outputs": [
        {
          "internalType": "uint256",
          "name": "",
          "type": "uint256"
        }
      ],
      "stateMutability": "view",
      "type": "function"
    },
    {
      "inputs": [
        {
          "internalType": "address",
          "name": "who",
          "type": "address"
        }
      ],
      "name": "balanceOf",
      "outputs": [
        {
          "internalType": "uint256",
          "name": "",
          "type": "uint256"
        }
      ],
      "stateMutability": "view",
      "type": "function"
    },
    {
      "inputs": [
        {
          "internalType": "uint256",
          "name": "amount",
          "type": "uint256"
        },
        {
          "internalType": "address",
          "name": "debtor",
          "type": "address"
        },
        {
          "internalType": "bool",
          "name": "add",
          "type": "bool"
        }
      ],
      "name": "changeDebt",
      "outputs": [],
      "stateMutability": "nonpayable",
      "type": "function"
    },
    {
      "inputs": [],
      "name": "circulatingSupply",
      "outputs": [
        {
          "internalType": "uint256",
          "name": "",
          "type": "uint256"
        }
      ],
      "stateMutability": "view",
      "type": "function"
    },
    {
      "inputs": [
        {
          "internalType": "address",
          "name": "",
          "type": "address"
        }
      ],
      "name": "debtBalances",
      "outputs": [
        {
          "internalType": "uint256",
          "name": "",
          "type": "uint256"
        }
      ],
      "stateMutability": "view",
      "type": "function"
    },
    {
      "inputs": [],
      "name": "decimals",
      "outputs": [
        {
          "internalType": "uint8",
          "name": "",
          "type": "uint8"
        }
      ],
      "stateMutability": "view",
      "type": "function"
    },
    {
      "inputs": [
        {
          "internalType": "address",
          "name": "spender",
          "type": "address"
        },
        {
          "internalType": "uint256",
          "name": "subtractedValue",
          "type": "uint256"
        }
      ],
      "name": "decreaseAllowance",
      "outputs": [
        {
          "internalType": "bool",
          "name": "",
          "type": "bool"
        }
      ],
      "stateMutability": "nonpayable",
      "type": "function"
    },
    {
      "inputs": [
        {
          "internalType": "uint256",
          "name": "amount",
          "type": "uint256"
        }
      ],
      "name": "fromG",
      "outputs": [
        {
          "internalType": "uint256",
          "name": "",
          "type": "uint256"
        }
      ],
      "stateMutability": "view",
      "type": "function"
    },
    {
      "inputs": [],
      "name": "gQUAS",
      "outputs": [
        {
          "internalType": "contract IgQUAS",
          "name": "",
          "type": "address"
        }
      ],
      "stateMutability": "view",
      "type": "function"
    },
    {
      "inputs": [
        {
          "internalType": "uint256",
          "name": "amount",
          "type": "uint256"
        }
      ],
      "name": "gonsForBalance",
      "outputs": [
        {
          "internalType": "uint256",
          "name": "",
          "type": "uint256"
        }
      ],
      "stateMutability": "view",
      "type": "function"
    },
    {
      "inputs": [
        {
          "internalType": "address",
          "name": "spender",
          "type": "address"
        },
        {
          "internalType": "uint256",
          "name": "addedValue",
          "type": "uint256"
        }
      ],
      "name": "increaseAllowance",
      "outputs": [
        {
          "internalType": "bool",
          "name": "",
          "type": "bool"
        }
      ],
      "stateMutability": "nonpayable",
      "type": "function"
    },
    {
      "inputs": [],
      "name": "index",
      "outputs": [
        {
          "internalType": "uint256",
          "name": "",
          "type": "uint256"
        }
      ],
      "stateMutability": "view",
      "type": "function"
    },
    {
      "inputs": [
        {
          "internalType": "address",
          "name": "_stakingContract",
          "type": "address"
        },
        {
          "internalType": "address",
          "name": "_treasury",
          "type": "address"
        }
      ],
      "name": "initialize",
      "outputs": [],
      "stateMutability": "nonpayable",
      "type": "function"
    },
    {
      "inputs": [],
      "name": "name",
      "outputs": [
        {
          "internalType": "string",
          "name": "",
          "type": "string"
        }
      ],
      "stateMutability": "view",
      "type": "function"
    },
    {
      "inputs": [
        {
          "internalType": "address",
          "name": "owner",
          "type": "address"
        }
      ],
      "name": "nonces",
      "outputs": [
        {
          "internalType": "uint256",
          "name": "",
          "type": "uint256"
        }
      ],
      "stateMutability": "view",
      "type": "function"
    },
    {
      "inputs": [
        {
          "internalType": "address",
          "name": "owner",
          "type": "address"
        },
        {
          "internalType": "address",
          "name": "spender",
          "type": "address"
        },
        {
          "internalType": "uint256",
          "name": "value",
          "type": "uint256"
        },
        {
          "internalType": "uint256",
          "name": "deadline",
          "type": "uint256"
        },
        {
          "internalType": "uint8",
          "name": "v",
          "type": "uint8"
        },
        {
          "internalType": "bytes32",
          "name": "r",
          "type": "bytes32"
        },
        {
          "internalType": "bytes32",
          "name": "s",
          "type": "bytes32"
        }
      ],
      "name": "permit",
      "outputs": [],
      "stateMutability": "nonpayable",
      "type": "function"
    },
    {
      "inputs": [
        {
          "internalType": "uint256",
          "name": "profit_",
          "type": "uint256"
        },
        {
          "internalType": "uint256",
          "name": "epoch_",
          "type": "uint256"
        }
      ],
      "name": "rebase",
      "outputs": [
        {
          "internalType": "uint256",
          "name": "",
          "type": "uint256"
        }
      ],
      "stateMutability": "nonpayable",
      "type": "function"
    },
    {
      "inputs": [
        {
          "internalType": "uint256",
          "name": "",
          "type": "uint256"
        }
      ],
      "name": "rebases",
      "outputs": [
        {
          "internalType": "uint256",
          "name": "epoch",
          "type": "uint256"
        },
        {
          "internalType": "uint256",
          "name": "rebase",
          "type": "uint256"
        },
        {
          "internalType": "uint256",
          "name": "totalStakedBefore",
          "type": "uint256"
        },
        {
          "internalType": "uint256",
          "name": "totalStakedAfter",
          "type": "uint256"
        },
        {
          "internalType": "uint256",
          "name": "amountRebased",
          "type": "uint256"
        },
        {
          "internalType": "uint256",
          "name": "index",
          "type": "uint256"
        },
        {
          "internalType": "uint256",
          "name": "blockNumberOccured",
          "type": "uint256"
        },
        {
          "internalType": "uint256",
          "name": "blockTimestampOccured",
          "type": "uint256"
        }
      ],
      "stateMutability": "view",
      "type": "function"
    },
    {
      "inputs": [
        {
          "internalType": "uint256",
          "name": "_index",
          "type": "uint256"
        }
      ],
      "name": "setIndex",
      "outputs": [],
      "stateMutability": "nonpayable",
      "type": "function"
    },
    {
      "inputs": [
        {
          "internalType": "address",
          "name": "_gQUAS",
          "type": "address"
        }
      ],
      "name": "setgQUAS",
      "outputs": [],
      "stateMutability": "nonpayable",
      "type": "function"
    },
    {
      "inputs": [],
      "name": "stakingContract",
      "outputs": [
        {
          "internalType": "address",
          "name": "",
          "type": "address"
        }
      ],
      "stateMutability": "view",
      "type": "function"
    },
    {
      "inputs": [],
      "name": "symbol",
      "outputs": [
        {
          "internalType": "string",
          "name": "",
          "type": "string"
        }
      ],
      "stateMutability": "view",
      "type": "function"
    },
    {
      "inputs": [
        {
          "internalType": "uint256",
          "name": "amount",
          "type": "uint256"
        }
      ],
      "name": "toG",
      "outputs": [
        {
          "internalType": "uint256",
          "name": "",
          "type": "uint256"
        }
      ],
      "stateMutability": "view",
      "type": "function"
    },
    {
      "inputs": [],
      "name": "totalSupply",
      "outputs": [
        {
          "internalType": "uint256",
          "name": "",
          "type": "uint256"
        }
      ],
      "stateMutability": "view",
      "type": "function"
    },
    {
      "inputs": [
        {
          "internalType": "address",
          "name": "to",
          "type": "address"
        },
        {
          "internalType": "uint256",
          "name": "value",
          "type": "uint256"
        }
      ],
      "name": "transfer",
      "outputs": [
        {
          "internalType": "bool",
          "name": "",
          "type": "bool"
        }
      ],
      "stateMutability": "nonpayable",
      "type": "function"
    },
    {
      "inputs": [
        {
          "internalType": "address",
          "name": "from",
          "type": "address"
        },
        {
          "internalType": "address",
          "name": "to",
          "type": "address"
        },
        {
          "internalType": "uint256",
          "name": "value",
          "type": "uint256"
        }
      ],
      "name": "transferFrom",
      "outputs": [
        {
          "internalType": "bool",
          "name": "",
          "type": "bool"
        }
      ],
      "stateMutability": "nonpayable",
      "type": "function"
    },
    {
      "inputs": [],
      "name": "treasury",
      "outputs": [
        {
          "internalType": "address",
          "name": "",
          "type": "address"
        }
      ],
      "stateMutability": "view",
      "type": "function"
    }
  ],
  "transactionHash": "0xd4bc62be542355aad681e41edbfe05bd503f6f28f25ae9d088881162321e61f2",
  "args": [],
  "numDeployments": 1,
  "solcInputHash": "738a2335619ff75761cabf0c79c1824c",
  "bytecode": "0x6101606040527f6e71edae12b1b97f4d1f60370fef10105fa2faae0126114a169c64845d6126c9610140523480156200003757600080fd5b506040518060400160405280600b81526020016a5374616b6564205155415360a81b81525080604051806040016040528060018152602001603160f81b8152506040518060400160405280600b81526020016a5374616b6564205155415360a81b81525060405180604001604052806005815260200164735155415360d81b81525060098260039080519060200190620000d392919062000317565b508151620000e990600490602085019062000317565b5060f81b7fff00000000000000000000000000000000000000000000000000000000000000166080525050815160208084019190912082519183019190912060e08290526101008190524660c081905291907f8b73c3c69bb8fe3d512ecc4cf759cc79239f7b179b0ffacaa9a75d522b39400f62000169818484620001c1565b60a052610120525050600680546001600160a01b0319163317905550506611c37937e080006002819055620001b8925090508060001906600019036200020660201b620017001790919060201c565b600b55620003c3565b604080516020808201959095528082019390935260608301919091524660808301523060a0808401919091528151808403909101815260c09092019052805191012090565b60006200025083836040518060400160405280601a81526020017f536166654d6174683a206469766973696f6e206279207a65726f0000000000008152506200025760201b60201c565b9392505050565b60008183620002e75760405162461bcd60e51b81526004018080602001828103825283818151815260200191508051906020019080838360005b83811015620002ab57818101518382015260200162000291565b50505050905090810190601f168015620002d95780820380516001836020036101000a031916815260200191505b509250505060405180910390fd5b506000838581620002f457fe5b0490508385816200030157fe5b068185020185146200030f57fe5b949350505050565b828054600181600116156101000203166002900490600052602060002090601f0160209004810192826200034f57600085556200039a565b82601f106200036a57805160ff19168380011785556200039a565b828001600101855582156200039a579182015b828111156200039a5782518255916020019190600101906200037d565b50620003a8929150620003ac565b5090565b5b80821115620003a85760008155600101620003ad565b60805160f81c60a05160c05160e0516101005161012051610140516120206200041a60003980611486525080611a50525080611a92525080611a715250806119fc525080611a24525080610b2352506120206000f3fe608060405234801561001057600080fd5b50600436106101da5760003560e01c806373c69eb711610104578063ae5c6cd3116100a2578063dd62ed3e11610071578063dd62ed3e1461060b578063dedd601114610639578063ee99205c14610641578063feeb95df14610649576101da565b8063ae5c6cd314610543578063b8fbd53314610577578063c4ef1c4c14610594578063d505accf146105ba576101da565b80639358928b116100de5780639358928b146104db57806395d89b41146104e3578063a457c2d7146104eb578063a9059cbb14610517576101da565b806373c69eb71461043a5780637965d56d146104985780637ecebe00146104b5576101da565b80632986c0e51161017c57806340a5737f1161014b57806340a5737f146103a3578063485cc955146103c257806361d027b3146103f057806370a0823114610414576101da565b80632986c0e514610349578063313ce567146103515780633644e5151461036f5780633950935114610377576101da565b8063095ea7b3116101b8578063095ea7b3146102ae57806318160ddd146102ee5780631bd39674146102f657806323b872dd14610313576101da565b8063058ecdb4146101df57806306fdde0314610214578063095be81814610291575b600080fd5b610202600480360360408110156101f557600080fd5b508035906020013561066f565b60408051918252519081900360200190f35b61021c6107ff565b6040805160208082528351818301528351919283929083019185019080838360005b8381101561025657818101518382015260200161023e565b50505050905090810190601f1680156102835780820380516001836020036101000a031916815260200191505b509250505060405180910390f35b610202600480360360208110156102a757600080fd5b5035610896565b6102da600480360360408110156102c457600080fd5b506001600160a01b038135169060200135610914565b604080519115158252519081900360200190f35b61020261092a565b6102026004803603602081101561030c57600080fd5b5035610930565b6102da6004803603606081101561032957600080fd5b506001600160a01b03813581169160208101359091169060400135610947565b610202610b0f565b610359610b21565b6040805160ff9092168252519081900360200190f35b610202610b45565b6102da6004803603604081101561038d57600080fd5b506001600160a01b038135169060200135610b4f565b6103c0600480360360208110156103b957600080fd5b5035610b8a565b005b6103c0600480360360408110156103d857600080fd5b506001600160a01b0381358116916020013516610c37565b6103f8610e1f565b604080516001600160a01b039092168252519081900360200190f35b6102026004803603602081101561042a57600080fd5b50356001600160a01b0316610e2e565b6104576004803603602081101561045057600080fd5b5035610e56565b604080519889526020890197909752878701959095526060870193909352608086019190915260a085015260c084015260e083015251908190036101000190f35b610202600480360360208110156104ae57600080fd5b5035610eae565b610202600480360360208110156104cb57600080fd5b50356001600160a01b0316610ec5565b610202610ee6565b61021c611088565b6102da6004803603604081101561050157600080fd5b506001600160a01b0381351690602001356110e9565b6102da6004803603604081101561052d57600080fd5b506001600160a01b03813516906020013561113e565b6103c06004803603606081101561055957600080fd5b508035906001600160a01b0360208201351690604001351515611272565b6102026004803603602081101561058d57600080fd5b50356113cf565b610202600480360360208110156105aa57600080fd5b50356001600160a01b031661141b565b6103c0600480360360e08110156105d057600080fd5b506001600160a01b03813581169160208101359091169060408101359060608101359060ff6080820135169060a08101359060c0013561142d565b6102026004803603604081101561062157600080fd5b506001600160a01b03813581169160200135166115a9565b6103f86115d4565b6103f86115e3565b6103c06004803603602081101561065f57600080fd5b50356001600160a01b03166115f2565b6008546000906001600160a01b031633146106bb5760405162461bcd60e51b815260040180806020018281038252602e815260200180611fe6602e913960400191505060405180910390fd5b6000806106c6610ee6565b90508461075557600254604080519182525185917f0417b340e646d4be71f9b2da63b5c3c69bc9cfa069f0e0db4756271886130bf4919081900360200190a2837f6012dbce857565c4a40974aa5de8373a761fc429077ef0c8c8611d1e20d63fb26000610731610b0f565b6040805192835260208301919091528051918290030190a2600254925050506107f9565b80156107815761077a816107746002548861174990919063ffffffff16565b90611700565b9150610785565b8491505b60025461079290836117a2565b60028190556fffffffffffffffffffffffffffffffff10156107c3576fffffffffffffffffffffffffffffffff6002555b6107e36002546611c37937e08000600019816107db57fe5b061990611700565b600b556107f18186866117fc565b600254925050505b92915050565b60038054604080516020601f600260001961010060018816150201909516949094049384018190048102820181019092528281526060939092909183018282801561088b5780601f106108605761010080835404028352916020019161088b565b820191906000526020600020905b81548152906001019060200180831161086e57829003601f168201915b505050505090505b90565b600954604080516319a948db60e21b81526004810184905290516000926001600160a01b0316916366a5236c916024808301926020929190829003018186803b1580156108e257600080fd5b505afa1580156108f6573d6000803e3d6000fd5b505050506040513d602081101561090c57600080fd5b505192915050565b6000610921338484611953565b50600192915050565b60025490565b60006107f9600b548361174990919063ffffffff16565b6001600160a01b0383166000908152600d6020908152604080832033845290915281205461097590836119b5565b6001600160a01b0385166000818152600d60209081526040808320338085529083529281902085905580519485525191937f8c5be1e5ebec7d5bd14f71427d1e84f3dd0314c0f7b2291e5b200ac8c7c3b925929081900390910190a360006109dc83610930565b6001600160a01b0386166000908152600c6020526040902054909150610a0290826119b5565b6001600160a01b038087166000908152600c60205260408082209390935590861681522054610a3190826117a2565b6001600160a01b038086166000908152600c60209081526040808320949094559188168152600f9091522054610a6686610e2e565b1015610ab9576040805162461bcd60e51b815260206004820152601c60248201527f446562743a2063616e6e6f74207472616e7366657220616d6f756e7400000000604482015290519081900360640190fd5b836001600160a01b0316856001600160a01b03167fddf252ad1be2c89b69c2b068fc378daa952ba7f163c4a11628f55a4df523b3ef856040518082815260200191505060405180910390a3506001949350505050565b6000610b1c600754610eae565b905090565b7f000000000000000000000000000000000000000000000000000000000000000090565b6000610b1c6119f7565b336000818152600d602090815260408083206001600160a01b03871684529091528120549091610921918590610b8590866117a2565b611953565b6006546001600160a01b03163314610bd35760405162461bcd60e51b8152600401808060200182810382526027815260200180611fbf6027913960400191505060405180910390fd5b60075415610c28576040805162461bcd60e51b815260206004820152601660248201527f43616e6e6f742073657420494e44455820616761696e00000000000000000000604482015290519081900360640190fd5b610c3181610930565b60075550565b6006546001600160a01b03163314610c805760405162461bcd60e51b8152600401808060200182810382526027815260200180611fbf6027913960400191505060405180910390fd5b6001600160a01b038216610cdb576040805162461bcd60e51b815260206004820152600760248201527f5374616b696e6700000000000000000000000000000000000000000000000000604482015290519081900360640190fd5b600880546001600160a01b0319166001600160a01b0384811691909117918290559081166000908152600c60205260409020660e3d2cfe61ffff1990558116610d6b576040805162461bcd60e51b815260206004820152601660248201527f5a65726f20616464726573733a20547265617375727900000000000000000000604482015290519081900360640190fd5b600e80546001600160a01b0319166001600160a01b0383811691909117909155600854600254604080519182525191909216916000917fddf252ad1be2c89b69c2b068fc378daa952ba7f163c4a11628f55a4df523b3ef916020908290030190a3600854604080516001600160a01b039092168252517f817c653428858ed536dc085c5d8273734c517b55de44b55f5c5877a75e3373a19181900360200190a15050600680546001600160a01b0319169055565b600e546001600160a01b031681565b600b546001600160a01b0382166000908152600c602052604081205490916107f99190611700565b600a8181548110610e6657600080fd5b90600052602060002090600802016000915090508060000154908060010154908060020154908060030154908060040154908060050154908060060154908060070154905088565b60006107f9600b548361170090919063ffffffff16565b6001600160a01b03811660009081526005602052604081206107f990611abe565b6000610b1c600860009054906101000a90046001600160a01b03166001600160a01b031663201386416040518163ffffffff1660e01b815260040160206040518083038186803b158015610f3957600080fd5b505afa158015610f4d573d6000803e3d6000fd5b505050506040513d6020811015610f6357600080fd5b5051600954604080516318160ddd60e01b81529051611082926001600160a01b03169163a82487689183916318160ddd916004808301926020929190829003018186803b158015610fb357600080fd5b505afa158015610fc7573d6000803e3d6000fd5b505050506040513d6020811015610fdd57600080fd5b5051604080517fffffffff0000000000000000000000000000000000000000000000000000000060e085901b1681526004810192909252516024808301926020929190829003018186803b15801561103457600080fd5b505afa158015611048573d6000803e3d6000fd5b505050506040513d602081101561105e57600080fd5b505160085461108290611079906001600160a01b0316610e2e565b600254906119b5565b906117a2565b60048054604080516020601f600260001961010060018816150201909516949094049384018190048102820181019092528281526060939092909183018282801561088b5780601f106108605761010080835404028352916020019161088b565b336000908152600d602090815260408083206001600160a01b03861684529091528120548083106111255761112033856000611953565b611134565b6111343385610b8584876119b5565b5060019392505050565b600080611156600b548461174990919063ffffffff16565b336000908152600c602052604090205490915061117390826119b5565b336000908152600c6020526040808220929092556001600160a01b0386168152205461119f90826117a2565b6001600160a01b0385166000908152600c602090815260408083209390935533808352600f90915291902054906111d590610e2e565b1015611228576040805162461bcd60e51b815260206004820152601c60248201527f446562743a2063616e6e6f74207472616e7366657220616d6f756e7400000000604482015290519081900360640190fd5b6040805184815290516001600160a01b0386169133917fddf252ad1be2c89b69c2b068fc378daa952ba7f163c4a11628f55a4df523b3ef9181900360200190a35060019392505050565b600e546001600160a01b031633146112d1576040805162461bcd60e51b815260206004820152600d60248201527f4f6e6c7920747265617375727900000000000000000000000000000000000000604482015290519081900360640190fd5b8015611318576001600160a01b0382166000908152600f60205260409020546112fa90846117a2565b6001600160a01b0383166000908152600f6020526040902055611355565b6001600160a01b0382166000908152600f602052604090205461133b90846119b5565b6001600160a01b0383166000908152600f60205260409020555b61135e82610e2e565b6001600160a01b0383166000908152600f602052604090205411156113ca576040805162461bcd60e51b815260206004820152601b60248201527f73515541533a20696e73756666696369656e742062616c616e63650000000000604482015290519081900360640190fd5b505050565b6009546040805163150490ed60e31b81526004810184905290516000926001600160a01b03169163a8248768916024808301926020929190829003018186803b1580156108e257600080fd5b600f6020526000908152604090205481565b83421115611482576040805162461bcd60e51b815260206004820152601d60248201527f45524332305065726d69743a206578706972656420646561646c696e65000000604482015290519081900360640190fd5b60007f00000000000000000000000000000000000000000000000000000000000000008888886114b18c611ac2565b8960405160200180878152602001866001600160a01b03168152602001856001600160a01b031681526020018481526020018381526020018281526020019650505050505050604051602081830303815290604052805190602001209050600061151a82611af4565b9050600061152a82878787611b07565b9050896001600160a01b0316816001600160a01b031614611592576040805162461bcd60e51b815260206004820152601e60248201527f45524332305065726d69743a20696e76616c6964207369676e61747572650000604482015290519081900360640190fd5b61159d8a8a8a611953565b50505050505050505050565b6001600160a01b039182166000908152600d6020908152604080832093909416825291909152205490565b6009546001600160a01b031681565b6008546001600160a01b031681565b6006546001600160a01b0316331461163b5760405162461bcd60e51b8152600401808060200182810382526027815260200180611fbf6027913960400191505060405180910390fd5b6009546001600160a01b031615611699576040805162461bcd60e51b815260206004820152601960248201527f67515541533a2020675155415320616c72656164792073657400000000000000604482015290519081900360640190fd5b6001600160a01b0381166116de5760405162461bcd60e51b8152600401808060200182810382526025815260200180611f356025913960400191505060405180910390fd5b600980546001600160a01b0319166001600160a01b0392909216919091179055565b600061174283836040518060400160405280601a81526020017f536166654d6174683a206469766973696f6e206279207a65726f000000000000815250611b2f565b9392505050565b600082611758575060006107f9565b8282028284828161176557fe5b04146117425760405162461bcd60e51b8152600401808060200182810382526021815260200180611f9e6021913960400191505060405180910390fd5b600082820183811015611742576040805162461bcd60e51b815260206004820152601b60248201527f536166654d6174683a206164646974696f6e206f766572666c6f770000000000604482015290519081900360640190fd5b6000831561181d5761181a8461077485670de0b6b3a7640000611749565b90505b600a604051806101000160405280848152602001838152602001868152602001611845610ee6565b8152602001858152602001611858610b0f565b815243602080830191909152426040928301528354600181810186556000958652948290208451600890920201908155838201519481019490945582820151600280860191909155606084015160038601556080840151600486015560a0840151600586015560c0840151600686015560e09093015160079094019390935590548151908152905184927f0417b340e646d4be71f9b2da63b5c3c69bc9cfa069f0e0db4756271886130bf4928290030190a2817f6012dbce857565c4a40974aa5de8373a761fc429077ef0c8c8611d1e20d63fb282611935610b0f565b6040805192835260208301919091528051918290030190a250505050565b6001600160a01b038084166000818152600d6020908152604080832094871680845294825291829020859055815185815291517f8c5be1e5ebec7d5bd14f71427d1e84f3dd0314c0f7b2291e5b200ac8c7c3b9259281900390910190a3505050565b600061174283836040518060400160405280601e81526020017f536166654d6174683a207375627472616374696f6e206f766572666c6f770000815250611be8565b6000467f0000000000000000000000000000000000000000000000000000000000000000811415611a4b577f0000000000000000000000000000000000000000000000000000000000000000915050610893565b611ab67f00000000000000000000000000000000000000000000000000000000000000007f00000000000000000000000000000000000000000000000000000000000000007f0000000000000000000000000000000000000000000000000000000000000000611c42565b915050610893565b5490565b6001600160a01b0381166000908152600560205260408120611ae381611abe565b9150611aee81611c87565b50919050565b60006107f9611b016119f7565b83611c90565b6000806000611b1887878787611ccb565b91509150611b2581611dc0565b5095945050505050565b60008183611bbb5760405162461bcd60e51b81526004018080602001828103825283818151815260200191508051906020019080838360005b83811015611b80578181015183820152602001611b68565b50505050905090810190601f168015611bad5780820380516001836020036101000a031916815260200191505b509250505060405180910390fd5b506000838581611bc757fe5b049050838581611bd357fe5b06818502018514611be057fe5b949350505050565b60008184841115611c3a5760405162461bcd60e51b8152602060048201818152835160248401528351909283926044909101919085019080838360008315611b80578181015183820152602001611b68565b505050900390565b604080516020808201959095528082019390935260608301919091524660808301523060a0808401919091528151808403909101815260c09092019052805191012090565b80546001019055565b6040805161190160f01b6020808301919091526022820194909452604280820193909352815180820390930183526062019052805191012090565b6000807f7fffffffffffffffffffffffffffffff5d576e7357a4501ddfe92f46681b20a0831115611d025750600090506003611db7565b8460ff16601b14158015611d1a57508460ff16601c14155b15611d2b5750600090506004611db7565b600060018787878760405160008152602001604052604051808581526020018460ff1681526020018381526020018281526020019450505050506020604051602081039080840390855afa158015611d87573d6000803e3d6000fd5b5050604051601f1901519150506001600160a01b038116611db057600060019250925050611db7565b9150600090505b94509492505050565b6000816004811115611dce57fe5b1415611dd957611f31565b6001816004811115611de757fe5b1415611e3a576040805162461bcd60e51b815260206004820152601860248201527f45434453413a20696e76616c6964207369676e61747572650000000000000000604482015290519081900360640190fd5b6002816004811115611e4857fe5b1415611e9b576040805162461bcd60e51b815260206004820152601f60248201527f45434453413a20696e76616c6964207369676e6174757265206c656e67746800604482015290519081900360640190fd5b6003816004811115611ea957fe5b1415611ee65760405162461bcd60e51b8152600401808060200182810382526022815260200180611f5a6022913960400191505060405180910390fd5b6004816004811115611ef457fe5b1415611f315760405162461bcd60e51b8152600401808060200182810382526022815260200180611f7c6022913960400191505060405180910390fd5b5056fe67515553413a20206751554153206973206e6f7420612076616c696420636f6e747261637445434453413a20696e76616c6964207369676e6174757265202773272076616c756545434453413a20696e76616c6964207369676e6174757265202776272076616c7565536166654d6174683a206d756c7469706c69636174696f6e206f766572666c6f77496e697469616c697a65723a202063616c6c6572206973206e6f7420696e697469616c697a65725374616b696e67436f6e74726163743a202063616c6c206973206e6f74207374616b696e6720636f6e7472616374a164736f6c6343000705000a",
  "devdoc": {
    "kind": "dev",
    "methods": {
      "DOMAIN_SEPARATOR()": {
        "details": "See {IERC20Permit-DOMAIN_SEPARATOR}."
      },
      "nonces(address)": {
        "details": "See {IERC20Permit-nonces}."
      },
      "permit(address,address,uint256,uint256,uint8,bytes32,bytes32)": {
        "details": "See {IERC20Permit-permit}."
      },
      "rebase(uint256,uint256)": {
        "params": {
          "profit_": "uint256"
        },
        "returns": {
          "_0": "uint256"
        }
      },
      "totalSupply()": {
        "details": "Returns the amount of tokens in existence."
      }
    },
    "version": 1
  },
  "userdoc": {
    "kind": "user",
    "methods": {
      "rebase(uint256,uint256)": {
        "notice": "increases sQUAS supply to increase staking balances relative to profit_"
      }
    },
    "version": 1
  },
  "storageLayout": {
    "storage": [
      {
        "astId": 10458,
        "contract": "contracts/sQuasarERC20.sol:sQuasarERC20Token",
        "label": "_balances",
        "offset": 0,
        "slot": "0",
        "type": "t_mapping(t_address,t_uint256)"
      },
      {
        "astId": 10464,
        "contract": "contracts/sQuasarERC20.sol:sQuasarERC20Token",
        "label": "_allowances",
        "offset": 0,
        "slot": "1",
        "type": "t_mapping(t_address,t_mapping(t_address,t_uint256))"
      },
      {
        "astId": 10466,
        "contract": "contracts/sQuasarERC20.sol:sQuasarERC20Token",
        "label": "_totalSupply",
        "offset": 0,
        "slot": "2",
        "type": "t_uint256"
      },
      {
        "astId": 10468,
        "contract": "contracts/sQuasarERC20.sol:sQuasarERC20Token",
        "label": "_name",
        "offset": 0,
        "slot": "3",
        "type": "t_string_storage"
      },
      {
        "astId": 10470,
        "contract": "contracts/sQuasarERC20.sol:sQuasarERC20Token",
        "label": "_symbol",
        "offset": 0,
        "slot": "4",
        "type": "t_string_storage"
      },
      {
        "astId": 10939,
        "contract": "contracts/sQuasarERC20.sol:sQuasarERC20Token",
        "label": "_nonces",
        "offset": 0,
        "slot": "5",
        "type": "t_mapping(t_address,t_struct(Counter)8335_storage)"
      },
      {
        "astId": 9590,
        "contract": "contracts/sQuasarERC20.sol:sQuasarERC20Token",
        "label": "initializer",
        "offset": 0,
        "slot": "6",
        "type": "t_address"
      },
      {
        "astId": 9592,
        "contract": "contracts/sQuasarERC20.sol:sQuasarERC20Token",
        "label": "INDEX",
        "offset": 0,
        "slot": "7",
        "type": "t_uint256"
      },
      {
        "astId": 9594,
        "contract": "contracts/sQuasarERC20.sol:sQuasarERC20Token",
        "label": "stakingContract",
        "offset": 0,
        "slot": "8",
        "type": "t_address"
      },
      {
        "astId": 9596,
        "contract": "contracts/sQuasarERC20.sol:sQuasarERC20Token",
        "label": "gQUAS",
        "offset": 0,
        "slot": "9",
        "type": "t_contract(IgQUAS)7812"
      },
      {
        "astId": 9599,
        "contract": "contracts/sQuasarERC20.sol:sQuasarERC20Token",
        "label": "rebases",
        "offset": 0,
        "slot": "10",
        "type": "t_array(t_struct(Rebase)9588_storage)dyn_storage"
      },
      {
        "astId": 9630,
        "contract": "contracts/sQuasarERC20.sol:sQuasarERC20Token",
        "label": "_gonsPerFragment",
        "offset": 0,
        "slot": "11",
        "type": "t_uint256"
      },
      {
        "astId": 9634,
        "contract": "contracts/sQuasarERC20.sol:sQuasarERC20Token",
        "label": "_gonBalances",
        "offset": 0,
        "slot": "12",
        "type": "t_mapping(t_address,t_uint256)"
      },
      {
        "astId": 9640,
        "contract": "contracts/sQuasarERC20.sol:sQuasarERC20Token",
        "label": "_allowedValue",
        "offset": 0,
        "slot": "13",
        "type": "t_mapping(t_address,t_mapping(t_address,t_uint256))"
      },
      {
        "astId": 9642,
        "contract": "contracts/sQuasarERC20.sol:sQuasarERC20Token",
        "label": "treasury",
        "offset": 0,
        "slot": "14",
        "type": "t_address"
      },
      {
        "astId": 9647,
        "contract": "contracts/sQuasarERC20.sol:sQuasarERC20Token",
        "label": "debtBalances",
        "offset": 0,
        "slot": "15",
        "type": "t_mapping(t_address,t_uint256)"
      }
    ],
    "types": {
      "t_address": {
        "encoding": "inplace",
        "label": "address",
        "numberOfBytes": "20"
      },
      "t_array(t_struct(Rebase)9588_storage)dyn_storage": {
        "base": "t_struct(Rebase)9588_storage",
        "encoding": "dynamic_array",
        "label": "struct sQuasarERC20Token.Rebase[]",
        "numberOfBytes": "32"
      },
      "t_contract(IgQUAS)7812": {
        "encoding": "inplace",
        "label": "contract IgQUAS",
        "numberOfBytes": "20"
      },
      "t_mapping(t_address,t_mapping(t_address,t_uint256))": {
        "encoding": "mapping",
        "key": "t_address",
        "label": "mapping(address => mapping(address => uint256))",
        "numberOfBytes": "32",
        "value": "t_mapping(t_address,t_uint256)"
      },
      "t_mapping(t_address,t_struct(Counter)8335_storage)": {
        "encoding": "mapping",
        "key": "t_address",
        "label": "mapping(address => struct Counters.Counter)",
        "numberOfBytes": "32",
        "value": "t_struct(Counter)8335_storage"
      },
      "t_mapping(t_address,t_uint256)": {
        "encoding": "mapping",
        "key": "t_address",
        "label": "mapping(address => uint256)",
        "numberOfBytes": "32",
        "value": "t_uint256"
      },
      "t_string_storage": {
        "encoding": "bytes",
        "label": "string",
        "numberOfBytes": "32"
      },
      "t_struct(Counter)8335_storage": {
        "encoding": "inplace",
        "label": "struct Counters.Counter",
        "members": [
          {
            "astId": 8334,
            "contract": "contracts/sQuasarERC20.sol:sQuasarERC20Token",
            "label": "_value",
            "offset": 0,
            "slot": "0",
            "type": "t_uint256"
          }
        ],
        "numberOfBytes": "32"
      },
      "t_struct(Rebase)9588_storage": {
        "encoding": "inplace",
        "label": "struct sQuasarERC20Token.Rebase",
        "members": [
          {
            "astId": 9573,
            "contract": "contracts/sQuasarERC20.sol:sQuasarERC20Token",
            "label": "epoch",
            "offset": 0,
            "slot": "0",
            "type": "t_uint256"
          },
          {
            "astId": 9575,
            "contract": "contracts/sQuasarERC20.sol:sQuasarERC20Token",
            "label": "rebase",
            "offset": 0,
            "slot": "1",
            "type": "t_uint256"
          },
          {
            "astId": 9577,
            "contract": "contracts/sQuasarERC20.sol:sQuasarERC20Token",
            "label": "totalStakedBefore",
            "offset": 0,
            "slot": "2",
            "type": "t_uint256"
          },
          {
            "astId": 9579,
            "contract": "contracts/sQuasarERC20.sol:sQuasarERC20Token",
            "label": "totalStakedAfter",
            "offset": 0,
            "slot": "3",
            "type": "t_uint256"
          },
          {
            "astId": 9581,
            "contract": "contracts/sQuasarERC20.sol:sQuasarERC20Token",
            "label": "amountRebased",
            "offset": 0,
            "slot": "4",
            "type": "t_uint256"
          },
          {
            "astId": 9583,
            "contract": "contracts/sQuasarERC20.sol:sQuasarERC20Token",
            "label": "index",
            "offset": 0,
            "slot": "5",
            "type": "t_uint256"
          },
          {
            "astId": 9585,
            "contract": "contracts/sQuasarERC20.sol:sQuasarERC20Token",
            "label": "blockNumberOccured",
            "offset": 0,
            "slot": "6",
            "type": "t_uint256"
          },
          {
            "astId": 9587,
            "contract": "contracts/sQuasarERC20.sol:sQuasarERC20Token",
            "label": "blockTimestampOccured",
            "offset": 0,
            "slot": "7",
            "type": "t_uint256"
          }
        ],
        "numberOfBytes": "256"
      },
      "t_uint256": {
        "encoding": "inplace",
        "label": "uint256",
        "numberOfBytes": "32"
      }
    }
  }
}